{
  "_format": "hh-sol-artifact-1",
  "contractName": "StrategyContract",
  "sourceName": "contracts/StrategyContract.sol",
  "abi": [
    {
      "inputs": [
        {
          "internalType": "address",
          "name": "_vault",
          "type": "address"
        },
        {
          "internalType": "address",
          "name": "_uniswapRouter",
          "type": "address"
        },
        {
          "internalType": "address",
          "name": "_uniswapPair",
          "type": "address"
        },
        {
          "internalType": "address",
          "name": "_token0",
          "type": "address"
        },
        {
          "internalType": "address",
          "name": "_token1",
          "type": "address"
        },
        {
          "internalType": "address",
          "name": "_rewardToken",
          "type": "address"
        },
        {
          "internalType": "address",
          "name": "_stakingContract",
          "type": "address"
        }
      ],
      "stateMutability": "nonpayable",
      "type": "constructor"
    },
    {
      "anonymous": false,
      "inputs": [
        {
          "indexed": true,
          "internalType": "address",
          "name": "user",
          "type": "address"
        },
        {
          "indexed": false,
          "internalType": "uint256",
          "name": "amount0",
          "type": "uint256"
        },
        {
          "indexed": false,
          "internalType": "uint256",
          "name": "amount1",
          "type": "uint256"
        },
        {
          "indexed": false,
          "internalType": "uint256",
          "name": "lpAmount",
          "type": "uint256"
        }
      ],
      "name": "Deposited",
      "type": "event"
    },
    {
      "anonymous": false,
      "inputs": [
        {
          "indexed": true,
          "internalType": "address",
          "name": "previousOwner",
          "type": "address"
        },
        {
          "indexed": true,
          "internalType": "address",
          "name": "newOwner",
          "type": "address"
        }
      ],
      "name": "OwnershipTransferred",
      "type": "event"
    },
    {
      "anonymous": false,
      "inputs": [
        {
          "indexed": false,
          "internalType": "address",
          "name": "account",
          "type": "address"
        }
      ],
      "name": "Paused",
      "type": "event"
    },
    {
      "anonymous": false,
      "inputs": [
        {
          "indexed": true,
          "internalType": "address",
          "name": "user",
          "type": "address"
        },
        {
          "indexed": false,
          "internalType": "uint256",
          "name": "amount",
          "type": "uint256"
        }
      ],
      "name": "RewardsClaimed",
      "type": "event"
    },
    {
      "anonymous": false,
      "inputs": [
        {
          "indexed": false,
          "internalType": "uint256",
          "name": "rewardAmount",
          "type": "uint256"
        },
        {
          "indexed": false,
          "internalType": "uint256",
          "name": "newLpAmount",
          "type": "uint256"
        }
      ],
      "name": "RewardsReinvested",
      "type": "event"
    },
    {
      "anonymous": false,
      "inputs": [
        {
          "indexed": false,
          "internalType": "address",
          "name": "account",
          "type": "address"
        }
      ],
      "name": "Unpaused",
      "type": "event"
    },
    {
      "anonymous": false,
      "inputs": [
        {
          "indexed": true,
          "internalType": "address",
          "name": "user",
          "type": "address"
        },
        {
          "indexed": false,
          "internalType": "uint256",
          "name": "shares",
          "type": "uint256"
        },
        {
          "indexed": false,
          "internalType": "uint256",
          "name": "amount0",
          "type": "uint256"
        },
        {
          "indexed": false,
          "internalType": "uint256",
          "name": "amount1",
          "type": "uint256"
        }
      ],
      "name": "Withdrawn",
      "type": "event"
    },
    {
      "inputs": [],
      "name": "DEADLINE_EXTENSION",
      "outputs": [
        {
          "internalType": "uint256",
          "name": "",
          "type": "uint256"
        }
      ],
      "stateMutability": "view",
      "type": "function"
    },
    {
      "inputs": [],
      "name": "SLIPPAGE_TOLERANCE",
      "outputs": [
        {
          "internalType": "uint256",
          "name": "",
          "type": "uint256"
        }
      ],
      "stateMutability": "view",
      "type": "function"
    },
    {
      "inputs": [],
      "name": "claimRewards",
      "outputs": [],
      "stateMutability": "nonpayable",
      "type": "function"
    },
    {
      "inputs": [
        {
          "internalType": "uint256",
          "name": "amount0",
          "type": "uint256"
        },
        {
          "internalType": "uint256",
          "name": "amount1",
          "type": "uint256"
        }
      ],
      "name": "deposit",
      "outputs": [],
      "stateMutability": "nonpayable",
      "type": "function"
    },
    {
      "inputs": [],
      "name": "emergencyWithdraw",
      "outputs": [],
      "stateMutability": "nonpayable",
      "type": "function"
    },
    {
      "inputs": [
        {
          "internalType": "address",
          "name": "user",
          "type": "address"
        }
      ],
      "name": "getUserRewards",
      "outputs": [
        {
          "internalType": "uint256",
          "name": "",
          "type": "uint256"
        }
      ],
      "stateMutability": "view",
      "type": "function"
    },
    {
      "inputs": [],
      "name": "lpToken",
      "outputs": [
        {
          "internalType": "contract IERC20",
          "name": "",
          "type": "address"
        }
      ],
      "stateMutability": "view",
      "type": "function"
    },
    {
      "inputs": [],
      "name": "owner",
      "outputs": [
        {
          "internalType": "address",
          "name": "",
          "type": "address"
        }
      ],
      "stateMutability": "view",
      "type": "function"
    },
    {
      "inputs": [],
      "name": "paused",
      "outputs": [
        {
          "internalType": "bool",
          "name": "",
          "type": "bool"
        }
      ],
      "stateMutability": "view",
      "type": "function"
    },
    {
      "inputs": [],
      "name": "reinvestRewards",
      "outputs": [],
      "stateMutability": "nonpayable",
      "type": "function"
    },
    {
      "inputs": [],
      "name": "renounceOwnership",
      "outputs": [],
      "stateMutability": "nonpayable",
      "type": "function"
    },
    {
      "inputs": [],
      "name": "rewardToken",
      "outputs": [
        {
          "internalType": "contract IERC20",
          "name": "",
          "type": "address"
        }
      ],
      "stateMutability": "view",
      "type": "function"
    },
    {
      "inputs": [
        {
          "internalType": "uint256",
          "name": "_slippageTolerance",
          "type": "uint256"
        }
      ],
      "name": "setSlippageTolerance",
      "outputs": [],
      "stateMutability": "nonpayable",
      "type": "function"
    },
    {
      "inputs": [],
      "name": "stakingContract",
      "outputs": [
        {
          "internalType": "contract StakingContract",
          "name": "",
          "type": "address"
        }
      ],
      "stateMutability": "view",
      "type": "function"
    },
    {
      "inputs": [],
      "name": "token0",
      "outputs": [
        {
          "internalType": "contract IERC20",
          "name": "",
          "type": "address"
        }
      ],
      "stateMutability": "view",
      "type": "function"
    },
    {
      "inputs": [],
      "name": "token1",
      "outputs": [
        {
          "internalType": "contract IERC20",
          "name": "",
          "type": "address"
        }
      ],
      "stateMutability": "view",
      "type": "function"
    },
    {
      "inputs": [
        {
          "internalType": "address",
          "name": "newOwner",
          "type": "address"
        }
      ],
      "name": "transferOwnership",
      "outputs": [],
      "stateMutability": "nonpayable",
      "type": "function"
    },
    {
      "inputs": [],
      "name": "uniswapPair",
      "outputs": [
        {
          "internalType": "contract IUniswapV2Pair",
          "name": "",
          "type": "address"
        }
      ],
      "stateMutability": "view",
      "type": "function"
    },
    {
      "inputs": [],
      "name": "uniswapRouter",
      "outputs": [
        {
          "internalType": "contract IUniswapV2Router02",
          "name": "",
          "type": "address"
        }
      ],
      "stateMutability": "view",
      "type": "function"
    },
    {
      "inputs": [],
      "name": "vault",
      "outputs": [
        {
          "internalType": "contract ERC4626Vault",
          "name": "",
          "type": "address"
        }
      ],
      "stateMutability": "view",
      "type": "function"
    },
    {
      "inputs": [
        {
          "internalType": "uint256",
          "name": "shares",
          "type": "uint256"
        }
      ],
      "name": "withdraw",
      "outputs": [],
      "stateMutability": "nonpayable",
      "type": "function"
    }
  ],
  "bytecode": "0x60806040526032600a553480156200001657600080fd5b506040516200544d3803806200544d83398181016040528101906200003c9190620009c7565b600160008190555062000064620000586200088f60201b60201c565b6200089760201b60201c565b6000600160146101000a81548160ff021916908315150217905550600073ffffffffffffffffffffffffffffffffffffffff168773ffffffffffffffffffffffffffffffffffffffff1603620000f1576040517f08c379a0000000000000000000000000000000000000000000000000000000008152600401620000e89062000adb565b60405180910390fd5b600073ffffffffffffffffffffffffffffffffffffffff168673ffffffffffffffffffffffffffffffffffffffff160362000163576040517f08c379a00000000000000000000000000000000000000000000000000000000081526004016200015a9062000b4d565b60405180910390fd5b600073ffffffffffffffffffffffffffffffffffffffff168573ffffffffffffffffffffffffffffffffffffffff1603620001d5576040517f08c379a0000000000000000000000000000000000000000000000000000000008152600401620001cc9062000bbf565b60405180910390fd5b600073ffffffffffffffffffffffffffffffffffffffff168473ffffffffffffffffffffffffffffffffffffffff160362000247576040517f08c379a00000000000000000000000000000000000000000000000000000000081526004016200023e9062000c31565b60405180910390fd5b600073ffffffffffffffffffffffffffffffffffffffff168373ffffffffffffffffffffffffffffffffffffffff1603620002b9576040517f08c379a0000000000000000000000000000000000000000000000000000000008152600401620002b09062000ca3565b60405180910390fd5b600073ffffffffffffffffffffffffffffffffffffffff168273ffffffffffffffffffffffffffffffffffffffff16036200032b576040517f08c379a0000000000000000000000000000000000000000000000000000000008152600401620003229062000d15565b60405180910390fd5b600073ffffffffffffffffffffffffffffffffffffffff168173ffffffffffffffffffffffffffffffffffffffff16036200039d576040517f08c379a0000000000000000000000000000000000000000000000000000000008152600401620003949062000d87565b60405180910390fd5b86600260006101000a81548173ffffffffffffffffffffffffffffffffffffffff021916908373ffffffffffffffffffffffffffffffffffffffff16021790555085600360006101000a81548173ffffffffffffffffffffffffffffffffffffffff021916908373ffffffffffffffffffffffffffffffffffffffff16021790555084600460006101000a81548173ffffffffffffffffffffffffffffffffffffffff021916908373ffffffffffffffffffffffffffffffffffffffff16021790555083600560006101000a81548173ffffffffffffffffffffffffffffffffffffffff021916908373ffffffffffffffffffffffffffffffffffffffff16021790555082600660006101000a81548173ffffffffffffffffffffffffffffffffffffffff021916908373ffffffffffffffffffffffffffffffffffffffff16021790555084600760006101000a81548173ffffffffffffffffffffffffffffffffffffffff021916908373ffffffffffffffffffffffffffffffffffffffff16021790555081600960006101000a81548173ffffffffffffffffffffffffffffffffffffffff021916908373ffffffffffffffffffffffffffffffffffffffff16021790555080600860006101000a81548173ffffffffffffffffffffffffffffffffffffffff021916908373ffffffffffffffffffffffffffffffffffffffff1602179055506000808473ffffffffffffffffffffffffffffffffffffffff168673ffffffffffffffffffffffffffffffffffffffff1610620005e4578486620005e7565b85855b9150915081600560006101000a81548173ffffffffffffffffffffffffffffffffffffffff021916908373ffffffffffffffffffffffffffffffffffffffff16021790555080600660006101000a81548173ffffffffffffffffffffffffffffffffffffffff021916908373ffffffffffffffffffffffffffffffffffffffff160217905550600560009054906101000a900473ffffffffffffffffffffffffffffffffffffffff1673ffffffffffffffffffffffffffffffffffffffff16600460009054906101000a900473ffffffffffffffffffffffffffffffffffffffff1673ffffffffffffffffffffffffffffffffffffffff16630dfe16816040518163ffffffff1660e01b8152600401602060405180830381865afa15801562000714573d6000803e3d6000fd5b505050506040513d601f19601f820116820180604052508101906200073a919062000da9565b73ffffffffffffffffffffffffffffffffffffffff161480156200083e5750600660009054906101000a900473ffffffffffffffffffffffffffffffffffffffff1673ffffffffffffffffffffffffffffffffffffffff16600460009054906101000a900473ffffffffffffffffffffffffffffffffffffffff1673ffffffffffffffffffffffffffffffffffffffff1663d21220a76040518163ffffffff1660e01b8152600401602060405180830381865afa15801562000800573d6000803e3d6000fd5b505050506040513d601f19601f8201168201806040525081019062000826919062000da9565b73ffffffffffffffffffffffffffffffffffffffff16145b62000880576040517f08c379a0000000000000000000000000000000000000000000000000000000008152600401620008779062000e2b565b60405180910390fd5b50505050505050505062000e4d565b600033905090565b6000600160009054906101000a900473ffffffffffffffffffffffffffffffffffffffff16905081600160006101000a81548173ffffffffffffffffffffffffffffffffffffffff021916908373ffffffffffffffffffffffffffffffffffffffff1602179055508173ffffffffffffffffffffffffffffffffffffffff168173ffffffffffffffffffffffffffffffffffffffff167f8be0079c531659141344cd1fd0a4f28419497f9722a3daafe3b4186f6b6457e060405160405180910390a35050565b600080fd5b600073ffffffffffffffffffffffffffffffffffffffff82169050919050565b60006200098f8262000962565b9050919050565b620009a18162000982565b8114620009ad57600080fd5b50565b600081519050620009c18162000996565b92915050565b600080600080600080600060e0888a031215620009e957620009e86200095d565b5b6000620009f98a828b01620009b0565b975050602062000a0c8a828b01620009b0565b965050604062000a1f8a828b01620009b0565b955050606062000a328a828b01620009b0565b945050608062000a458a828b01620009b0565b93505060a062000a588a828b01620009b0565b92505060c062000a6b8a828b01620009b0565b91505092959891949750929550565b600082825260208201905092915050565b7f496e76616c6964207661756c7420616464726573730000000000000000000000600082015250565b600062000ac360158362000a7a565b915062000ad08262000a8b565b602082019050919050565b6000602082019050818103600083015262000af68162000ab4565b9050919050565b7f496e76616c696420726f75746572206164647265737300000000000000000000600082015250565b600062000b3560168362000a7a565b915062000b428262000afd565b602082019050919050565b6000602082019050818103600083015262000b688162000b26565b9050919050565b7f496e76616c696420706169722061646472657373000000000000000000000000600082015250565b600062000ba760148362000a7a565b915062000bb48262000b6f565b602082019050919050565b6000602082019050818103600083015262000bda8162000b98565b9050919050565b7f496e76616c696420746f6b656e30206164647265737300000000000000000000600082015250565b600062000c1960168362000a7a565b915062000c268262000be1565b602082019050919050565b6000602082019050818103600083015262000c4c8162000c0a565b9050919050565b7f496e76616c696420746f6b656e31206164647265737300000000000000000000600082015250565b600062000c8b60168362000a7a565b915062000c988262000c53565b602082019050919050565b6000602082019050818103600083015262000cbe8162000c7c565b9050919050565b7f496e76616c69642072657761726420746f6b656e206164647265737300000000600082015250565b600062000cfd601c8362000a7a565b915062000d0a8262000cc5565b602082019050919050565b6000602082019050818103600083015262000d308162000cee565b9050919050565b7f496e76616c6964207374616b696e6720636f6e74726163742061646472657373600082015250565b600062000d6f60208362000a7a565b915062000d7c8262000d37565b602082019050919050565b6000602082019050818103600083015262000da28162000d60565b9050919050565b60006020828403121562000dc25762000dc16200095d565b5b600062000dd284828501620009b0565b91505092915050565b7f496e76616c696420746f6b656e20706169720000000000000000000000000000600082015250565b600062000e1360128362000a7a565b915062000e208262000ddb565b602082019050919050565b6000602082019050818103600083015262000e468162000e04565b9050919050565b6145f08062000e5d6000396000f3fe608060405234801561001057600080fd5b50600436106101375760003560e01c80638da5cb5b116100b8578063e2bbb1581161007c578063e2bbb158146102bc578063ee99205c146102d8578063f2fde38b146102f6578063f7c618c114610312578063fbfa77cf14610330578063ffe6f79a1461034e57610137565b80638da5cb5b1461024e578063b5f4d38c1461026c578063c816841b14610276578063d21220a714610294578063db2e21bc146102b257610137565b80634c203786116100ff5780634c203786146101cc5780635c975abb146101ea5780635fcbd28514610208578063715018a614610226578063735de9f71461023057610137565b8063078b0fb71461013c5780630dfe16811461016c578063117da1ee1461018a5780632e1a7d4d146101a6578063372500ab146101c2575b600080fd5b61015660048036038101906101519190613233565b61036c565b6040516101639190613279565b60405180910390f35b610174610623565b60405161018191906132f3565b60405180910390f35b6101a4600480360381019061019f919061333a565b610649565b005b6101c060048036038101906101bb919061333a565b6106a0565b005b6101ca610d0d565b005b6101d46111fc565b6040516101e19190613279565b60405180910390f35b6101f2611202565b6040516101ff9190613382565b60405180910390f35b610210611219565b60405161021d91906132f3565b60405180910390f35b61022e61123f565b005b610238611253565b60405161024591906133be565b60405180910390f35b610256611279565b60405161026391906133e8565b60405180910390f35b6102746112a3565b005b61027e611fd5565b60405161028b9190613424565b60405180910390f35b61029c611ffb565b6040516102a991906132f3565b60405180910390f35b6102ba612021565b005b6102d660048036038101906102d1919061343f565b612580565b005b6102e0612baa565b6040516102ed91906134a0565b60405180910390f35b610310600480360381019061030b9190613233565b612bd0565b005b61031a612c53565b60405161032791906132f3565b60405180910390f35b610338612c79565b60405161034591906134dc565b60405180910390f35b610356612c9f565b6040516103639190613279565b60405180910390f35b600080600260009054906101000a900473ffffffffffffffffffffffffffffffffffffffff1673ffffffffffffffffffffffffffffffffffffffff166370a08231846040518263ffffffff1660e01b81526004016103ca91906133e8565b602060405180830381865afa1580156103e7573d6000803e3d6000fd5b505050506040513d601f19601f8201168201806040525081019061040b919061350c565b90506000600260009054906101000a900473ffffffffffffffffffffffffffffffffffffffff1673ffffffffffffffffffffffffffffffffffffffff166318160ddd6040518163ffffffff1660e01b8152600401602060405180830381865afa15801561047c573d6000803e3d6000fd5b505050506040513d601f19601f820116820180604052508101906104a0919061350c565b90506000600860009054906101000a900473ffffffffffffffffffffffffffffffffffffffff1673ffffffffffffffffffffffffffffffffffffffff166318160ddd6040518163ffffffff1660e01b8152600401602060405180830381865afa158015610511573d6000803e3d6000fd5b505050506040513d601f19601f82011682018060405250810190610535919061350c565b90506000820361054b576000935050505061061e565b600082848361055a9190613568565b61056491906135d9565b90508181600860009054906101000a900473ffffffffffffffffffffffffffffffffffffffff1673ffffffffffffffffffffffffffffffffffffffff16628cc262306040518263ffffffff1660e01b81526004016105c291906133e8565b602060405180830381865afa1580156105df573d6000803e3d6000fd5b505050506040513d601f19601f82011682018060405250810190610603919061350c565b61060d9190613568565b61061791906135d9565b9450505050505b919050565b600560009054906101000a900473ffffffffffffffffffffffffffffffffffffffff1681565b610651612ca5565b6101f4811115610696576040517f08c379a000000000000000000000000000000000000000000000000000000000815260040161068d90613667565b60405180910390fd5b80600a8190555050565b6106a8612d23565b6106b0612d72565b600081116106f3576040517f08c379a00000000000000000000000000000000000000000000000000000000081526004016106ea906136d3565b60405180910390fd5b6000600260009054906101000a900473ffffffffffffffffffffffffffffffffffffffff1673ffffffffffffffffffffffffffffffffffffffff1663ba0876528330336040518463ffffffff1660e01b8152600401610754939291906136f3565b6020604051808303816000875af1158015610773573d6000803e3d6000fd5b505050506040513d601f19601f82011682018060405250810190610797919061350c565b9050600081116107dc576040517f08c379a00000000000000000000000000000000000000000000000000000000081526004016107d390613776565b60405180910390fd5b6107e581612dbc565b80600760009054906101000a900473ffffffffffffffffffffffffffffffffffffffff1673ffffffffffffffffffffffffffffffffffffffff166370a08231306040518263ffffffff1660e01b815260040161084191906133e8565b602060405180830381865afa15801561085e573d6000803e3d6000fd5b505050506040513d601f19601f82011682018060405250810190610882919061350c565b10156108c3576040517f08c379a00000000000000000000000000000000000000000000000000000000081526004016108ba90613808565b60405180910390fd5b600760009054906101000a900473ffffffffffffffffffffffffffffffffffffffff1673ffffffffffffffffffffffffffffffffffffffff1663095ea7b3600360009054906101000a900473ffffffffffffffffffffffffffffffffffffffff16836040518363ffffffff1660e01b8152600401610942929190613828565b6020604051808303816000875af1158015610961573d6000803e3d6000fd5b505050506040513d601f19601f82011682018060405250810190610985919061387d565b50600080600460009054906101000a900473ffffffffffffffffffffffffffffffffffffffff1673ffffffffffffffffffffffffffffffffffffffff16630902f1ac6040518163ffffffff1660e01b8152600401606060405180830381865afa1580156109f6573d6000803e3d6000fd5b505050506040513d601f19601f82011682018060405250810190610a1a919061392c565b506dffffffffffffffffffffffffffff1691506dffffffffffffffffffffffffffff1691506000600460009054906101000a900473ffffffffffffffffffffffffffffffffffffffff1673ffffffffffffffffffffffffffffffffffffffff166318160ddd6040518163ffffffff1660e01b8152600401602060405180830381865afa158015610aae573d6000803e3d6000fd5b505050506040513d601f19601f82011682018060405250810190610ad2919061350c565b90506000612710600a54612710610ae9919061397f565b838688610af69190613568565b610b0091906135d9565b610b0a9190613568565b610b1491906135d9565b90506000612710600a54612710610b2b919061397f565b848689610b389190613568565b610b4291906135d9565b610b4c9190613568565b610b5691906135d9565b9050600080600360009054906101000a900473ffffffffffffffffffffffffffffffffffffffff1673ffffffffffffffffffffffffffffffffffffffff1663baa2abde600560009054906101000a900473ffffffffffffffffffffffffffffffffffffffff16600660009054906101000a900473ffffffffffffffffffffffffffffffffffffffff168b88883361012c42610bf191906139b3565b6040518863ffffffff1660e01b8152600401610c1397969594939291906139e7565b60408051808303816000875af1158015610c31573d6000803e3d6000fd5b505050506040513d601f19601f82011682018060405250810190610c559190613a56565b91509150838210158015610c695750828110155b610ca8576040517f08c379a0000000000000000000000000000000000000000000000000000000008152600401610c9f90613ae2565b60405180910390fd5b3373ffffffffffffffffffffffffffffffffffffffff167f75e161b3e824b114fc1a33274bd7091918dd4e639cede50b78b15a4eea956a218a8484604051610cf293929190613b02565b60405180910390a25050505050505050610d0a612e8f565b50565b610d15612d23565b610d1d612d72565b6000600260009054906101000a900473ffffffffffffffffffffffffffffffffffffffff1673ffffffffffffffffffffffffffffffffffffffff166370a08231336040518263ffffffff1660e01b8152600401610d7a91906133e8565b602060405180830381865afa158015610d97573d6000803e3d6000fd5b505050506040513d601f19601f82011682018060405250810190610dbb919061350c565b90506000600260009054906101000a900473ffffffffffffffffffffffffffffffffffffffff1673ffffffffffffffffffffffffffffffffffffffff166318160ddd6040518163ffffffff1660e01b8152600401602060405180830381865afa158015610e2c573d6000803e3d6000fd5b505050506040513d601f19601f82011682018060405250810190610e50919061350c565b905060008211610e95576040517f08c379a0000000000000000000000000000000000000000000000000000000008152600401610e8c90613b85565b60405180910390fd5b6000600960009054906101000a900473ffffffffffffffffffffffffffffffffffffffff1673ffffffffffffffffffffffffffffffffffffffff166370a08231306040518263ffffffff1660e01b8152600401610ef291906133e8565b602060405180830381865afa158015610f0f573d6000803e3d6000fd5b505050506040513d601f19601f82011682018060405250810190610f33919061350c565b9050600860009054906101000a900473ffffffffffffffffffffffffffffffffffffffff1673ffffffffffffffffffffffffffffffffffffffff16633d18b9126040518163ffffffff1660e01b8152600401600060405180830381600087803b158015610f9f57600080fd5b505af1158015610fb3573d6000803e3d6000fd5b50505050600081600960009054906101000a900473ffffffffffffffffffffffffffffffffffffffff1673ffffffffffffffffffffffffffffffffffffffff166370a08231306040518263ffffffff1660e01b815260040161101591906133e8565b602060405180830381865afa158015611032573d6000803e3d6000fd5b505050506040513d601f19601f82011682018060405250810190611056919061350c565b611060919061397f565b905060008385836110719190613568565b61107b91906135d9565b9050600081116110c0576040517f08c379a00000000000000000000000000000000000000000000000000000000081526004016110b790613bf1565b60405180910390fd5b600960009054906101000a900473ffffffffffffffffffffffffffffffffffffffff1673ffffffffffffffffffffffffffffffffffffffff1663a9059cbb33836040518363ffffffff1660e01b815260040161111d929190613828565b6020604051808303816000875af115801561113c573d6000803e3d6000fd5b505050506040513d601f19601f82011682018060405250810190611160919061387d565b61119f576040517f08c379a000000000000000000000000000000000000000000000000000000000815260040161119690613c5d565b60405180910390fd5b3373ffffffffffffffffffffffffffffffffffffffff167ffc30cddea38e2bf4d6ea7d3f9ed3b6ad7f176419f4963bd81318067a4aee73fe826040516111e59190613279565b60405180910390a250505050506111fa612e8f565b565b600a5481565b6000600160149054906101000a900460ff16905090565b600760009054906101000a900473ffffffffffffffffffffffffffffffffffffffff1681565b611247612ca5565b6112516000612e99565b565b600360009054906101000a900473ffffffffffffffffffffffffffffffffffffffff1681565b6000600160009054906101000a900473ffffffffffffffffffffffffffffffffffffffff16905090565b6112ab612d23565b6112b3612d72565b6000600960009054906101000a900473ffffffffffffffffffffffffffffffffffffffff1673ffffffffffffffffffffffffffffffffffffffff166370a08231306040518263ffffffff1660e01b815260040161131091906133e8565b602060405180830381865afa15801561132d573d6000803e3d6000fd5b505050506040513d601f19601f82011682018060405250810190611351919061350c565b9050600860009054906101000a900473ffffffffffffffffffffffffffffffffffffffff1673ffffffffffffffffffffffffffffffffffffffff16633d18b9126040518163ffffffff1660e01b8152600401600060405180830381600087803b1580156113bd57600080fd5b505af11580156113d1573d6000803e3d6000fd5b50505050600081600960009054906101000a900473ffffffffffffffffffffffffffffffffffffffff1673ffffffffffffffffffffffffffffffffffffffff166370a08231306040518263ffffffff1660e01b815260040161143391906133e8565b602060405180830381865afa158015611450573d6000803e3d6000fd5b505050506040513d601f19601f82011682018060405250810190611474919061350c565b61147e919061397f565b9050600081116114c3576040517f08c379a00000000000000000000000000000000000000000000000000000000081526004016114ba90613cc9565b60405180910390fd5b60006002826114d291906135d9565b9050600960009054906101000a900473ffffffffffffffffffffffffffffffffffffffff1673ffffffffffffffffffffffffffffffffffffffff1663095ea7b3600360009054906101000a900473ffffffffffffffffffffffffffffffffffffffff1660006040518363ffffffff1660e01b8152600401611554929190613d24565b6020604051808303816000875af1158015611573573d6000803e3d6000fd5b505050506040513d601f19601f82011682018060405250810190611597919061387d565b50600960009054906101000a900473ffffffffffffffffffffffffffffffffffffffff1673ffffffffffffffffffffffffffffffffffffffff1663095ea7b3600360009054906101000a900473ffffffffffffffffffffffffffffffffffffffff16846040518363ffffffff1660e01b8152600401611617929190613828565b6020604051808303816000875af1158015611636573d6000803e3d6000fd5b505050506040513d601f19601f8201168201806040525081019061165a919061387d565b506000600267ffffffffffffffff81111561167857611677613d4d565b5b6040519080825280602002602001820160405280156116a65781602001602082028036833780820191505090505b509050600960009054906101000a900473ffffffffffffffffffffffffffffffffffffffff16816000815181106116e0576116df613d7c565b5b602002602001019073ffffffffffffffffffffffffffffffffffffffff16908173ffffffffffffffffffffffffffffffffffffffff1681525050600560009054906101000a900473ffffffffffffffffffffffffffffffffffffffff168160018151811061175157611750613d7c565b5b602002602001019073ffffffffffffffffffffffffffffffffffffffff16908173ffffffffffffffffffffffffffffffffffffffff1681525050600360009054906101000a900473ffffffffffffffffffffffffffffffffffffffff1673ffffffffffffffffffffffffffffffffffffffff166338ed1739836000843061012c426117dc91906139b3565b6040518663ffffffff1660e01b81526004016117fc959493929190613e69565b6000604051808303816000875af115801561181b573d6000803e3d6000fd5b505050506040513d6000823e3d601f19601f820116820180604052508101906118449190613fed565b506000600267ffffffffffffffff81111561186257611861613d4d565b5b6040519080825280602002602001820160405280156118905781602001602082028036833780820191505090505b509050600960009054906101000a900473ffffffffffffffffffffffffffffffffffffffff16816000815181106118ca576118c9613d7c565b5b602002602001019073ffffffffffffffffffffffffffffffffffffffff16908173ffffffffffffffffffffffffffffffffffffffff1681525050600660009054906101000a900473ffffffffffffffffffffffffffffffffffffffff168160018151811061193b5761193a613d7c565b5b602002602001019073ffffffffffffffffffffffffffffffffffffffff16908173ffffffffffffffffffffffffffffffffffffffff1681525050600360009054906101000a900473ffffffffffffffffffffffffffffffffffffffff1673ffffffffffffffffffffffffffffffffffffffff166338ed1739846000843061012c426119c691906139b3565b6040518663ffffffff1660e01b81526004016119e6959493929190613e69565b6000604051808303816000875af1158015611a05573d6000803e3d6000fd5b505050506040513d6000823e3d601f19601f82011682018060405250810190611a2e9190613fed565b506000600560009054906101000a900473ffffffffffffffffffffffffffffffffffffffff1673ffffffffffffffffffffffffffffffffffffffff166370a08231306040518263ffffffff1660e01b8152600401611a8c91906133e8565b602060405180830381865afa158015611aa9573d6000803e3d6000fd5b505050506040513d601f19601f82011682018060405250810190611acd919061350c565b90506000600660009054906101000a900473ffffffffffffffffffffffffffffffffffffffff1673ffffffffffffffffffffffffffffffffffffffff166370a08231306040518263ffffffff1660e01b8152600401611b2c91906133e8565b602060405180830381865afa158015611b49573d6000803e3d6000fd5b505050506040513d601f19601f82011682018060405250810190611b6d919061350c565b9050600560009054906101000a900473ffffffffffffffffffffffffffffffffffffffff1673ffffffffffffffffffffffffffffffffffffffff1663095ea7b3600360009054906101000a900473ffffffffffffffffffffffffffffffffffffffff1660006040518363ffffffff1660e01b8152600401611bef929190613d24565b6020604051808303816000875af1158015611c0e573d6000803e3d6000fd5b505050506040513d601f19601f82011682018060405250810190611c32919061387d565b50600660009054906101000a900473ffffffffffffffffffffffffffffffffffffffff1673ffffffffffffffffffffffffffffffffffffffff1663095ea7b3600360009054906101000a900473ffffffffffffffffffffffffffffffffffffffff1660006040518363ffffffff1660e01b8152600401611cb3929190613d24565b6020604051808303816000875af1158015611cd2573d6000803e3d6000fd5b505050506040513d601f19601f82011682018060405250810190611cf6919061387d565b50600560009054906101000a900473ffffffffffffffffffffffffffffffffffffffff1673ffffffffffffffffffffffffffffffffffffffff1663095ea7b3600360009054906101000a900473ffffffffffffffffffffffffffffffffffffffff16846040518363ffffffff1660e01b8152600401611d76929190613828565b6020604051808303816000875af1158015611d95573d6000803e3d6000fd5b505050506040513d601f19601f82011682018060405250810190611db9919061387d565b50600660009054906101000a900473ffffffffffffffffffffffffffffffffffffffff1673ffffffffffffffffffffffffffffffffffffffff1663095ea7b3600360009054906101000a900473ffffffffffffffffffffffffffffffffffffffff16836040518363ffffffff1660e01b8152600401611e39929190613828565b6020604051808303816000875af1158015611e58573d6000803e3d6000fd5b505050506040513d601f19601f82011682018060405250810190611e7c919061387d565b506000600360009054906101000a900473ffffffffffffffffffffffffffffffffffffffff1673ffffffffffffffffffffffffffffffffffffffff1663e8e33700600560009054906101000a900473ffffffffffffffffffffffffffffffffffffffff16600660009054906101000a900473ffffffffffffffffffffffffffffffffffffffff1686866000803061012c42611f1791906139b3565b6040518963ffffffff1660e01b8152600401611f3a989796959493929190614036565b6060604051808303816000875af1158015611f59573d6000803e3d6000fd5b505050506040513d601f19601f82011682018060405250810190611f7d91906140b4565b92505050611f8a81612f5f565b7fc6e946d631e1973e5a55b592a69bd96e28989442892e19be8ccd42e9ecc34e648782604051611fbb929190614107565b60405180910390a15050505050505050611fd3612e8f565b565b600460009054906101000a900473ffffffffffffffffffffffffffffffffffffffff1681565b600660009054906101000a900473ffffffffffffffffffffffffffffffffffffffff1681565b612029612ca5565b6000600760009054906101000a900473ffffffffffffffffffffffffffffffffffffffff1673ffffffffffffffffffffffffffffffffffffffff166370a08231306040518263ffffffff1660e01b815260040161208691906133e8565b602060405180830381865afa1580156120a3573d6000803e3d6000fd5b505050506040513d601f19601f820116820180604052508101906120c7919061350c565b90506000811115612184576120db81612dbc565b600760009054906101000a900473ffffffffffffffffffffffffffffffffffffffff1673ffffffffffffffffffffffffffffffffffffffff1663a9059cbb612121611279565b836040518363ffffffff1660e01b815260040161213f929190613828565b6020604051808303816000875af115801561215e573d6000803e3d6000fd5b505050506040513d601f19601f82011682018060405250810190612182919061387d565b505b6000600560009054906101000a900473ffffffffffffffffffffffffffffffffffffffff1673ffffffffffffffffffffffffffffffffffffffff166370a08231306040518263ffffffff1660e01b81526004016121e191906133e8565b602060405180830381865afa1580156121fe573d6000803e3d6000fd5b505050506040513d601f19601f82011682018060405250810190612222919061350c565b905060008111156122d657600560009054906101000a900473ffffffffffffffffffffffffffffffffffffffff1673ffffffffffffffffffffffffffffffffffffffff1663a9059cbb612273611279565b836040518363ffffffff1660e01b8152600401612291929190613828565b6020604051808303816000875af11580156122b0573d6000803e3d6000fd5b505050506040513d601f19601f820116820180604052508101906122d4919061387d565b505b6000600660009054906101000a900473ffffffffffffffffffffffffffffffffffffffff1673ffffffffffffffffffffffffffffffffffffffff166370a08231306040518263ffffffff1660e01b815260040161233391906133e8565b602060405180830381865afa158015612350573d6000803e3d6000fd5b505050506040513d601f19601f82011682018060405250810190612374919061350c565b9050600081111561242857600660009054906101000a900473ffffffffffffffffffffffffffffffffffffffff1673ffffffffffffffffffffffffffffffffffffffff1663a9059cbb6123c5611279565b836040518363ffffffff1660e01b81526004016123e3929190613828565b6020604051808303816000875af1158015612402573d6000803e3d6000fd5b505050506040513d601f19601f82011682018060405250810190612426919061387d565b505b6000600960009054906101000a900473ffffffffffffffffffffffffffffffffffffffff1673ffffffffffffffffffffffffffffffffffffffff166370a08231306040518263ffffffff1660e01b815260040161248591906133e8565b602060405180830381865afa1580156124a2573d6000803e3d6000fd5b505050506040513d601f19601f820116820180604052508101906124c6919061350c565b9050600081111561257a57600960009054906101000a900473ffffffffffffffffffffffffffffffffffffffff1673ffffffffffffffffffffffffffffffffffffffff1663a9059cbb612517611279565b836040518363ffffffff1660e01b8152600401612535929190613828565b6020604051808303816000875af1158015612554573d6000803e3d6000fd5b505050506040513d601f19601f82011682018060405250810190612578919061387d565b505b50505050565b612588612d23565b612590612d72565b6000821180156125a05750600081115b6125df576040517f08c379a00000000000000000000000000000000000000000000000000000000081526004016125d6906141a2565b60405180910390fd5b600560009054906101000a900473ffffffffffffffffffffffffffffffffffffffff1673ffffffffffffffffffffffffffffffffffffffff166323b872dd3330856040518463ffffffff1660e01b815260040161263e939291906141c2565b6020604051808303816000875af115801561265d573d6000803e3d6000fd5b505050506040513d601f19601f82011682018060405250810190612681919061387d565b50600660009054906101000a900473ffffffffffffffffffffffffffffffffffffffff1673ffffffffffffffffffffffffffffffffffffffff166323b872dd3330846040518463ffffffff1660e01b81526004016126e1939291906141c2565b6020604051808303816000875af1158015612700573d6000803e3d6000fd5b505050506040513d601f19601f82011682018060405250810190612724919061387d565b50600560009054906101000a900473ffffffffffffffffffffffffffffffffffffffff1673ffffffffffffffffffffffffffffffffffffffff1663095ea7b3600360009054906101000a900473ffffffffffffffffffffffffffffffffffffffff16846040518363ffffffff1660e01b81526004016127a4929190613828565b6020604051808303816000875af11580156127c3573d6000803e3d6000fd5b505050506040513d601f19601f820116820180604052508101906127e7919061387d565b50600660009054906101000a900473ffffffffffffffffffffffffffffffffffffffff1673ffffffffffffffffffffffffffffffffffffffff1663095ea7b3600360009054906101000a900473ffffffffffffffffffffffffffffffffffffffff16836040518363ffffffff1660e01b8152600401612867929190613828565b6020604051808303816000875af1158015612886573d6000803e3d6000fd5b505050506040513d601f19601f820116820180604052508101906128aa919061387d565b506000612710600a546127106128c0919061397f565b846128cb9190613568565b6128d591906135d9565b90506000612710600a546127106128ec919061397f565b846128f79190613568565b61290191906135d9565b90506000806000600360009054906101000a900473ffffffffffffffffffffffffffffffffffffffff1673ffffffffffffffffffffffffffffffffffffffff1663e8e33700600560009054906101000a900473ffffffffffffffffffffffffffffffffffffffff16600660009054906101000a900473ffffffffffffffffffffffffffffffffffffffff168a8a8a8a3061012c4261299f91906139b3565b6040518963ffffffff1660e01b81526004016129c29897969594939291906141f9565b6060604051808303816000875af11580156129e1573d6000803e3d6000fd5b505050506040513d601f19601f82011682018060405250810190612a0591906140b4565b92509250925060008111612a4e576040517f08c379a0000000000000000000000000000000000000000000000000000000008152600401612a45906142c3565b60405180910390fd5b848310158015612a5e5750838210155b612a9d576040517f08c379a0000000000000000000000000000000000000000000000000000000008152600401612a9490613ae2565b60405180910390fd5b612aa681612f5f565b600260009054906101000a900473ffffffffffffffffffffffffffffffffffffffff1673ffffffffffffffffffffffffffffffffffffffff16636e553f6582336040518363ffffffff1660e01b8152600401612b039291906142e3565b6020604051808303816000875af1158015612b22573d6000803e3d6000fd5b505050506040513d601f19601f82011682018060405250810190612b46919061350c565b503373ffffffffffffffffffffffffffffffffffffffff167f91ede45f04a37a7c170f5c1207df3b6bc748dc1e04ad5e917a241d0f52feada3848484604051612b9193929190613b02565b60405180910390a25050505050612ba6612e8f565b5050565b600860009054906101000a900473ffffffffffffffffffffffffffffffffffffffff1681565b612bd8612ca5565b600073ffffffffffffffffffffffffffffffffffffffff168173ffffffffffffffffffffffffffffffffffffffff1603612c47576040517f08c379a0000000000000000000000000000000000000000000000000000000008152600401612c3e9061437e565b60405180910390fd5b612c5081612e99565b50565b600960009054906101000a900473ffffffffffffffffffffffffffffffffffffffff1681565b600260009054906101000a900473ffffffffffffffffffffffffffffffffffffffff1681565b61012c81565b612cad6131b9565b73ffffffffffffffffffffffffffffffffffffffff16612ccb611279565b73ffffffffffffffffffffffffffffffffffffffff1614612d21576040517f08c379a0000000000000000000000000000000000000000000000000000000008152600401612d18906143ea565b60405180910390fd5b565b600260005403612d68576040517f08c379a0000000000000000000000000000000000000000000000000000000008152600401612d5f90614456565b60405180910390fd5b6002600081905550565b612d7a611202565b15612dba576040517f08c379a0000000000000000000000000000000000000000000000000000000008152600401612db1906144c2565b60405180910390fd5b565b60008111612dff576040517f08c379a0000000000000000000000000000000000000000000000000000000008152600401612df69061452e565b60405180910390fd5b600860009054906101000a900473ffffffffffffffffffffffffffffffffffffffff1673ffffffffffffffffffffffffffffffffffffffff16632e1a7d4d826040518263ffffffff1660e01b8152600401612e5a9190613279565b600060405180830381600087803b158015612e7457600080fd5b505af1158015612e88573d6000803e3d6000fd5b5050505050565b6001600081905550565b6000600160009054906101000a900473ffffffffffffffffffffffffffffffffffffffff16905081600160006101000a81548173ffffffffffffffffffffffffffffffffffffffff021916908373ffffffffffffffffffffffffffffffffffffffff1602179055508173ffffffffffffffffffffffffffffffffffffffff168173ffffffffffffffffffffffffffffffffffffffff167f8be0079c531659141344cd1fd0a4f28419497f9722a3daafe3b4186f6b6457e060405160405180910390a35050565b60008111612fa2576040517f08c379a0000000000000000000000000000000000000000000000000000000008152600401612f999061459a565b60405180910390fd5b600760009054906101000a900473ffffffffffffffffffffffffffffffffffffffff1673ffffffffffffffffffffffffffffffffffffffff1663095ea7b3600860009054906101000a900473ffffffffffffffffffffffffffffffffffffffff1660006040518363ffffffff1660e01b8152600401613022929190613d24565b6020604051808303816000875af1158015613041573d6000803e3d6000fd5b505050506040513d601f19601f82011682018060405250810190613065919061387d565b50600760009054906101000a900473ffffffffffffffffffffffffffffffffffffffff1673ffffffffffffffffffffffffffffffffffffffff1663095ea7b3600860009054906101000a900473ffffffffffffffffffffffffffffffffffffffff16836040518363ffffffff1660e01b81526004016130e5929190613828565b6020604051808303816000875af1158015613104573d6000803e3d6000fd5b505050506040513d601f19601f82011682018060405250810190613128919061387d565b50600860009054906101000a900473ffffffffffffffffffffffffffffffffffffffff1673ffffffffffffffffffffffffffffffffffffffff1663a694fc3a826040518263ffffffff1660e01b81526004016131849190613279565b600060405180830381600087803b15801561319e57600080fd5b505af11580156131b2573d6000803e3d6000fd5b5050505050565b600033905090565b6000604051905090565b600080fd5b600080fd5b600073ffffffffffffffffffffffffffffffffffffffff82169050919050565b6000613200826131d5565b9050919050565b613210816131f5565b811461321b57600080fd5b50565b60008135905061322d81613207565b92915050565b600060208284031215613249576132486131cb565b5b60006132578482850161321e565b91505092915050565b6000819050919050565b61327381613260565b82525050565b600060208201905061328e600083018461326a565b92915050565b6000819050919050565b60006132b96132b46132af846131d5565b613294565b6131d5565b9050919050565b60006132cb8261329e565b9050919050565b60006132dd826132c0565b9050919050565b6132ed816132d2565b82525050565b600060208201905061330860008301846132e4565b92915050565b61331781613260565b811461332257600080fd5b50565b6000813590506133348161330e565b92915050565b6000602082840312156133505761334f6131cb565b5b600061335e84828501613325565b91505092915050565b60008115159050919050565b61337c81613367565b82525050565b60006020820190506133976000830184613373565b92915050565b60006133a8826132c0565b9050919050565b6133b88161339d565b82525050565b60006020820190506133d360008301846133af565b92915050565b6133e2816131f5565b82525050565b60006020820190506133fd60008301846133d9565b92915050565b600061340e826132c0565b9050919050565b61341e81613403565b82525050565b60006020820190506134396000830184613415565b92915050565b60008060408385031215613456576134556131cb565b5b600061346485828601613325565b925050602061347585828601613325565b9150509250929050565b600061348a826132c0565b9050919050565b61349a8161347f565b82525050565b60006020820190506134b56000830184613491565b92915050565b60006134c6826132c0565b9050919050565b6134d6816134bb565b82525050565b60006020820190506134f160008301846134cd565b92915050565b6000815190506135068161330e565b92915050565b600060208284031215613522576135216131cb565b5b6000613530848285016134f7565b91505092915050565b7f4e487b7100000000000000000000000000000000000000000000000000000000600052601160045260246000fd5b600061357382613260565b915061357e83613260565b925082820261358c81613260565b915082820484148315176135a3576135a2613539565b5b5092915050565b7f4e487b7100000000000000000000000000000000000000000000000000000000600052601260045260246000fd5b60006135e482613260565b91506135ef83613260565b9250826135ff576135fe6135aa565b5b828204905092915050565b600082825260208201905092915050565b7f536c69707061676520746f6c6572616e636520746f6f20686967680000000000600082015250565b6000613651601b8361360a565b915061365c8261361b565b602082019050919050565b6000602082019050818103600083015261368081613644565b9050919050565b7f536861726573206d7573742062652067726561746572207468616e2030000000600082015250565b60006136bd601d8361360a565b91506136c882613687565b602082019050919050565b600060208201905081810360008301526136ec816136b0565b9050919050565b6000606082019050613708600083018661326a565b61371560208301856133d9565b61372260408301846133d9565b949350505050565b7f4e6f204c5020746f6b656e7320746f2077697468647261770000000000000000600082015250565b600061376060188361360a565b915061376b8261372a565b602082019050919050565b6000602082019050818103600083015261378f81613753565b9050919050565b7f496e73756666696369656e74204c5020746f6b656e7320696e20636f6e74726160008201527f6374000000000000000000000000000000000000000000000000000000000000602082015250565b60006137f260228361360a565b91506137fd82613796565b604082019050919050565b60006020820190508181036000830152613821816137e5565b9050919050565b600060408201905061383d60008301856133d9565b61384a602083018461326a565b9392505050565b61385a81613367565b811461386557600080fd5b50565b60008151905061387781613851565b92915050565b600060208284031215613893576138926131cb565b5b60006138a184828501613868565b91505092915050565b60006dffffffffffffffffffffffffffff82169050919050565b6138cd816138aa565b81146138d857600080fd5b50565b6000815190506138ea816138c4565b92915050565b600063ffffffff82169050919050565b613909816138f0565b811461391457600080fd5b50565b60008151905061392681613900565b92915050565b600080600060608486031215613945576139446131cb565b5b6000613953868287016138db565b9350506020613964868287016138db565b925050604061397586828701613917565b9150509250925092565b600061398a82613260565b915061399583613260565b92508282039050818111156139ad576139ac613539565b5b92915050565b60006139be82613260565b91506139c983613260565b92508282019050808211156139e1576139e0613539565b5b92915050565b600060e0820190506139fc600083018a6133d9565b613a0960208301896133d9565b613a16604083018861326a565b613a23606083018761326a565b613a30608083018661326a565b613a3d60a08301856133d9565b613a4a60c083018461326a565b98975050505050505050565b60008060408385031215613a6d57613a6c6131cb565b5b6000613a7b858286016134f7565b9250506020613a8c858286016134f7565b9150509250929050565b7f536c69707061676520746f6f2068696768000000000000000000000000000000600082015250565b6000613acc60118361360a565b9150613ad782613a96565b602082019050919050565b60006020820190508181036000830152613afb81613abf565b9050919050565b6000606082019050613b17600083018661326a565b613b24602083018561326a565b613b31604083018461326a565b949350505050565b7f4e6f207368617265730000000000000000000000000000000000000000000000600082015250565b6000613b6f60098361360a565b9150613b7a82613b39565b602082019050919050565b60006020820190508181036000830152613b9e81613b62565b9050919050565b7f4e6f207265776172647320746f20636c61696d00000000000000000000000000600082015250565b6000613bdb60138361360a565b9150613be682613ba5565b602082019050919050565b60006020820190508181036000830152613c0a81613bce565b9050919050565b7f526577617264207472616e73666572206661696c656400000000000000000000600082015250565b6000613c4760168361360a565b9150613c5282613c11565b602082019050919050565b60006020820190508181036000830152613c7681613c3a565b9050919050565b7f4e6f207265776172647320746f207265696e7665737400000000000000000000600082015250565b6000613cb360168361360a565b9150613cbe82613c7d565b602082019050919050565b60006020820190508181036000830152613ce281613ca6565b9050919050565b6000819050919050565b6000613d0e613d09613d0484613ce9565b613294565b613260565b9050919050565b613d1e81613cf3565b82525050565b6000604082019050613d3960008301856133d9565b613d466020830184613d15565b9392505050565b7f4e487b7100000000000000000000000000000000000000000000000000000000600052604160045260246000fd5b7f4e487b7100000000000000000000000000000000000000000000000000000000600052603260045260246000fd5b600081519050919050565b600082825260208201905092915050565b6000819050602082019050919050565b613de0816131f5565b82525050565b6000613df28383613dd7565b60208301905092915050565b6000602082019050919050565b6000613e1682613dab565b613e208185613db6565b9350613e2b83613dc7565b8060005b83811015613e5c578151613e438882613de6565b9750613e4e83613dfe565b925050600181019050613e2f565b5085935050505092915050565b600060a082019050613e7e600083018861326a565b613e8b6020830187613d15565b8181036040830152613e9d8186613e0b565b9050613eac60608301856133d9565b613eb9608083018461326a565b9695505050505050565b600080fd5b6000601f19601f8301169050919050565b613ee282613ec8565b810181811067ffffffffffffffff82111715613f0157613f00613d4d565b5b80604052505050565b6000613f146131c1565b9050613f208282613ed9565b919050565b600067ffffffffffffffff821115613f4057613f3f613d4d565b5b602082029050602081019050919050565b600080fd5b6000613f69613f6484613f25565b613f0a565b90508083825260208201905060208402830185811115613f8c57613f8b613f51565b5b835b81811015613fb55780613fa188826134f7565b845260208401935050602081019050613f8e565b5050509392505050565b600082601f830112613fd457613fd3613ec3565b5b8151613fe4848260208601613f56565b91505092915050565b600060208284031215614003576140026131cb565b5b600082015167ffffffffffffffff811115614021576140206131d0565b5b61402d84828501613fbf565b91505092915050565b60006101008201905061404c600083018b6133d9565b614059602083018a6133d9565b614066604083018961326a565b614073606083018861326a565b6140806080830187613d15565b61408d60a0830186613d15565b61409a60c08301856133d9565b6140a760e083018461326a565b9998505050505050505050565b6000806000606084860312156140cd576140cc6131cb565b5b60006140db868287016134f7565b93505060206140ec868287016134f7565b92505060406140fd868287016134f7565b9150509250925092565b600060408201905061411c600083018561326a565b614129602083018461326a565b9392505050565b7f4465706f73697420616d6f756e7473206d75737420626520677265617465722060008201527f7468616e20300000000000000000000000000000000000000000000000000000602082015250565b600061418c60268361360a565b915061419782614130565b604082019050919050565b600060208201905081810360008301526141bb8161417f565b9050919050565b60006060820190506141d760008301866133d9565b6141e460208301856133d9565b6141f1604083018461326a565b949350505050565b60006101008201905061420f600083018b6133d9565b61421c602083018a6133d9565b614229604083018961326a565b614236606083018861326a565b614243608083018761326a565b61425060a083018661326a565b61425d60c08301856133d9565b61426a60e083018461326a565b9998505050505050505050565b7f4e6f206c69717569646974792072656365697665640000000000000000000000600082015250565b60006142ad60158361360a565b91506142b882614277565b602082019050919050565b600060208201905081810360008301526142dc816142a0565b9050919050565b60006040820190506142f8600083018561326a565b61430560208301846133d9565b9392505050565b7f4f776e61626c653a206e6577206f776e657220697320746865207a65726f206160008201527f6464726573730000000000000000000000000000000000000000000000000000602082015250565b600061436860268361360a565b91506143738261430c565b604082019050919050565b600060208201905081810360008301526143978161435b565b9050919050565b7f4f776e61626c653a2063616c6c6572206973206e6f7420746865206f776e6572600082015250565b60006143d460208361360a565b91506143df8261439e565b602082019050919050565b60006020820190508181036000830152614403816143c7565b9050919050565b7f5265656e7472616e637947756172643a207265656e7472616e742063616c6c00600082015250565b6000614440601f8361360a565b915061444b8261440a565b602082019050919050565b6000602082019050818103600083015261446f81614433565b9050919050565b7f5061757361626c653a2070617573656400000000000000000000000000000000600082015250565b60006144ac60108361360a565b91506144b782614476565b602082019050919050565b600060208201905081810360008301526144db8161449f565b9050919050565b7f43616e6e6f7420756e7374616b652030204c5020746f6b656e73000000000000600082015250565b6000614518601a8361360a565b9150614523826144e2565b602082019050919050565b600060208201905081810360008301526145478161450b565b9050919050565b7f43616e6e6f74207374616b652030204c5020746f6b656e730000000000000000600082015250565b600061458460188361360a565b915061458f8261454e565b602082019050919050565b600060208201905081810360008301526145b381614577565b905091905056fea264697066735822122044a90b31f546438ba40ead4ffc56c5365500832424f8f8fdf6ec66a63368d34d64736f6c63430008180033",
  "linkReferences": {},
  "deployedLinkReferences": {}
}