{
  "_format": "hh-sol-artifact-1",
  "contractName": "ERC4626Vault",
  "sourceName": "contracts/ERC4626Vault.sol",
  "abi": [
    {
      "inputs": [
        {
          "internalType": "contract IERC20",
          "name": "asset_",
          "type": "address"
        },
        {
          "internalType": "string",
          "name": "name_",
          "type": "string"
        },
        {
          "internalType": "string",
          "name": "symbol_",
          "type": "string"
        }
      ],
      "stateMutability": "nonpayable",
      "type": "constructor"
    },
    {
      "anonymous": false,
      "inputs": [
        {
          "indexed": true,
          "internalType": "address",
          "name": "owner",
          "type": "address"
        },
        {
          "indexed": true,
          "internalType": "address",
          "name": "spender",
          "type": "address"
        },
        {
          "indexed": false,
          "internalType": "uint256",
          "name": "value",
          "type": "uint256"
        }
      ],
      "name": "Approval",
      "type": "event"
    },
    {
      "anonymous": false,
      "inputs": [
        {
          "indexed": true,
          "internalType": "address",
          "name": "sender",
          "type": "address"
        },
        {
          "indexed": true,
          "internalType": "address",
          "name": "owner",
          "type": "address"
        },
        {
          "indexed": false,
          "internalType": "uint256",
          "name": "assets",
          "type": "uint256"
        },
        {
          "indexed": false,
          "internalType": "uint256",
          "name": "shares",
          "type": "uint256"
        }
      ],
      "name": "Deposit",
      "type": "event"
    },
    {
      "anonymous": false,
      "inputs": [
        {
          "indexed": false,
          "internalType": "uint256",
          "name": "newLimit",
          "type": "uint256"
        }
      ],
      "name": "DepositLimitUpdated",
      "type": "event"
    },
    {
      "anonymous": false,
      "inputs": [
        {
          "indexed": false,
          "internalType": "uint256",
          "name": "newLimit",
          "type": "uint256"
        }
      ],
      "name": "MintLimitUpdated",
      "type": "event"
    },
    {
      "anonymous": false,
      "inputs": [
        {
          "indexed": true,
          "internalType": "address",
          "name": "previousOwner",
          "type": "address"
        },
        {
          "indexed": true,
          "internalType": "address",
          "name": "newOwner",
          "type": "address"
        }
      ],
      "name": "OwnershipTransferred",
      "type": "event"
    },
    {
      "anonymous": false,
      "inputs": [
        {
          "indexed": false,
          "internalType": "address",
          "name": "account",
          "type": "address"
        }
      ],
      "name": "Paused",
      "type": "event"
    },
    {
      "anonymous": false,
      "inputs": [
        {
          "indexed": false,
          "internalType": "uint256",
          "name": "newTotalAssets",
          "type": "uint256"
        }
      ],
      "name": "TotalAssetsUpdated",
      "type": "event"
    },
    {
      "anonymous": false,
      "inputs": [
        {
          "indexed": true,
          "internalType": "address",
          "name": "from",
          "type": "address"
        },
        {
          "indexed": true,
          "internalType": "address",
          "name": "to",
          "type": "address"
        },
        {
          "indexed": false,
          "internalType": "uint256",
          "name": "value",
          "type": "uint256"
        }
      ],
      "name": "Transfer",
      "type": "event"
    },
    {
      "anonymous": false,
      "inputs": [
        {
          "indexed": false,
          "internalType": "address",
          "name": "account",
          "type": "address"
        }
      ],
      "name": "Unpaused",
      "type": "event"
    },
    {
      "anonymous": false,
      "inputs": [
        {
          "indexed": true,
          "internalType": "address",
          "name": "sender",
          "type": "address"
        },
        {
          "indexed": true,
          "internalType": "address",
          "name": "receiver",
          "type": "address"
        },
        {
          "indexed": true,
          "internalType": "address",
          "name": "owner",
          "type": "address"
        },
        {
          "indexed": false,
          "internalType": "uint256",
          "name": "assets",
          "type": "uint256"
        },
        {
          "indexed": false,
          "internalType": "uint256",
          "name": "shares",
          "type": "uint256"
        }
      ],
      "name": "Withdraw",
      "type": "event"
    },
    {
      "inputs": [],
      "name": "MAX_DEPOSIT_LIMIT",
      "outputs": [
        {
          "internalType": "uint256",
          "name": "",
          "type": "uint256"
        }
      ],
      "stateMutability": "view",
      "type": "function"
    },
    {
      "inputs": [],
      "name": "MAX_MINT_LIMIT",
      "outputs": [
        {
          "internalType": "uint256",
          "name": "",
          "type": "uint256"
        }
      ],
      "stateMutability": "view",
      "type": "function"
    },
    {
      "inputs": [
        {
          "internalType": "address",
          "name": "owner",
          "type": "address"
        },
        {
          "internalType": "address",
          "name": "spender",
          "type": "address"
        }
      ],
      "name": "allowance",
      "outputs": [
        {
          "internalType": "uint256",
          "name": "",
          "type": "uint256"
        }
      ],
      "stateMutability": "view",
      "type": "function"
    },
    {
      "inputs": [
        {
          "internalType": "address",
          "name": "spender",
          "type": "address"
        },
        {
          "internalType": "uint256",
          "name": "amount",
          "type": "uint256"
        }
      ],
      "name": "approve",
      "outputs": [
        {
          "internalType": "bool",
          "name": "",
          "type": "bool"
        }
      ],
      "stateMutability": "nonpayable",
      "type": "function"
    },
    {
      "inputs": [],
      "name": "asset",
      "outputs": [
        {
          "internalType": "address",
          "name": "",
          "type": "address"
        }
      ],
      "stateMutability": "view",
      "type": "function"
    },
    {
      "inputs": [
        {
          "internalType": "address",
          "name": "account",
          "type": "address"
        }
      ],
      "name": "balanceOf",
      "outputs": [
        {
          "internalType": "uint256",
          "name": "",
          "type": "uint256"
        }
      ],
      "stateMutability": "view",
      "type": "function"
    },
    {
      "inputs": [
        {
          "internalType": "uint256",
          "name": "shares",
          "type": "uint256"
        }
      ],
      "name": "convertToAssets",
      "outputs": [
        {
          "internalType": "uint256",
          "name": "",
          "type": "uint256"
        }
      ],
      "stateMutability": "view",
      "type": "function"
    },
    {
      "inputs": [
        {
          "internalType": "uint256",
          "name": "assets",
          "type": "uint256"
        }
      ],
      "name": "convertToShares",
      "outputs": [
        {
          "internalType": "uint256",
          "name": "",
          "type": "uint256"
        }
      ],
      "stateMutability": "view",
      "type": "function"
    },
    {
      "inputs": [],
      "name": "decimals",
      "outputs": [
        {
          "internalType": "uint8",
          "name": "",
          "type": "uint8"
        }
      ],
      "stateMutability": "view",
      "type": "function"
    },
    {
      "inputs": [
        {
          "internalType": "address",
          "name": "spender",
          "type": "address"
        },
        {
          "internalType": "uint256",
          "name": "subtractedValue",
          "type": "uint256"
        }
      ],
      "name": "decreaseAllowance",
      "outputs": [
        {
          "internalType": "bool",
          "name": "",
          "type": "bool"
        }
      ],
      "stateMutability": "nonpayable",
      "type": "function"
    },
    {
      "inputs": [
        {
          "internalType": "uint256",
          "name": "assets",
          "type": "uint256"
        },
        {
          "internalType": "address",
          "name": "receiver",
          "type": "address"
        }
      ],
      "name": "deposit",
      "outputs": [
        {
          "internalType": "uint256",
          "name": "",
          "type": "uint256"
        }
      ],
      "stateMutability": "nonpayable",
      "type": "function"
    },
    {
      "inputs": [],
      "name": "emergencyWithdraw",
      "outputs": [],
      "stateMutability": "nonpayable",
      "type": "function"
    },
    {
      "inputs": [
        {
          "internalType": "address",
          "name": "spender",
          "type": "address"
        },
        {
          "internalType": "uint256",
          "name": "addedValue",
          "type": "uint256"
        }
      ],
      "name": "increaseAllowance",
      "outputs": [
        {
          "internalType": "bool",
          "name": "",
          "type": "bool"
        }
      ],
      "stateMutability": "nonpayable",
      "type": "function"
    },
    {
      "inputs": [
        {
          "internalType": "address",
          "name": "",
          "type": "address"
        }
      ],
      "name": "maxDeposit",
      "outputs": [
        {
          "internalType": "uint256",
          "name": "",
          "type": "uint256"
        }
      ],
      "stateMutability": "view",
      "type": "function"
    },
    {
      "inputs": [
        {
          "internalType": "address",
          "name": "",
          "type": "address"
        }
      ],
      "name": "maxMint",
      "outputs": [
        {
          "internalType": "uint256",
          "name": "",
          "type": "uint256"
        }
      ],
      "stateMutability": "view",
      "type": "function"
    },
    {
      "inputs": [
        {
          "internalType": "address",
          "name": "owner",
          "type": "address"
        }
      ],
      "name": "maxRedeem",
      "outputs": [
        {
          "internalType": "uint256",
          "name": "",
          "type": "uint256"
        }
      ],
      "stateMutability": "view",
      "type": "function"
    },
    {
      "inputs": [
        {
          "internalType": "address",
          "name": "owner",
          "type": "address"
        }
      ],
      "name": "maxWithdraw",
      "outputs": [
        {
          "internalType": "uint256",
          "name": "",
          "type": "uint256"
        }
      ],
      "stateMutability": "view",
      "type": "function"
    },
    {
      "inputs": [
        {
          "internalType": "uint256",
          "name": "shares",
          "type": "uint256"
        },
        {
          "internalType": "address",
          "name": "receiver",
          "type": "address"
        }
      ],
      "name": "mint",
      "outputs": [
        {
          "internalType": "uint256",
          "name": "",
          "type": "uint256"
        }
      ],
      "stateMutability": "nonpayable",
      "type": "function"
    },
    {
      "inputs": [],
      "name": "name",
      "outputs": [
        {
          "internalType": "string",
          "name": "",
          "type": "string"
        }
      ],
      "stateMutability": "view",
      "type": "function"
    },
    {
      "inputs": [],
      "name": "owner",
      "outputs": [
        {
          "internalType": "address",
          "name": "",
          "type": "address"
        }
      ],
      "stateMutability": "view",
      "type": "function"
    },
    {
      "inputs": [],
      "name": "pause",
      "outputs": [],
      "stateMutability": "nonpayable",
      "type": "function"
    },
    {
      "inputs": [],
      "name": "paused",
      "outputs": [
        {
          "internalType": "bool",
          "name": "",
          "type": "bool"
        }
      ],
      "stateMutability": "view",
      "type": "function"
    },
    {
      "inputs": [
        {
          "internalType": "uint256",
          "name": "assets",
          "type": "uint256"
        }
      ],
      "name": "previewDeposit",
      "outputs": [
        {
          "internalType": "uint256",
          "name": "",
          "type": "uint256"
        }
      ],
      "stateMutability": "view",
      "type": "function"
    },
    {
      "inputs": [
        {
          "internalType": "uint256",
          "name": "shares",
          "type": "uint256"
        }
      ],
      "name": "previewMint",
      "outputs": [
        {
          "internalType": "uint256",
          "name": "",
          "type": "uint256"
        }
      ],
      "stateMutability": "view",
      "type": "function"
    },
    {
      "inputs": [
        {
          "internalType": "uint256",
          "name": "shares",
          "type": "uint256"
        }
      ],
      "name": "previewRedeem",
      "outputs": [
        {
          "internalType": "uint256",
          "name": "",
          "type": "uint256"
        }
      ],
      "stateMutability": "view",
      "type": "function"
    },
    {
      "inputs": [
        {
          "internalType": "uint256",
          "name": "assets",
          "type": "uint256"
        }
      ],
      "name": "previewWithdraw",
      "outputs": [
        {
          "internalType": "uint256",
          "name": "",
          "type": "uint256"
        }
      ],
      "stateMutability": "view",
      "type": "function"
    },
    {
      "inputs": [
        {
          "internalType": "uint256",
          "name": "shares",
          "type": "uint256"
        },
        {
          "internalType": "address",
          "name": "receiver",
          "type": "address"
        },
        {
          "internalType": "address",
          "name": "owner",
          "type": "address"
        }
      ],
      "name": "redeem",
      "outputs": [
        {
          "internalType": "uint256",
          "name": "",
          "type": "uint256"
        }
      ],
      "stateMutability": "nonpayable",
      "type": "function"
    },
    {
      "inputs": [],
      "name": "renounceOwnership",
      "outputs": [],
      "stateMutability": "nonpayable",
      "type": "function"
    },
    {
      "inputs": [
        {
          "internalType": "uint256",
          "name": "newLimit",
          "type": "uint256"
        }
      ],
      "name": "setDepositLimit",
      "outputs": [],
      "stateMutability": "nonpayable",
      "type": "function"
    },
    {
      "inputs": [
        {
          "internalType": "uint256",
          "name": "newLimit",
          "type": "uint256"
        }
      ],
      "name": "setMintLimit",
      "outputs": [],
      "stateMutability": "nonpayable",
      "type": "function"
    },
    {
      "inputs": [],
      "name": "symbol",
      "outputs": [
        {
          "internalType": "string",
          "name": "",
          "type": "string"
        }
      ],
      "stateMutability": "view",
      "type": "function"
    },
    {
      "inputs": [],
      "name": "totalAssets",
      "outputs": [
        {
          "internalType": "uint256",
          "name": "",
          "type": "uint256"
        }
      ],
      "stateMutability": "view",
      "type": "function"
    },
    {
      "inputs": [],
      "name": "totalSupply",
      "outputs": [
        {
          "internalType": "uint256",
          "name": "",
          "type": "uint256"
        }
      ],
      "stateMutability": "view",
      "type": "function"
    },
    {
      "inputs": [
        {
          "internalType": "address",
          "name": "to",
          "type": "address"
        },
        {
          "internalType": "uint256",
          "name": "amount",
          "type": "uint256"
        }
      ],
      "name": "transfer",
      "outputs": [
        {
          "internalType": "bool",
          "name": "",
          "type": "bool"
        }
      ],
      "stateMutability": "nonpayable",
      "type": "function"
    },
    {
      "inputs": [
        {
          "internalType": "address",
          "name": "from",
          "type": "address"
        },
        {
          "internalType": "address",
          "name": "to",
          "type": "address"
        },
        {
          "internalType": "uint256",
          "name": "amount",
          "type": "uint256"
        }
      ],
      "name": "transferFrom",
      "outputs": [
        {
          "internalType": "bool",
          "name": "",
          "type": "bool"
        }
      ],
      "stateMutability": "nonpayable",
      "type": "function"
    },
    {
      "inputs": [
        {
          "internalType": "address",
          "name": "newOwner",
          "type": "address"
        }
      ],
      "name": "transferOwnership",
      "outputs": [],
      "stateMutability": "nonpayable",
      "type": "function"
    },
    {
      "inputs": [],
      "name": "unpause",
      "outputs": [],
      "stateMutability": "nonpayable",
      "type": "function"
    },
    {
      "inputs": [],
      "name": "updateTotalAssets",
      "outputs": [],
      "stateMutability": "nonpayable",
      "type": "function"
    },
    {
      "inputs": [
        {
          "internalType": "uint256",
          "name": "assets",
          "type": "uint256"
        },
        {
          "internalType": "address",
          "name": "receiver",
          "type": "address"
        },
        {
          "internalType": "address",
          "name": "owner",
          "type": "address"
        }
      ],
      "name": "withdraw",
      "outputs": [
        {
          "internalType": "uint256",
          "name": "",
          "type": "uint256"
        }
      ],
      "stateMutability": "nonpayable",
      "type": "function"
    }
  ],
  "bytecode": "0x60c060405269d3c21bcecceda100000060075569d3c21bcecceda10000006008553480156200002d57600080fd5b506040516200465638038062004656833981810160405281019062000053919062000548565b82828281600390816200006791906200082d565b5080600490816200007991906200082d565b50505060008062000090836200013460201b60201c565b9150915081620000a2576012620000a4565b805b60ff1660a08160ff16815250508273ffffffffffffffffffffffffffffffffffffffff1660808173ffffffffffffffffffffffffffffffffffffffff168152505050505062000108620000fc6200026e60201b60201c565b6200027660201b60201c565b6000600560146101000a81548160ff0219169083151502179055506001600681905550505050620009dd565b6000806000808473ffffffffffffffffffffffffffffffffffffffff1663313ce56760e01b604051602401604051602081830303815290604052907bffffffffffffffffffffffffffffffffffffffffffffffffffffffff19166020820180517bffffffffffffffffffffffffffffffffffffffffffffffffffffffff8381831617835250505050604051620001cb919062000961565b600060405180830381855afa9150503d806000811462000208576040519150601f19603f3d011682016040523d82523d6000602084013e6200020d565b606091505b50915091508180156200022257506020815110155b156200025f57600081806020019051810190620002409190620009ab565b905060ff801681116200025d576001819450945050505062000269565b505b6000809350935050505b915091565b600033905090565b6000600560009054906101000a900473ffffffffffffffffffffffffffffffffffffffff16905081600560006101000a81548173ffffffffffffffffffffffffffffffffffffffff021916908373ffffffffffffffffffffffffffffffffffffffff1602179055508173ffffffffffffffffffffffffffffffffffffffff168173ffffffffffffffffffffffffffffffffffffffff167f8be0079c531659141344cd1fd0a4f28419497f9722a3daafe3b4186f6b6457e060405160405180910390a35050565b6000604051905090565b600080fd5b600080fd5b600073ffffffffffffffffffffffffffffffffffffffff82169050919050565b60006200037d8262000350565b9050919050565b6000620003918262000370565b9050919050565b620003a38162000384565b8114620003af57600080fd5b50565b600081519050620003c38162000398565b92915050565b600080fd5b600080fd5b6000601f19601f8301169050919050565b7f4e487b7100000000000000000000000000000000000000000000000000000000600052604160045260246000fd5b6200041e82620003d3565b810181811067ffffffffffffffff8211171562000440576200043f620003e4565b5b80604052505050565b6000620004556200033c565b905062000463828262000413565b919050565b600067ffffffffffffffff821115620004865762000485620003e4565b5b6200049182620003d3565b9050602081019050919050565b60005b83811015620004be578082015181840152602081019050620004a1565b60008484015250505050565b6000620004e1620004db8462000468565b62000449565b9050828152602081018484840111156200050057620004ff620003ce565b5b6200050d8482856200049e565b509392505050565b600082601f8301126200052d576200052c620003c9565b5b81516200053f848260208601620004ca565b91505092915050565b60008060006060848603121562000564576200056362000346565b5b60006200057486828701620003b2565b935050602084015167ffffffffffffffff8111156200059857620005976200034b565b5b620005a68682870162000515565b925050604084015167ffffffffffffffff811115620005ca57620005c96200034b565b5b620005d88682870162000515565b9150509250925092565b600081519050919050565b7f4e487b7100000000000000000000000000000000000000000000000000000000600052602260045260246000fd5b600060028204905060018216806200063557607f821691505b6020821081036200064b576200064a620005ed565b5b50919050565b60008190508160005260206000209050919050565b60006020601f8301049050919050565b600082821b905092915050565b600060088302620006b57fffffffffffffffffffffffffffffffffffffffffffffffffffffffffffffffff8262000676565b620006c1868362000676565b95508019841693508086168417925050509392505050565b6000819050919050565b6000819050919050565b60006200070e620007086200070284620006d9565b620006e3565b620006d9565b9050919050565b6000819050919050565b6200072a83620006ed565b62000742620007398262000715565b84845462000683565b825550505050565b600090565b620007596200074a565b620007668184846200071f565b505050565b5b818110156200078e57620007826000826200074f565b6001810190506200076c565b5050565b601f821115620007dd57620007a78162000651565b620007b28462000666565b81016020851015620007c2578190505b620007da620007d18562000666565b8301826200076b565b50505b505050565b600082821c905092915050565b60006200080260001984600802620007e2565b1980831691505092915050565b60006200081d8383620007ef565b9150826002028217905092915050565b6200083882620005e2565b67ffffffffffffffff811115620008545762000853620003e4565b5b6200086082546200061c565b6200086d82828562000792565b600060209050601f831160018114620008a5576000841562000890578287015190505b6200089c85826200080f565b8655506200090c565b601f198416620008b58662000651565b60005b82811015620008df57848901518255600182019150602085019450602081019050620008b8565b86831015620008ff5784890151620008fb601f891682620007ef565b8355505b6001600288020188555050505b505050505050565b600081519050919050565b600081905092915050565b6000620009378262000914565b6200094381856200091f565b9350620009558185602086016200049e565b80840191505092915050565b60006200096f82846200092a565b915081905092915050565b6200098581620006d9565b81146200099157600080fd5b50565b600081519050620009a5816200097a565b92915050565b600060208284031215620009c457620009c362000346565b5b6000620009d48482850162000994565b91505092915050565b60805160a051613c4562000a11600039600061098e0152600081816109c001528181611d2c0152611e180152613c456000f3fe608060405234801561001057600080fd5b506004361061023d5760003560e01c80638456cb591161013b578063bdc8144b116100b8578063d905777e1161007c578063d905777e1461072e578063db2e21bc1461075e578063dd62ed3e14610768578063ef8b30f714610798578063f2fde38b146107c85761023d565b8063bdc8144b14610678578063c63d75b614610694578063c6e6f592146106c4578063ce96cb77146106f4578063d033cb4d146107245761023d565b8063a457c2d7116100ff578063a457c2d714610588578063a9059cbb146105b8578063b3d7f6b9146105e8578063b460af9414610618578063ba087652146106485761023d565b80638456cb59146104f65780638da5cb5b1461050057806394bf804d1461051e57806395d89b411461054e5780639e6a1d7d1461056c5761023d565b806339509351116101c95780636a00dc3c1161018d5780636a00dc3c146104505780636e553f651461046e57806370a082311461049e578063715018a6146104ce5780637f59230f146104d85761023d565b806339509351146103985780633f4ba83a146103c8578063402d267d146103d25780634cdad506146104025780635c975abb146104325761023d565b80630a28a477116102105780630a28a477146102de57806318160ddd1461030e57806323b872dd1461032c578063313ce5671461035c57806338d52e0f1461037a5761023d565b806301e1d1141461024257806306fdde031461026057806307a2d13a1461027e578063095ea7b3146102ae575b600080fd5b61024a6107e4565b60405161025791906126b4565b60405180910390f35b61026861086c565b604051610275919061275f565b60405180910390f35b610298600480360381019061029391906127b2565b6108fe565b6040516102a591906126b4565b60405180910390f35b6102c860048036038101906102c3919061283d565b610912565b6040516102d59190612898565b60405180910390f35b6102f860048036038101906102f391906127b2565b610935565b60405161030591906126b4565b60405180910390f35b610316610949565b60405161032391906126b4565b60405180910390f35b610346600480360381019061034191906128b3565b610953565b6040516103539190612898565b60405180910390f35b610364610982565b6040516103719190612922565b60405180910390f35b6103826109bc565b60405161038f919061294c565b60405180910390f35b6103b260048036038101906103ad919061283d565b6109e4565b6040516103bf9190612898565b60405180910390f35b6103d0610a1b565b005b6103ec60048036038101906103e79190612967565b610a2d565b6040516103f991906126b4565b60405180910390f35b61041c600480360381019061041791906127b2565b610a57565b60405161042991906126b4565b60405180910390f35b61043a610a6b565b6040516104479190612898565b60405180910390f35b610458610a82565b60405161046591906126b4565b60405180910390f35b61048860048036038101906104839190612994565b610a88565b60405161049591906126b4565b60405180910390f35b6104b860048036038101906104b39190612967565b610af9565b6040516104c591906126b4565b60405180910390f35b6104d6610b41565b005b6104e0610b55565b6040516104ed91906126b4565b60405180910390f35b6104fe610b5b565b005b610508610b6d565b604051610515919061294c565b60405180910390f35b61053860048036038101906105339190612994565b610b97565b60405161054591906126b4565b60405180910390f35b610556610c08565b604051610563919061275f565b60405180910390f35b610586600480360381019061058191906127b2565b610c9a565b005b6105a2600480360381019061059d919061283d565b610d26565b6040516105af9190612898565b60405180910390f35b6105d260048036038101906105cd919061283d565b610d9d565b6040516105df9190612898565b60405180910390f35b61060260048036038101906105fd91906127b2565b610dc0565b60405161060f91906126b4565b60405180910390f35b610632600480360381019061062d91906129d4565b610dd4565b60405161063f91906126b4565b60405180910390f35b610662600480360381019061065d91906129d4565b610e02565b60405161066f91906126b4565b60405180910390f35b610692600480360381019061068d91906127b2565b610e30565b005b6106ae60048036038101906106a99190612967565b610ebc565b6040516106bb91906126b4565b60405180910390f35b6106de60048036038101906106d991906127b2565b610ee6565b6040516106eb91906126b4565b60405180910390f35b61070e60048036038101906107099190612967565b610efa565b60405161071b91906126b4565b60405180910390f35b61072c610f16565b005b61074860048036038101906107439190612967565b610ff0565b60405161075591906126b4565b60405180910390f35b610766611002565b005b610782600480360381019061077d9190612a27565b611129565b60405161078f91906126b4565b60405180910390f35b6107b260048036038101906107ad91906127b2565b6111b0565b6040516107bf91906126b4565b60405180910390f35b6107e260048036038101906107dd9190612967565b6111c4565b005b60006107ee6109bc565b73ffffffffffffffffffffffffffffffffffffffff166370a08231306040518263ffffffff1660e01b8152600401610826919061294c565b602060405180830381865afa158015610843573d6000803e3d6000fd5b505050506040513d601f19601f820116820180604052508101906108679190612a7c565b905090565b60606003805461087b90612ad8565b80601f01602080910402602001604051908101604052809291908181526020018280546108a790612ad8565b80156108f45780601f106108c9576101008083540402835291602001916108f4565b820191906000526020600020905b8154815290600101906020018083116108d757829003601f168201915b5050505050905090565b600061090b826000611247565b9050919050565b60008061091d6112a0565b905061092a8185856112a8565b600191505092915050565b6000610942826001611471565b9050919050565b6000600254905090565b60008061095e6112a0565b905061096b8582856114ca565b610976858585611556565b60019150509392505050565b600061098c6117cc565b7f00000000000000000000000000000000000000000000000000000000000000006109b79190612b38565b905090565b60007f0000000000000000000000000000000000000000000000000000000000000000905090565b6000806109ef6112a0565b9050610a10818585610a018589611129565b610a0b9190612b6d565b6112a8565b600191505092915050565b610a236117d1565b610a2b61184f565b565b60007fffffffffffffffffffffffffffffffffffffffffffffffffffffffffffffffff9050919050565b6000610a64826000611247565b9050919050565b6000600560149054906101000a900460ff16905090565b60075481565b6000610a926118b2565b610a9a6118fc565b600754831115610adf576040517f08c379a0000000000000000000000000000000000000000000000000000000008152600401610ad690612bed565b60405180910390fd5b610ae9838361194b565b9050610af36119c2565b92915050565b60008060008373ffffffffffffffffffffffffffffffffffffffff1673ffffffffffffffffffffffffffffffffffffffff168152602001908152602001600020549050919050565b610b496117d1565b610b5360006119cc565b565b60085481565b610b636117d1565b610b6b611a92565b565b6000600560009054906101000a900473ffffffffffffffffffffffffffffffffffffffff16905090565b6000610ba16118b2565b610ba96118fc565b600854831115610bee576040517f08c379a0000000000000000000000000000000000000000000000000000000008152600401610be590612c59565b60405180910390fd5b610bf88383611af5565b9050610c026119c2565b92915050565b606060048054610c1790612ad8565b80601f0160208091040260200160405190810160405280929190818152602001828054610c4390612ad8565b8015610c905780601f10610c6557610100808354040283529160200191610c90565b820191906000526020600020905b815481529060010190602001808311610c7357829003601f168201915b5050505050905090565b610ca26117d1565b60008111610ce5576040517f08c379a0000000000000000000000000000000000000000000000000000000008152600401610cdc90612ceb565b60405180910390fd5b806008819055507fc39a10b7490bc694c922bd6cbef1462b0cbf533e0e4bce081f71702069d12d1c81604051610d1b91906126b4565b60405180910390a150565b600080610d316112a0565b90506000610d3f8286611129565b905083811015610d84576040517f08c379a0000000000000000000000000000000000000000000000000000000008152600401610d7b90612d7d565b60405180910390fd5b610d9182868684036112a8565b60019250505092915050565b600080610da86112a0565b9050610db5818585611556565b600191505092915050565b6000610dcd826001611247565b9050919050565b6000610dde6118b2565b610de66118fc565b610df1848484611b6c565b9050610dfb6119c2565b9392505050565b6000610e0c6118b2565b610e146118fc565b610e1f848484611be5565b9050610e296119c2565b9392505050565b610e386117d1565b60008111610e7b576040517f08c379a0000000000000000000000000000000000000000000000000000000008152600401610e7290612e0f565b60405180910390fd5b806007819055507fc512617347fd848ec9d7347c99c10e4fa7059132c92d0445930a7fb0c8252ff581604051610eb191906126b4565b60405180910390a150565b60007fffffffffffffffffffffffffffffffffffffffffffffffffffffffffffffffff9050919050565b6000610ef3826000611471565b9050919050565b6000610f0f610f0883610af9565b6000611247565b9050919050565b610f1e6117d1565b6000610f286109bc565b73ffffffffffffffffffffffffffffffffffffffff166370a08231306040518263ffffffff1660e01b8152600401610f60919061294c565b602060405180830381865afa158015610f7d573d6000803e3d6000fd5b505050506040513d601f19601f82011682018060405250810190610fa19190612a7c565b90506009548114610fed57806009819055507ff306601d1bd9ff6895ca817f568f68463b269e4b0cf4710e5f1003592ad29f5c600954604051610fe491906126b4565b60405180910390a15b50565b6000610ffb82610af9565b9050919050565b61100a6117d1565b60006110146109bc565b73ffffffffffffffffffffffffffffffffffffffff166370a08231306040518263ffffffff1660e01b815260040161104c919061294c565b602060405180830381865afa158015611069573d6000803e3d6000fd5b505050506040513d601f19601f8201168201806040525081019061108d9190612a7c565b90506000811115611126576110a06109bc565b73ffffffffffffffffffffffffffffffffffffffff1663a9059cbb6110c3610b6d565b836040518363ffffffff1660e01b81526004016110e1929190612e2f565b6020604051808303816000875af1158015611100573d6000803e3d6000fd5b505050506040513d601f19601f820116820180604052508101906111249190612e84565b505b50565b6000600160008473ffffffffffffffffffffffffffffffffffffffff1673ffffffffffffffffffffffffffffffffffffffff16815260200190815260200160002060008373ffffffffffffffffffffffffffffffffffffffff1673ffffffffffffffffffffffffffffffffffffffff16815260200190815260200160002054905092915050565b60006111bd826000611471565b9050919050565b6111cc6117d1565b600073ffffffffffffffffffffffffffffffffffffffff168173ffffffffffffffffffffffffffffffffffffffff160361123b576040517f08c379a000000000000000000000000000000000000000000000000000000000815260040161123290612f23565b60405180910390fd5b611244816119cc565b50565b600061129860016112566107e4565b6112609190612b6d565b6112686117cc565b600a6112749190613076565b61127c610949565b6112869190612b6d565b8486611c5e909392919063ffffffff16565b905092915050565b600033905090565b600073ffffffffffffffffffffffffffffffffffffffff168373ffffffffffffffffffffffffffffffffffffffff1603611317576040517f08c379a000000000000000000000000000000000000000000000000000000000815260040161130e90613133565b60405180910390fd5b600073ffffffffffffffffffffffffffffffffffffffff168273ffffffffffffffffffffffffffffffffffffffff1603611386576040517f08c379a000000000000000000000000000000000000000000000000000000000815260040161137d906131c5565b60405180910390fd5b80600160008573ffffffffffffffffffffffffffffffffffffffff1673ffffffffffffffffffffffffffffffffffffffff16815260200190815260200160002060008473ffffffffffffffffffffffffffffffffffffffff1673ffffffffffffffffffffffffffffffffffffffff168152602001908152602001600020819055508173ffffffffffffffffffffffffffffffffffffffff168373ffffffffffffffffffffffffffffffffffffffff167f8c5be1e5ebec7d5bd14f71427d1e84f3dd0314c0f7b2291e5b200ac8c7c3b9258360405161146491906126b4565b60405180910390a3505050565b60006114c261147e6117cc565b600a61148a9190613076565b611492610949565b61149c9190612b6d565b60016114a66107e4565b6114b09190612b6d565b8486611c5e909392919063ffffffff16565b905092915050565b60006114d68484611129565b90507fffffffffffffffffffffffffffffffffffffffffffffffffffffffffffffffff81146115505781811015611542576040517f08c379a000000000000000000000000000000000000000000000000000000000815260040161153990613231565b60405180910390fd5b61154f84848484036112a8565b5b50505050565b600073ffffffffffffffffffffffffffffffffffffffff168373ffffffffffffffffffffffffffffffffffffffff16036115c5576040517f08c379a00000000000000000000000000000000000000000000000000000000081526004016115bc906132c3565b60405180910390fd5b600073ffffffffffffffffffffffffffffffffffffffff168273ffffffffffffffffffffffffffffffffffffffff1603611634576040517f08c379a000000000000000000000000000000000000000000000000000000000815260040161162b90613355565b60405180910390fd5b61163f838383611cd4565b60008060008573ffffffffffffffffffffffffffffffffffffffff1673ffffffffffffffffffffffffffffffffffffffff168152602001908152602001600020549050818110156116c5576040517f08c379a00000000000000000000000000000000000000000000000000000000081526004016116bc906133e7565b60405180910390fd5b8181036000808673ffffffffffffffffffffffffffffffffffffffff1673ffffffffffffffffffffffffffffffffffffffff16815260200190815260200160002081905550816000808573ffffffffffffffffffffffffffffffffffffffff1673ffffffffffffffffffffffffffffffffffffffff168152602001908152602001600020600082825401925050819055508273ffffffffffffffffffffffffffffffffffffffff168473ffffffffffffffffffffffffffffffffffffffff167fddf252ad1be2c89b69c2b068fc378daa952ba7f163c4a11628f55a4df523b3ef846040516117b391906126b4565b60405180910390a36117c6848484611cd9565b50505050565b600090565b6117d96112a0565b73ffffffffffffffffffffffffffffffffffffffff166117f7610b6d565b73ffffffffffffffffffffffffffffffffffffffff161461184d576040517f08c379a000000000000000000000000000000000000000000000000000000000815260040161184490613453565b60405180910390fd5b565b611857611cde565b6000600560146101000a81548160ff0219169083151502179055507f5db9ee0a495bf2e6ff9c91a7834c1ba4fdd244a5e8aa4e537bd38aeae4b073aa61189b6112a0565b6040516118a8919061294c565b60405180910390a1565b6118ba610a6b565b156118fa576040517f08c379a00000000000000000000000000000000000000000000000000000000081526004016118f1906134bf565b60405180910390fd5b565b600260065403611941576040517f08c379a00000000000000000000000000000000000000000000000000000000081526004016119389061352b565b60405180910390fd5b6002600681905550565b600061195682610a2d565b831115611998576040517f08c379a000000000000000000000000000000000000000000000000000000000815260040161198f90613597565b60405180910390fd5b60006119a3846111b0565b90506119b86119b06112a0565b848684611d27565b8091505092915050565b6001600681905550565b6000600560009054906101000a900473ffffffffffffffffffffffffffffffffffffffff16905081600560006101000a81548173ffffffffffffffffffffffffffffffffffffffff021916908373ffffffffffffffffffffffffffffffffffffffff1602179055508173ffffffffffffffffffffffffffffffffffffffff168173ffffffffffffffffffffffffffffffffffffffff167f8be0079c531659141344cd1fd0a4f28419497f9722a3daafe3b4186f6b6457e060405160405180910390a35050565b611a9a6118b2565b6001600560146101000a81548160ff0219169083151502179055507f62e78cea01bee320cd4e420270b5ea74000d11b0c9f74754ebdbfc544b05a258611ade6112a0565b604051611aeb919061294c565b60405180910390a1565b6000611b0082610ebc565b831115611b42576040517f08c379a0000000000000000000000000000000000000000000000000000000008152600401611b3990613603565b60405180910390fd5b6000611b4d84610dc0565b9050611b62611b5a6112a0565b848387611d27565b8091505092915050565b6000611b7782610efa565b841115611bb9576040517f08c379a0000000000000000000000000000000000000000000000000000000008152600401611bb09061366f565b60405180910390fd5b6000611bc485610935565b9050611bda611bd16112a0565b85858885611dca565b809150509392505050565b6000611bf082610ff0565b841115611c32576040517f08c379a0000000000000000000000000000000000000000000000000000000008152600401611c29906136db565b60405180910390fd5b6000611c3d85610a57565b9050611c53611c4a6112a0565b85858489611dca565b809150509392505050565b600080611c6c868686611ec3565b905060016002811115611c8257611c816136fb565b5b836002811115611c9557611c946136fb565b5b148015611cb3575060008480611cae57611cad61372a565b5b868809115b15611cc857600181611cc59190612b6d565b90505b80915050949350505050565b505050565b505050565b611ce6610a6b565b611d25576040517f08c379a0000000000000000000000000000000000000000000000000000000008152600401611d1c906137a5565b60405180910390fd5b565b611d537f0000000000000000000000000000000000000000000000000000000000000000853085611fd4565b611d5d838261205d565b8273ffffffffffffffffffffffffffffffffffffffff168473ffffffffffffffffffffffffffffffffffffffff167fdcbc1c05240f31ff3ad067ef1ee35ce4997762752e3a095284754544f4c709d78484604051611dbc9291906137c5565b60405180910390a350505050565b8273ffffffffffffffffffffffffffffffffffffffff168573ffffffffffffffffffffffffffffffffffffffff1614611e0957611e088386836114ca565b5b611e1383826121b3565b611e3e7f00000000000000000000000000000000000000000000000000000000000000008584612380565b8273ffffffffffffffffffffffffffffffffffffffff168473ffffffffffffffffffffffffffffffffffffffff168673ffffffffffffffffffffffffffffffffffffffff167ffbde797d201c681b91056529119e0b02407c7bb96a4a2c75c01fc9667232c8db8585604051611eb49291906137c5565b60405180910390a45050505050565b6000806000801985870985870292508281108382030391505060008103611efe57838281611ef457611ef361372a565b5b0492505050611fcd565b808411611f40576040517f08c379a0000000000000000000000000000000000000000000000000000000008152600401611f379061383a565b60405180910390fd5b60008486880990508281118203915080830392506000600186190186169050808604955080840493506001818260000304019050808302841793506000600287600302189050808702600203810290508087026002038102905080870260020381029050808702600203810290508087026002038102905080870260020381029050808502955050505050505b9392505050565b612057846323b872dd60e01b858585604051602401611ff59392919061385a565b604051602081830303815290604052907bffffffffffffffffffffffffffffffffffffffffffffffffffffffff19166020820180517bffffffffffffffffffffffffffffffffffffffffffffffffffffffff8381831617835250505050612406565b50505050565b600073ffffffffffffffffffffffffffffffffffffffff168273ffffffffffffffffffffffffffffffffffffffff16036120cc576040517f08c379a00000000000000000000000000000000000000000000000000000000081526004016120c3906138dd565b60405180910390fd5b6120d860008383611cd4565b80600260008282546120ea9190612b6d565b92505081905550806000808473ffffffffffffffffffffffffffffffffffffffff1673ffffffffffffffffffffffffffffffffffffffff168152602001908152602001600020600082825401925050819055508173ffffffffffffffffffffffffffffffffffffffff16600073ffffffffffffffffffffffffffffffffffffffff167fddf252ad1be2c89b69c2b068fc378daa952ba7f163c4a11628f55a4df523b3ef8360405161219b91906126b4565b60405180910390a36121af60008383611cd9565b5050565b600073ffffffffffffffffffffffffffffffffffffffff168273ffffffffffffffffffffffffffffffffffffffff1603612222576040517f08c379a00000000000000000000000000000000000000000000000000000000081526004016122199061396f565b60405180910390fd5b61222e82600083611cd4565b60008060008473ffffffffffffffffffffffffffffffffffffffff1673ffffffffffffffffffffffffffffffffffffffff168152602001908152602001600020549050818110156122b4576040517f08c379a00000000000000000000000000000000000000000000000000000000081526004016122ab90613a01565b60405180910390fd5b8181036000808573ffffffffffffffffffffffffffffffffffffffff1673ffffffffffffffffffffffffffffffffffffffff1681526020019081526020016000208190555081600260008282540392505081905550600073ffffffffffffffffffffffffffffffffffffffff168373ffffffffffffffffffffffffffffffffffffffff167fddf252ad1be2c89b69c2b068fc378daa952ba7f163c4a11628f55a4df523b3ef8460405161236791906126b4565b60405180910390a361237b83600084611cd9565b505050565b6124018363a9059cbb60e01b848460405160240161239f929190612e2f565b604051602081830303815290604052907bffffffffffffffffffffffffffffffffffffffffffffffffffffffff19166020820180517bffffffffffffffffffffffffffffffffffffffffffffffffffffffff8381831617835250505050612406565b505050565b6000612468826040518060400160405280602081526020017f5361666545524332303a206c6f772d6c6576656c2063616c6c206661696c65648152508573ffffffffffffffffffffffffffffffffffffffff166124ce9092919063ffffffff16565b905060008151148061248a5750808060200190518101906124899190612e84565b5b6124c9576040517f08c379a00000000000000000000000000000000000000000000000000000000081526004016124c090613a93565b60405180910390fd5b505050565b60606124dd84846000856124e6565b90509392505050565b60608247101561252b576040517f08c379a000000000000000000000000000000000000000000000000000000000815260040161252290613b25565b60405180910390fd5b6000808673ffffffffffffffffffffffffffffffffffffffff1685876040516125549190613b8c565b60006040518083038185875af1925050503d8060008114612591576040519150601f19603f3d011682016040523d82523d6000602084013e612596565b606091505b50915091506125a7878383876125b3565b92505050949350505050565b6060831561261557600083510361260d576125cd85612628565b61260c576040517f08c379a000000000000000000000000000000000000000000000000000000000815260040161260390613bef565b60405180910390fd5b5b829050612620565b61261f838361264b565b5b949350505050565b6000808273ffffffffffffffffffffffffffffffffffffffff163b119050919050565b60008251111561265e5781518083602001fd5b806040517f08c379a0000000000000000000000000000000000000000000000000000000008152600401612692919061275f565b60405180910390fd5b6000819050919050565b6126ae8161269b565b82525050565b60006020820190506126c960008301846126a5565b92915050565b600081519050919050565b600082825260208201905092915050565b60005b838110156127095780820151818401526020810190506126ee565b60008484015250505050565b6000601f19601f8301169050919050565b6000612731826126cf565b61273b81856126da565b935061274b8185602086016126eb565b61275481612715565b840191505092915050565b600060208201905081810360008301526127798184612726565b905092915050565b600080fd5b61278f8161269b565b811461279a57600080fd5b50565b6000813590506127ac81612786565b92915050565b6000602082840312156127c8576127c7612781565b5b60006127d68482850161279d565b91505092915050565b600073ffffffffffffffffffffffffffffffffffffffff82169050919050565b600061280a826127df565b9050919050565b61281a816127ff565b811461282557600080fd5b50565b60008135905061283781612811565b92915050565b6000806040838503121561285457612853612781565b5b600061286285828601612828565b92505060206128738582860161279d565b9150509250929050565b60008115159050919050565b6128928161287d565b82525050565b60006020820190506128ad6000830184612889565b92915050565b6000806000606084860312156128cc576128cb612781565b5b60006128da86828701612828565b93505060206128eb86828701612828565b92505060406128fc8682870161279d565b9150509250925092565b600060ff82169050919050565b61291c81612906565b82525050565b60006020820190506129376000830184612913565b92915050565b612946816127ff565b82525050565b6000602082019050612961600083018461293d565b92915050565b60006020828403121561297d5761297c612781565b5b600061298b84828501612828565b91505092915050565b600080604083850312156129ab576129aa612781565b5b60006129b98582860161279d565b92505060206129ca85828601612828565b9150509250929050565b6000806000606084860312156129ed576129ec612781565b5b60006129fb8682870161279d565b9350506020612a0c86828701612828565b9250506040612a1d86828701612828565b9150509250925092565b60008060408385031215612a3e57612a3d612781565b5b6000612a4c85828601612828565b9250506020612a5d85828601612828565b9150509250929050565b600081519050612a7681612786565b92915050565b600060208284031215612a9257612a91612781565b5b6000612aa084828501612a67565b91505092915050565b7f4e487b7100000000000000000000000000000000000000000000000000000000600052602260045260246000fd5b60006002820490506001821680612af057607f821691505b602082108103612b0357612b02612aa9565b5b50919050565b7f4e487b7100000000000000000000000000000000000000000000000000000000600052601160045260246000fd5b6000612b4382612906565b9150612b4e83612906565b9250828201905060ff811115612b6757612b66612b09565b5b92915050565b6000612b788261269b565b9150612b838361269b565b9250828201905080821115612b9b57612b9a612b09565b5b92915050565b7f4465706f73697420616d6f756e742065786365656473206c696d697400000000600082015250565b6000612bd7601c836126da565b9150612be282612ba1565b602082019050919050565b60006020820190508181036000830152612c0681612bca565b9050919050565b7f4d696e7420616d6f756e742065786365656473206c696d697400000000000000600082015250565b6000612c436019836126da565b9150612c4e82612c0d565b602082019050919050565b60006020820190508181036000830152612c7281612c36565b9050919050565b7f4d696e74206c696d6974206d7573742062652067726561746572207468616e2060008201527f3000000000000000000000000000000000000000000000000000000000000000602082015250565b6000612cd56021836126da565b9150612ce082612c79565b604082019050919050565b60006020820190508181036000830152612d0481612cc8565b9050919050565b7f45524332303a2064656372656173656420616c6c6f77616e63652062656c6f7760008201527f207a65726f000000000000000000000000000000000000000000000000000000602082015250565b6000612d676025836126da565b9150612d7282612d0b565b604082019050919050565b60006020820190508181036000830152612d9681612d5a565b9050919050565b7f4465706f736974206c696d6974206d757374206265206772656174657220746860008201527f616e203000000000000000000000000000000000000000000000000000000000602082015250565b6000612df96024836126da565b9150612e0482612d9d565b604082019050919050565b60006020820190508181036000830152612e2881612dec565b9050919050565b6000604082019050612e44600083018561293d565b612e5160208301846126a5565b9392505050565b612e618161287d565b8114612e6c57600080fd5b50565b600081519050612e7e81612e58565b92915050565b600060208284031215612e9a57612e99612781565b5b6000612ea884828501612e6f565b91505092915050565b7f4f776e61626c653a206e6577206f776e657220697320746865207a65726f206160008201527f6464726573730000000000000000000000000000000000000000000000000000602082015250565b6000612f0d6026836126da565b9150612f1882612eb1565b604082019050919050565b60006020820190508181036000830152612f3c81612f00565b9050919050565b60008160011c9050919050565b6000808291508390505b6001851115612f9a57808604811115612f7657612f75612b09565b5b6001851615612f855780820291505b8081029050612f9385612f43565b9450612f5a565b94509492505050565b600082612fb3576001905061306f565b81612fc1576000905061306f565b8160018114612fd75760028114612fe157613010565b600191505061306f565b60ff841115612ff357612ff2612b09565b5b8360020a91508482111561300a57613009612b09565b5b5061306f565b5060208310610133831016604e8410600b84101617156130455782820a9050838111156130405761303f612b09565b5b61306f565b6130528484846001612f50565b9250905081840481111561306957613068612b09565b5b81810290505b9392505050565b60006130818261269b565b915061308c83612906565b92506130b97fffffffffffffffffffffffffffffffffffffffffffffffffffffffffffffffff8484612fa3565b905092915050565b7f45524332303a20617070726f76652066726f6d20746865207a65726f2061646460008201527f7265737300000000000000000000000000000000000000000000000000000000602082015250565b600061311d6024836126da565b9150613128826130c1565b604082019050919050565b6000602082019050818103600083015261314c81613110565b9050919050565b7f45524332303a20617070726f766520746f20746865207a65726f20616464726560008201527f7373000000000000000000000000000000000000000000000000000000000000602082015250565b60006131af6022836126da565b91506131ba82613153565b604082019050919050565b600060208201905081810360008301526131de816131a2565b9050919050565b7f45524332303a20696e73756666696369656e7420616c6c6f77616e6365000000600082015250565b600061321b601d836126da565b9150613226826131e5565b602082019050919050565b6000602082019050818103600083015261324a8161320e565b9050919050565b7f45524332303a207472616e736665722066726f6d20746865207a65726f20616460008201527f6472657373000000000000000000000000000000000000000000000000000000602082015250565b60006132ad6025836126da565b91506132b882613251565b604082019050919050565b600060208201905081810360008301526132dc816132a0565b9050919050565b7f45524332303a207472616e7366657220746f20746865207a65726f206164647260008201527f6573730000000000000000000000000000000000000000000000000000000000602082015250565b600061333f6023836126da565b915061334a826132e3565b604082019050919050565b6000602082019050818103600083015261336e81613332565b9050919050565b7f45524332303a207472616e7366657220616d6f756e742065786365656473206260008201527f616c616e63650000000000000000000000000000000000000000000000000000602082015250565b60006133d16026836126da565b91506133dc82613375565b604082019050919050565b60006020820190508181036000830152613400816133c4565b9050919050565b7f4f776e61626c653a2063616c6c6572206973206e6f7420746865206f776e6572600082015250565b600061343d6020836126da565b915061344882613407565b602082019050919050565b6000602082019050818103600083015261346c81613430565b9050919050565b7f5061757361626c653a2070617573656400000000000000000000000000000000600082015250565b60006134a96010836126da565b91506134b482613473565b602082019050919050565b600060208201905081810360008301526134d88161349c565b9050919050565b7f5265656e7472616e637947756172643a207265656e7472616e742063616c6c00600082015250565b6000613515601f836126da565b9150613520826134df565b602082019050919050565b6000602082019050818103600083015261354481613508565b9050919050565b7f455243343632363a206465706f736974206d6f7265207468616e206d61780000600082015250565b6000613581601e836126da565b915061358c8261354b565b602082019050919050565b600060208201905081810360008301526135b081613574565b9050919050565b7f455243343632363a206d696e74206d6f7265207468616e206d61780000000000600082015250565b60006135ed601b836126da565b91506135f8826135b7565b602082019050919050565b6000602082019050818103600083015261361c816135e0565b9050919050565b7f455243343632363a207769746864726177206d6f7265207468616e206d617800600082015250565b6000613659601f836126da565b915061366482613623565b602082019050919050565b600060208201905081810360008301526136888161364c565b9050919050565b7f455243343632363a2072656465656d206d6f7265207468616e206d6178000000600082015250565b60006136c5601d836126da565b91506136d08261368f565b602082019050919050565b600060208201905081810360008301526136f4816136b8565b9050919050565b7f4e487b7100000000000000000000000000000000000000000000000000000000600052602160045260246000fd5b7f4e487b7100000000000000000000000000000000000000000000000000000000600052601260045260246000fd5b7f5061757361626c653a206e6f7420706175736564000000000000000000000000600082015250565b600061378f6014836126da565b915061379a82613759565b602082019050919050565b600060208201905081810360008301526137be81613782565b9050919050565b60006040820190506137da60008301856126a5565b6137e760208301846126a5565b9392505050565b7f4d6174683a206d756c446976206f766572666c6f770000000000000000000000600082015250565b60006138246015836126da565b915061382f826137ee565b602082019050919050565b6000602082019050818103600083015261385381613817565b9050919050565b600060608201905061386f600083018661293d565b61387c602083018561293d565b61388960408301846126a5565b949350505050565b7f45524332303a206d696e7420746f20746865207a65726f206164647265737300600082015250565b60006138c7601f836126da565b91506138d282613891565b602082019050919050565b600060208201905081810360008301526138f6816138ba565b9050919050565b7f45524332303a206275726e2066726f6d20746865207a65726f2061646472657360008201527f7300000000000000000000000000000000000000000000000000000000000000602082015250565b60006139596021836126da565b9150613964826138fd565b604082019050919050565b600060208201905081810360008301526139888161394c565b9050919050565b7f45524332303a206275726e20616d6f756e7420657863656564732062616c616e60008201527f6365000000000000000000000000000000000000000000000000000000000000602082015250565b60006139eb6022836126da565b91506139f68261398f565b604082019050919050565b60006020820190508181036000830152613a1a816139de565b9050919050565b7f5361666545524332303a204552433230206f7065726174696f6e20646964206e60008201527f6f74207375636365656400000000000000000000000000000000000000000000602082015250565b6000613a7d602a836126da565b9150613a8882613a21565b604082019050919050565b60006020820190508181036000830152613aac81613a70565b9050919050565b7f416464726573733a20696e73756666696369656e742062616c616e636520666f60008201527f722063616c6c0000000000000000000000000000000000000000000000000000602082015250565b6000613b0f6026836126da565b9150613b1a82613ab3565b604082019050919050565b60006020820190508181036000830152613b3e81613b02565b9050919050565b600081519050919050565b600081905092915050565b6000613b6682613b45565b613b708185613b50565b9350613b808185602086016126eb565b80840191505092915050565b6000613b988284613b5b565b915081905092915050565b7f416464726573733a2063616c6c20746f206e6f6e2d636f6e7472616374000000600082015250565b6000613bd9601d836126da565b9150613be482613ba3565b602082019050919050565b60006020820190508181036000830152613c0881613bcc565b905091905056fea2646970667358221220f41cf230eb7aa71d0e217f27b1405e833482bc4fdb378ee4e226d20a320aadab64736f6c63430008180033",
  "linkReferences": {},
  "deployedLinkReferences": {}
}