{
  "_format": "hh-sol-artifact-1",
  "contractName": "MockUniswapV2Factory",
  "sourceName": "contracts/mocks/MockUniswapV2Factory.sol",
  "abi": [
    {
      "inputs": [
        {
          "internalType": "address",
          "name": "_feeToSetter",
          "type": "address"
        }
      ],
      "stateMutability": "nonpayable",
      "type": "constructor"
    },
    {
      "anonymous": false,
      "inputs": [
        {
          "indexed": true,
          "internalType": "address",
          "name": "token0",
          "type": "address"
        },
        {
          "indexed": true,
          "internalType": "address",
          "name": "token1",
          "type": "address"
        },
        {
          "indexed": false,
          "internalType": "address",
          "name": "pair",
          "type": "address"
        },
        {
          "indexed": false,
          "internalType": "uint256",
          "name": "",
          "type": "uint256"
        }
      ],
      "name": "PairCreated",
      "type": "event"
    },
    {
      "inputs": [
        {
          "internalType": "uint256",
          "name": "",
          "type": "uint256"
        }
      ],
      "name": "allPairs",
      "outputs": [
        {
          "internalType": "address",
          "name": "",
          "type": "address"
        }
      ],
      "stateMutability": "view",
      "type": "function"
    },
    {
      "inputs": [],
      "name": "allPairsLength",
      "outputs": [
        {
          "internalType": "uint256",
          "name": "",
          "type": "uint256"
        }
      ],
      "stateMutability": "view",
      "type": "function"
    },
    {
      "inputs": [
        {
          "internalType": "address",
          "name": "tokenA",
          "type": "address"
        },
        {
          "internalType": "address",
          "name": "tokenB",
          "type": "address"
        }
      ],
      "name": "createPair",
      "outputs": [
        {
          "internalType": "address",
          "name": "pair",
          "type": "address"
        }
      ],
      "stateMutability": "nonpayable",
      "type": "function"
    },
    {
      "inputs": [],
      "name": "feeTo",
      "outputs": [
        {
          "internalType": "address",
          "name": "",
          "type": "address"
        }
      ],
      "stateMutability": "view",
      "type": "function"
    },
    {
      "inputs": [],
      "name": "feeToSetter",
      "outputs": [
        {
          "internalType": "address",
          "name": "",
          "type": "address"
        }
      ],
      "stateMutability": "view",
      "type": "function"
    },
    {
      "inputs": [
        {
          "internalType": "address",
          "name": "",
          "type": "address"
        },
        {
          "internalType": "address",
          "name": "",
          "type": "address"
        }
      ],
      "name": "getPair",
      "outputs": [
        {
          "internalType": "address",
          "name": "",
          "type": "address"
        }
      ],
      "stateMutability": "view",
      "type": "function"
    },
    {
      "inputs": [
        {
          "internalType": "address",
          "name": "_feeTo",
          "type": "address"
        }
      ],
      "name": "setFeeTo",
      "outputs": [],
      "stateMutability": "nonpayable",
      "type": "function"
    },
    {
      "inputs": [
        {
          "internalType": "address",
          "name": "_feeToSetter",
          "type": "address"
        }
      ],
      "name": "setFeeToSetter",
      "outputs": [],
      "stateMutability": "nonpayable",
      "type": "function"
    },
    {
      "inputs": [
        {
          "internalType": "address",
          "name": "token0",
          "type": "address"
        },
        {
          "internalType": "address",
          "name": "token1",
          "type": "address"
        },
        {
          "internalType": "address",
          "name": "pairAddress",
          "type": "address"
        }
      ],
      "name": "setPair",
      "outputs": [],
      "stateMutability": "nonpayable",
      "type": "function"
    }
  ],
  "bytecode": "0x60806040523480156200001157600080fd5b50604051620058a4380380620058a48339818101604052810190620000379190620000e9565b80600360006101000a81548173ffffffffffffffffffffffffffffffffffffffff021916908373ffffffffffffffffffffffffffffffffffffffff160217905550506200011b565b600080fd5b600073ffffffffffffffffffffffffffffffffffffffff82169050919050565b6000620000b18262000084565b9050919050565b620000c381620000a4565b8114620000cf57600080fd5b50565b600081519050620000e381620000b8565b92915050565b6000602082840312156200010257620001016200007f565b5b60006200011284828501620000d2565b91505092915050565b615779806200012b6000396000f3fe60806040523480156200001157600080fd5b5060043610620000a05760003560e01c80637bb41012116200006f5780637bb410121462000141578063a2e74af61462000161578063c9c653961462000181578063e6a4390514620001b7578063f46901ed14620001ed57620000a0565b8063017e7e5814620000a5578063094b741514620000c75780631e3dd18b14620000e9578063574f2ba3146200011f575b600080fd5b620000af6200020d565b604051620000be919062000c22565b60405180910390f35b620000d162000233565b604051620000e0919062000c22565b60405180910390f35b62000107600480360381019062000101919062000c7f565b62000259565b60405162000116919062000c22565b60405180910390f35b6200012962000299565b60405162000138919062000cc2565b60405180910390f35b6200015f600480360381019062000159919062000d10565b620002a6565b005b6200017f600480360381019062000179919062000d6c565b62000482565b005b6200019f600480360381019062000199919062000d9e565b62000559565b604051620001ae919062000c22565b60405180910390f35b620001d56004803603810190620001cf919062000d9e565b62000ab6565b604051620001e4919062000c22565b60405180910390f35b6200020b600480360381019062000205919062000d6c565b62000af8565b005b600260009054906101000a900473ffffffffffffffffffffffffffffffffffffffff1681565b600360009054906101000a900473ffffffffffffffffffffffffffffffffffffffff1681565b600181815481106200026a57600080fd5b906000526020600020016000915054906101000a900473ffffffffffffffffffffffffffffffffffffffff1681565b6000600180549050905090565b806000808573ffffffffffffffffffffffffffffffffffffffff1673ffffffffffffffffffffffffffffffffffffffff16815260200190815260200160002060008473ffffffffffffffffffffffffffffffffffffffff1673ffffffffffffffffffffffffffffffffffffffff16815260200190815260200160002060006101000a81548173ffffffffffffffffffffffffffffffffffffffff021916908373ffffffffffffffffffffffffffffffffffffffff160217905550806000808473ffffffffffffffffffffffffffffffffffffffff1673ffffffffffffffffffffffffffffffffffffffff16815260200190815260200160002060008573ffffffffffffffffffffffffffffffffffffffff1673ffffffffffffffffffffffffffffffffffffffff16815260200190815260200160002060006101000a81548173ffffffffffffffffffffffffffffffffffffffff021916908373ffffffffffffffffffffffffffffffffffffffff1602179055506001819080600181540180825580915050600190039060005260206000200160009091909190916101000a81548173ffffffffffffffffffffffffffffffffffffffff021916908373ffffffffffffffffffffffffffffffffffffffff160217905550505050565b600360009054906101000a900473ffffffffffffffffffffffffffffffffffffffff1673ffffffffffffffffffffffffffffffffffffffff163373ffffffffffffffffffffffffffffffffffffffff161462000515576040517f08c379a00000000000000000000000000000000000000000000000000000000081526004016200050c9062000e46565b60405180910390fd5b80600360006101000a81548173ffffffffffffffffffffffffffffffffffffffff021916908373ffffffffffffffffffffffffffffffffffffffff16021790555050565b60008173ffffffffffffffffffffffffffffffffffffffff168373ffffffffffffffffffffffffffffffffffffffff1603620005cc576040517f08c379a0000000000000000000000000000000000000000000000000000000008152600401620005c39062000eb8565b60405180910390fd5b6000808373ffffffffffffffffffffffffffffffffffffffff168573ffffffffffffffffffffffffffffffffffffffff16106200060b5783856200060e565b84845b91509150600073ffffffffffffffffffffffffffffffffffffffff168273ffffffffffffffffffffffffffffffffffffffff160362000684576040517f08c379a00000000000000000000000000000000000000000000000000000000081526004016200067b9062000f2a565b60405180910390fd5b600073ffffffffffffffffffffffffffffffffffffffff166000808473ffffffffffffffffffffffffffffffffffffffff1673ffffffffffffffffffffffffffffffffffffffff16815260200190815260200160002060008373ffffffffffffffffffffffffffffffffffffffff1673ffffffffffffffffffffffffffffffffffffffff16815260200190815260200160002060009054906101000a900473ffffffffffffffffffffffffffffffffffffffff1673ffffffffffffffffffffffffffffffffffffffff161462000791576040517f08c379a0000000000000000000000000000000000000000000000000000000008152600401620007889062000f9c565b60405180910390fd5b600060405180602001620007a59062000bcf565b6020820181038252601f19601f82011660405250905060008383604051602001620007d29291906200100e565b604051602081830303815290604052805190602001209050808251602084016000f594508473ffffffffffffffffffffffffffffffffffffffff1663485cc95585856040518363ffffffff1660e01b8152600401620008339291906200103e565b600060405180830381600087803b1580156200084e57600080fd5b505af115801562000863573d6000803e3d6000fd5b50505050846000808673ffffffffffffffffffffffffffffffffffffffff1673ffffffffffffffffffffffffffffffffffffffff16815260200190815260200160002060008573ffffffffffffffffffffffffffffffffffffffff1673ffffffffffffffffffffffffffffffffffffffff16815260200190815260200160002060006101000a81548173ffffffffffffffffffffffffffffffffffffffff021916908373ffffffffffffffffffffffffffffffffffffffff160217905550846000808573ffffffffffffffffffffffffffffffffffffffff1673ffffffffffffffffffffffffffffffffffffffff16815260200190815260200160002060008673ffffffffffffffffffffffffffffffffffffffff1673ffffffffffffffffffffffffffffffffffffffff16815260200190815260200160002060006101000a81548173ffffffffffffffffffffffffffffffffffffffff021916908373ffffffffffffffffffffffffffffffffffffffff1602179055506001859080600181540180825580915050600190039060005260206000200160009091909190916101000a81548173ffffffffffffffffffffffffffffffffffffffff021916908373ffffffffffffffffffffffffffffffffffffffff1602179055508273ffffffffffffffffffffffffffffffffffffffff168473ffffffffffffffffffffffffffffffffffffffff167f0d3648bd0f6ba80134a33ba9275ac585d9d315f0ad8355cddefde31afa28d0e98760018054905060405162000aa49291906200106b565b60405180910390a35050505092915050565b60006020528160005260406000206020528060005260406000206000915091509054906101000a900473ffffffffffffffffffffffffffffffffffffffff1681565b600360009054906101000a900473ffffffffffffffffffffffffffffffffffffffff1673ffffffffffffffffffffffffffffffffffffffff163373ffffffffffffffffffffffffffffffffffffffff161462000b8b576040517f08c379a000000000000000000000000000000000000000000000000000000000815260040162000b829062000e46565b60405180910390fd5b80600260006101000a81548173ffffffffffffffffffffffffffffffffffffffff021916908373ffffffffffffffffffffffffffffffffffffffff16021790555050565b6146ab806200109983390190565b600073ffffffffffffffffffffffffffffffffffffffff82169050919050565b600062000c0a8262000bdd565b9050919050565b62000c1c8162000bfd565b82525050565b600060208201905062000c39600083018462000c11565b92915050565b600080fd5b6000819050919050565b62000c598162000c44565b811462000c6557600080fd5b50565b60008135905062000c798162000c4e565b92915050565b60006020828403121562000c985762000c9762000c3f565b5b600062000ca88482850162000c68565b91505092915050565b62000cbc8162000c44565b82525050565b600060208201905062000cd9600083018462000cb1565b92915050565b62000cea8162000bfd565b811462000cf657600080fd5b50565b60008135905062000d0a8162000cdf565b92915050565b60008060006060848603121562000d2c5762000d2b62000c3f565b5b600062000d3c8682870162000cf9565b935050602062000d4f8682870162000cf9565b925050604062000d628682870162000cf9565b9150509250925092565b60006020828403121562000d855762000d8462000c3f565b5b600062000d958482850162000cf9565b91505092915050565b6000806040838503121562000db85762000db762000c3f565b5b600062000dc88582860162000cf9565b925050602062000ddb8582860162000cf9565b9150509250929050565b600082825260208201905092915050565b7f556e697377617056323a20464f5242494444454e000000000000000000000000600082015250565b600062000e2e60148362000de5565b915062000e3b8262000df6565b602082019050919050565b6000602082019050818103600083015262000e618162000e1f565b9050919050565b7f556e697377617056323a204944454e544943414c5f4144445245535345530000600082015250565b600062000ea0601e8362000de5565b915062000ead8262000e68565b602082019050919050565b6000602082019050818103600083015262000ed38162000e91565b9050919050565b7f556e697377617056323a205a45524f5f41444452455353000000000000000000600082015250565b600062000f1260178362000de5565b915062000f1f8262000eda565b602082019050919050565b6000602082019050818103600083015262000f458162000f03565b9050919050565b7f556e697377617056323a20504149525f45584953545300000000000000000000600082015250565b600062000f8460168362000de5565b915062000f918262000f4c565b602082019050919050565b6000602082019050818103600083015262000fb78162000f75565b9050919050565b60008160601b9050919050565b600062000fd88262000fbe565b9050919050565b600062000fec8262000fcb565b9050919050565b62001008620010028262000bfd565b62000fdf565b82525050565b60006200101c828562000ff3565b6014820191506200102e828462000ff3565b6014820191508190509392505050565b600060408201905062001055600083018562000c11565b62001064602083018462000c11565b9392505050565b600060408201905062001082600083018562000c11565b62001091602083018462000cb1565b939250505056fe60806040526001600c553480156200001657600080fd5b506040518060400160405280601181526020017f4d6f636b556e69737761705632506169720000000000000000000000000000008152506040518060400160405280600581526020017f554e49563200000000000000000000000000000000000000000000000000000081525081600390816200009491906200036a565b508060049081620000a691906200036a565b50505033600560006101000a81548173ffffffffffffffffffffffffffffffffffffffff021916908373ffffffffffffffffffffffffffffffffffffffff16021790555062000451565b600081519050919050565b7f4e487b7100000000000000000000000000000000000000000000000000000000600052604160045260246000fd5b7f4e487b7100000000000000000000000000000000000000000000000000000000600052602260045260246000fd5b600060028204905060018216806200017257607f821691505b6020821081036200018857620001876200012a565b5b50919050565b60008190508160005260206000209050919050565b60006020601f8301049050919050565b600082821b905092915050565b600060088302620001f27fffffffffffffffffffffffffffffffffffffffffffffffffffffffffffffffff82620001b3565b620001fe8683620001b3565b95508019841693508086168417925050509392505050565b6000819050919050565b6000819050919050565b60006200024b620002456200023f8462000216565b62000220565b62000216565b9050919050565b6000819050919050565b62000267836200022a565b6200027f620002768262000252565b848454620001c0565b825550505050565b600090565b6200029662000287565b620002a38184846200025c565b505050565b5b81811015620002cb57620002bf6000826200028c565b600181019050620002a9565b5050565b601f8211156200031a57620002e4816200018e565b620002ef84620001a3565b81016020851015620002ff578190505b620003176200030e85620001a3565b830182620002a8565b50505b505050565b600082821c905092915050565b60006200033f600019846008026200031f565b1980831691505092915050565b60006200035a83836200032c565b9150826002028217905092915050565b6200037582620000f0565b67ffffffffffffffff811115620003915762000390620000fb565b5b6200039d825462000159565b620003aa828285620002cf565b600060209050601f831160018114620003e25760008415620003cd578287015190505b620003d985826200034c565b86555062000449565b601f198416620003f2866200018e565b60005b828110156200041c57848901518255600182019150602085019450602081019050620003f5565b868310156200043c578489015162000438601f8916826200032c565b8355505b6001600288020188555050505b505050505050565b61424a80620004616000396000f3fe608060405234801561001057600080fd5b50600436106101735760003560e01c80636a627842116100de578063a9059cbb11610097578063c45a015511610071578063c45a01551461047b578063d21220a714610499578063dd62ed3e146104b7578063fff6cae9146104e757610173565b8063a9059cbb14610411578063ba9a7a5614610441578063bc25cf771461045f57610173565b80636a6278421461031457806370a08231146103445780637464fc3d1461037457806389afcb441461039257806395d89b41146103c3578063a457c2d7146103e157610173565b806323b872dd1161013057806323b872dd1461023e578063313ce5671461026e578063395093511461028c578063485cc955146102bc5780635909c0d5146102d85780635a3d5493146102f657610173565b8063022c0d9f1461017857806306fdde03146101945780630902f1ac146101b2578063095ea7b3146101d25780630dfe16811461020257806318160ddd14610220575b600080fd5b610192600480360381019061018d9190612e0b565b6104f1565b005b61019c610b04565b6040516101a99190612f23565b60405180910390f35b6101ba610b96565b6040516101c993929190612f8d565b60405180910390f35b6101ec60048036038101906101e79190612fc4565b610bf3565b6040516101f9919061301f565b60405180910390f35b61020a610c16565b6040516102179190613049565b60405180910390f35b610228610c3c565b6040516102359190613073565b60405180910390f35b6102586004803603810190610253919061308e565b610c46565b604051610265919061301f565b60405180910390f35b610276610c75565b60405161028391906130fd565b60405180910390f35b6102a660048036038101906102a19190612fc4565b610c7e565b6040516102b3919061301f565b60405180910390f35b6102d660048036038101906102d19190613118565b610cb5565b005b6102e0610dcb565b6040516102ed9190613073565b60405180910390f35b6102fe610dd1565b60405161030b9190613073565b60405180910390f35b61032e60048036038101906103299190613158565b610dd7565b60405161033b9190613073565b60405180910390f35b61035e60048036038101906103599190613158565b6111e4565b60405161036b9190613073565b60405180910390f35b61037c61122c565b6040516103899190613073565b60405180910390f35b6103ac60048036038101906103a79190613158565b611232565b6040516103ba929190613185565b60405180910390f35b6103cb611696565b6040516103d89190612f23565b60405180910390f35b6103fb60048036038101906103f69190612fc4565b611728565b604051610408919061301f565b60405180910390f35b61042b60048036038101906104269190612fc4565b61179f565b604051610438919061301f565b60405180910390f35b6104496117c2565b6040516104569190613073565b60405180910390f35b61047960048036038101906104749190613158565b6117c8565b005b6104836119e6565b6040516104909190613049565b60405180910390f35b6104a1611a0c565b6040516104ae9190613049565b60405180910390f35b6104d160048036038101906104cc9190613118565b611a32565b6040516104de9190613073565b60405180910390f35b6104ef611ab9565b005b6001600c5414610536576040517f08c379a000000000000000000000000000000000000000000000000000000000815260040161052d906131fa565b60405180910390fd5b6000600c81905550600085118061054d5750600084115b61058c576040517f08c379a00000000000000000000000000000000000000000000000000000000081526004016105839061328c565b60405180910390fd5b600080610597610b96565b5091509150816dffffffffffffffffffffffffffff16871080156105ca5750806dffffffffffffffffffffffffffff1686105b610609576040517f08c379a00000000000000000000000000000000000000000000000000000000081526004016106009061331e565b60405180910390fd5b6000806000600660009054906101000a900473ffffffffffffffffffffffffffffffffffffffff1690506000600760009054906101000a900473ffffffffffffffffffffffffffffffffffffffff1690508173ffffffffffffffffffffffffffffffffffffffff168973ffffffffffffffffffffffffffffffffffffffff16141580156106c257508073ffffffffffffffffffffffffffffffffffffffff168973ffffffffffffffffffffffffffffffffffffffff1614155b610701576040517f08c379a00000000000000000000000000000000000000000000000000000000081526004016106f89061338a565b60405180910390fd5b60008b111561071657610715828a8d611c8a565b5b60008a111561072b5761072a818a8c611c8a565b5b60008888905011156107ab578873ffffffffffffffffffffffffffffffffffffffff166310d1e85c338d8d8c8c6040518663ffffffff1660e01b81526004016107789594939291906133f7565b600060405180830381600087803b15801561079257600080fd5b505af11580156107a6573d6000803e3d6000fd5b505050505b8173ffffffffffffffffffffffffffffffffffffffff166370a08231306040518263ffffffff1660e01b81526004016107e49190613049565b602060405180830381865afa158015610801573d6000803e3d6000fd5b505050506040513d601f19601f82011682018060405250810190610825919061345a565b93508073ffffffffffffffffffffffffffffffffffffffff166370a08231306040518263ffffffff1660e01b81526004016108609190613049565b602060405180830381865afa15801561087d573d6000803e3d6000fd5b505050506040513d601f19601f820116820180604052508101906108a1919061345a565b92505050600089856dffffffffffffffffffffffffffff166108c391906134b6565b83116108d05760006108f8565b89856dffffffffffffffffffffffffffff166108ec91906134b6565b836108f791906134b6565b5b9050600089856dffffffffffffffffffffffffffff1661091891906134b6565b831161092557600061094d565b89856dffffffffffffffffffffffffffff1661094191906134b6565b8361094c91906134b6565b5b9050600082118061095e5750600081115b61099d576040517f08c379a00000000000000000000000000000000000000000000000000000000081526004016109949061355c565b60405180910390fd5b60006003836109ac919061357c565b6103e8866109ba919061357c565b6109c491906134b6565b905060006003836109d5919061357c565b6103e8866109e3919061357c565b6109ed91906134b6565b9050620f4240876dffffffffffffffffffffffffffff16896dffffffffffffffffffffffffffff16610a1f919061357c565b610a29919061357c565b8183610a35919061357c565b1015610a76576040517f08c379a0000000000000000000000000000000000000000000000000000000008152600401610a6d9061360a565b60405180910390fd5b5050610a8484848888611e14565b8873ffffffffffffffffffffffffffffffffffffffff163373ffffffffffffffffffffffffffffffffffffffff167fd78ad95fa46c994b6551d0da85fc275fe613ce37657fb8d5e3d130840159d82284848f8f604051610ae7949392919061362a565b60405180910390a35050505050506001600c819055505050505050565b606060038054610b139061369e565b80601f0160208091040260200160405190810160405280929190818152602001828054610b3f9061369e565b8015610b8c5780601f10610b6157610100808354040283529160200191610b8c565b820191906000526020600020905b815481529060010190602001808311610b6f57829003601f168201915b5050505050905090565b6000806000600860009054906101000a90046dffffffffffffffffffffffffffff1692506008600e9054906101000a90046dffffffffffffffffffffffffffff1691506008601c9054906101000a900463ffffffff169050909192565b600080610bfe612108565b9050610c0b818585612110565b600191505092915050565b600660009054906101000a900473ffffffffffffffffffffffffffffffffffffffff1681565b6000600254905090565b600080610c51612108565b9050610c5e8582856122d9565b610c69858585612365565b60019150509392505050565b60006012905090565b600080610c89612108565b9050610caa818585610c9b8589611a32565b610ca591906136cf565b612110565b600191505092915050565b600560009054906101000a900473ffffffffffffffffffffffffffffffffffffffff1673ffffffffffffffffffffffffffffffffffffffff163373ffffffffffffffffffffffffffffffffffffffff1614610d45576040517f08c379a0000000000000000000000000000000000000000000000000000000008152600401610d3c9061374f565b60405180910390fd5b81600660006101000a81548173ffffffffffffffffffffffffffffffffffffffff021916908373ffffffffffffffffffffffffffffffffffffffff16021790555080600760006101000a81548173ffffffffffffffffffffffffffffffffffffffff021916908373ffffffffffffffffffffffffffffffffffffffff1602179055505050565b60095481565b600a5481565b60006001600c5414610e1e576040517f08c379a0000000000000000000000000000000000000000000000000000000008152600401610e15906131fa565b60405180910390fd5b6000600c81905550600080610e31610b96565b50915091506000600660009054906101000a900473ffffffffffffffffffffffffffffffffffffffff1673ffffffffffffffffffffffffffffffffffffffff166370a08231306040518263ffffffff1660e01b8152600401610e939190613049565b602060405180830381865afa158015610eb0573d6000803e3d6000fd5b505050506040513d601f19601f82011682018060405250810190610ed4919061345a565b90506000600760009054906101000a900473ffffffffffffffffffffffffffffffffffffffff1673ffffffffffffffffffffffffffffffffffffffff166370a08231306040518263ffffffff1660e01b8152600401610f339190613049565b602060405180830381865afa158015610f50573d6000803e3d6000fd5b505050506040513d601f19601f82011682018060405250810190610f74919061345a565b90506000846dffffffffffffffffffffffffffff1683610f9491906134b6565b90506000846dffffffffffffffffffffffffffff1683610fb491906134b6565b90506000610fc287876125db565b90506000610fce610c3c565b90506000810361105c57600084118015610fe85750600083115b611027576040517f08c379a000000000000000000000000000000000000000000000000000000000815260040161101e906137e1565b60405180910390fd5b6103e861103e8486611039919061357c565b61278e565b61104891906134b6565b985061105760006103e8612887565b6110b5565b6110b2886dffffffffffffffffffffffffffff16828661107c919061357c565b6110869190613830565b886dffffffffffffffffffffffffffff1683866110a3919061357c565b6110ad9190613830565b6129dd565b98505b600089116110f8576040517f08c379a00000000000000000000000000000000000000000000000000000000081526004016110ef906138d3565b60405180910390fd5b6111028a8a612887565b61110e86868a8a611e14565b811561117f576008600e9054906101000a90046dffffffffffffffffffffffffffff166dffffffffffffffffffffffffffff16600860009054906101000a90046dffffffffffffffffffffffffffff166dffffffffffffffffffffffffffff16611178919061357c565b600b819055505b3373ffffffffffffffffffffffffffffffffffffffff167f4c209b5fc8ad50758f13e2e1088ba56a560dff690a1c6fef26394f4c03821c4f85856040516111c7929190613185565b60405180910390a250505050505050506001600c81905550919050565b60008060008373ffffffffffffffffffffffffffffffffffffffff1673ffffffffffffffffffffffffffffffffffffffff168152602001908152602001600020549050919050565b600b5481565b6000806001600c541461127a576040517f08c379a0000000000000000000000000000000000000000000000000000000008152600401611271906131fa565b60405180910390fd5b6000600c8190555060008061128d610b96565b50915091506000600660009054906101000a900473ffffffffffffffffffffffffffffffffffffffff1690506000600760009054906101000a900473ffffffffffffffffffffffffffffffffffffffff16905060008273ffffffffffffffffffffffffffffffffffffffff166370a08231306040518263ffffffff1660e01b815260040161131b9190613049565b602060405180830381865afa158015611338573d6000803e3d6000fd5b505050506040513d601f19601f8201168201806040525081019061135c919061345a565b905060008273ffffffffffffffffffffffffffffffffffffffff166370a08231306040518263ffffffff1660e01b81526004016113999190613049565b602060405180830381865afa1580156113b6573d6000803e3d6000fd5b505050506040513d601f19601f820116820180604052508101906113da919061345a565b905060006113e7306111e4565b905060006113f588886125db565b90506000611401610c3c565b9050808584611410919061357c565b61141a9190613830565b9a50808484611429919061357c565b6114339190613830565b995060008b118015611445575060008a115b611484576040517f08c379a000000000000000000000000000000000000000000000000000000000815260040161147b90613965565b60405180910390fd5b61148e30846129f6565b611499878d8d611c8a565b6114a4868d8c611c8a565b8673ffffffffffffffffffffffffffffffffffffffff166370a08231306040518263ffffffff1660e01b81526004016114dd9190613049565b602060405180830381865afa1580156114fa573d6000803e3d6000fd5b505050506040513d601f19601f8201168201806040525081019061151e919061345a565b94508573ffffffffffffffffffffffffffffffffffffffff166370a08231306040518263ffffffff1660e01b81526004016115599190613049565b602060405180830381865afa158015611576573d6000803e3d6000fd5b505050506040513d601f19601f8201168201806040525081019061159a919061345a565b93506115a885858b8b611e14565b8115611619576008600e9054906101000a90046dffffffffffffffffffffffffffff166dffffffffffffffffffffffffffff16600860009054906101000a90046dffffffffffffffffffffffffffff166dffffffffffffffffffffffffffff16611612919061357c565b600b819055505b8b73ffffffffffffffffffffffffffffffffffffffff163373ffffffffffffffffffffffffffffffffffffffff167fdccd412f0b1252819cb1fd330b93224ca42612892bb3f4f789976e6d819364968d8d604051611678929190613185565b60405180910390a35050505050505050506001600c81905550915091565b6060600480546116a59061369e565b80601f01602080910402602001604051908101604052809291908181526020018280546116d19061369e565b801561171e5780601f106116f35761010080835404028352916020019161171e565b820191906000526020600020905b81548152906001019060200180831161170157829003601f168201915b5050505050905090565b600080611733612108565b905060006117418286611a32565b905083811015611786576040517f08c379a000000000000000000000000000000000000000000000000000000000815260040161177d906139f7565b60405180910390fd5b6117938286868403612110565b60019250505092915050565b6000806117aa612108565b90506117b7818585612365565b600191505092915050565b6103e881565b6001600c541461180d576040517f08c379a0000000000000000000000000000000000000000000000000000000008152600401611804906131fa565b60405180910390fd5b6000600c819055506000600660009054906101000a900473ffffffffffffffffffffffffffffffffffffffff1690506000600760009054906101000a900473ffffffffffffffffffffffffffffffffffffffff16905061191e8284600860009054906101000a90046dffffffffffffffffffffffffffff166dffffffffffffffffffffffffffff168573ffffffffffffffffffffffffffffffffffffffff166370a08231306040518263ffffffff1660e01b81526004016118ce9190613049565b602060405180830381865afa1580156118eb573d6000803e3d6000fd5b505050506040513d601f19601f8201168201806040525081019061190f919061345a565b61191991906134b6565b611c8a565b6119d981846008600e9054906101000a90046dffffffffffffffffffffffffffff166dffffffffffffffffffffffffffff168473ffffffffffffffffffffffffffffffffffffffff166370a08231306040518263ffffffff1660e01b81526004016119899190613049565b602060405180830381865afa1580156119a6573d6000803e3d6000fd5b505050506040513d601f19601f820116820180604052508101906119ca919061345a565b6119d491906134b6565b611c8a565b50506001600c8190555050565b600560009054906101000a900473ffffffffffffffffffffffffffffffffffffffff1681565b600760009054906101000a900473ffffffffffffffffffffffffffffffffffffffff1681565b6000600160008473ffffffffffffffffffffffffffffffffffffffff1673ffffffffffffffffffffffffffffffffffffffff16815260200190815260200160002060008373ffffffffffffffffffffffffffffffffffffffff1673ffffffffffffffffffffffffffffffffffffffff16815260200190815260200160002054905092915050565b6001600c5414611afe576040517f08c379a0000000000000000000000000000000000000000000000000000000008152600401611af5906131fa565b60405180910390fd5b6000600c81905550611c80600660009054906101000a900473ffffffffffffffffffffffffffffffffffffffff1673ffffffffffffffffffffffffffffffffffffffff166370a08231306040518263ffffffff1660e01b8152600401611b649190613049565b602060405180830381865afa158015611b81573d6000803e3d6000fd5b505050506040513d601f19601f82011682018060405250810190611ba5919061345a565b600760009054906101000a900473ffffffffffffffffffffffffffffffffffffffff1673ffffffffffffffffffffffffffffffffffffffff166370a08231306040518263ffffffff1660e01b8152600401611c009190613049565b602060405180830381865afa158015611c1d573d6000803e3d6000fd5b505050506040513d601f19601f82011682018060405250810190611c41919061345a565b600860009054906101000a90046dffffffffffffffffffffffffffff166008600e9054906101000a90046dffffffffffffffffffffffffffff16611e14565b6001600c81905550565b6000808473ffffffffffffffffffffffffffffffffffffffff166040518060400160405280601981526020017f7472616e7366657228616464726573732c75696e743235362900000000000000815250805190602001208585604051602401611cf4929190613a17565b604051602081830303815290604052907bffffffffffffffffffffffffffffffffffffffffffffffffffffffff19166020820180517bffffffffffffffffffffffffffffffffffffffffffffffffffffffff8381831617835250505050604051611d5e9190613a87565b6000604051808303816000865af19150503d8060008114611d9b576040519150601f19603f3d011682016040523d82523d6000602084013e611da0565b606091505b5091509150818015611dce5750600081511480611dcd575080806020019051810190611dcc9190613aca565b5b5b611e0d576040517f08c379a0000000000000000000000000000000000000000000000000000000008152600401611e0490613b43565b60405180910390fd5b5050505050565b6dffffffffffffffffffffffffffff80168411158015611e4457506dffffffffffffffffffffffffffff80168311155b611e83576040517f08c379a0000000000000000000000000000000000000000000000000000000008152600401611e7a90613baf565b60405180910390fd5b600064010000000042611e969190613bcf565b905060006008601c9054906101000a900463ffffffff1682611eb89190613c00565b905060008163ffffffff16118015611ee157506000846dffffffffffffffffffffffffffff1614155b8015611efe57506000836dffffffffffffffffffffffffffff1614155b15612004578063ffffffff16611f4385611f1786612bc3565b7bffffffffffffffffffffffffffffffffffffffffffffffffffffffff16612bf790919063ffffffff16565b7bffffffffffffffffffffffffffffffffffffffffffffffffffffffff16611f6b919061357c565b60096000828254611f7c91906136cf565b925050819055508063ffffffff16611fc384611f9787612bc3565b7bffffffffffffffffffffffffffffffffffffffffffffffffffffffff16612bf790919063ffffffff16565b7bffffffffffffffffffffffffffffffffffffffffffffffffffffffff16611feb919061357c565b600a6000828254611ffc91906136cf565b925050819055505b85600860006101000a8154816dffffffffffffffffffffffffffff02191690836dffffffffffffffffffffffffffff160217905550846008600e6101000a8154816dffffffffffffffffffffffffffff02191690836dffffffffffffffffffffffffffff160217905550816008601c6101000a81548163ffffffff021916908363ffffffff1602179055507f1c411e9a96e071241c2f21f7726b17ae89e3cab4c78be50e062b03a9fffbbad1600860009054906101000a90046dffffffffffffffffffffffffffff166008600e9054906101000a90046dffffffffffffffffffffffffffff166040516120f8929190613c38565b60405180910390a1505050505050565b600033905090565b600073ffffffffffffffffffffffffffffffffffffffff168373ffffffffffffffffffffffffffffffffffffffff160361217f576040517f08c379a000000000000000000000000000000000000000000000000000000000815260040161217690613cd3565b60405180910390fd5b600073ffffffffffffffffffffffffffffffffffffffff168273ffffffffffffffffffffffffffffffffffffffff16036121ee576040517f08c379a00000000000000000000000000000000000000000000000000000000081526004016121e590613d65565b60405180910390fd5b80600160008573ffffffffffffffffffffffffffffffffffffffff1673ffffffffffffffffffffffffffffffffffffffff16815260200190815260200160002060008473ffffffffffffffffffffffffffffffffffffffff1673ffffffffffffffffffffffffffffffffffffffff168152602001908152602001600020819055508173ffffffffffffffffffffffffffffffffffffffff168373ffffffffffffffffffffffffffffffffffffffff167f8c5be1e5ebec7d5bd14f71427d1e84f3dd0314c0f7b2291e5b200ac8c7c3b925836040516122cc9190613073565b60405180910390a3505050565b60006122e58484611a32565b90507fffffffffffffffffffffffffffffffffffffffffffffffffffffffffffffffff811461235f5781811015612351576040517f08c379a000000000000000000000000000000000000000000000000000000000815260040161234890613dd1565b60405180910390fd5b61235e8484848403612110565b5b50505050565b600073ffffffffffffffffffffffffffffffffffffffff168373ffffffffffffffffffffffffffffffffffffffff16036123d4576040517f08c379a00000000000000000000000000000000000000000000000000000000081526004016123cb90613e63565b60405180910390fd5b600073ffffffffffffffffffffffffffffffffffffffff168273ffffffffffffffffffffffffffffffffffffffff1603612443576040517f08c379a000000000000000000000000000000000000000000000000000000000815260040161243a90613ef5565b60405180910390fd5b61244e838383612c1d565b60008060008573ffffffffffffffffffffffffffffffffffffffff1673ffffffffffffffffffffffffffffffffffffffff168152602001908152602001600020549050818110156124d4576040517f08c379a00000000000000000000000000000000000000000000000000000000081526004016124cb90613f87565b60405180910390fd5b8181036000808673ffffffffffffffffffffffffffffffffffffffff1673ffffffffffffffffffffffffffffffffffffffff16815260200190815260200160002081905550816000808573ffffffffffffffffffffffffffffffffffffffff1673ffffffffffffffffffffffffffffffffffffffff168152602001908152602001600020600082825401925050819055508273ffffffffffffffffffffffffffffffffffffffff168473ffffffffffffffffffffffffffffffffffffffff167fddf252ad1be2c89b69c2b068fc378daa952ba7f163c4a11628f55a4df523b3ef846040516125c29190613073565b60405180910390a36125d5848484612c22565b50505050565b600080600560009054906101000a900473ffffffffffffffffffffffffffffffffffffffff1673ffffffffffffffffffffffffffffffffffffffff1663017e7e586040518163ffffffff1660e01b8152600401602060405180830381865afa15801561264b573d6000803e3d6000fd5b505050506040513d601f19601f8201168201806040525081019061266f9190613fbc565b9050600073ffffffffffffffffffffffffffffffffffffffff168173ffffffffffffffffffffffffffffffffffffffff16141591506000600b5490508215612774576000811461276f5760006126ef856dffffffffffffffffffffffffffff16876dffffffffffffffffffffffffffff166126ea919061357c565b61278e565b905060006126fc8361278e565b90508082111561276c576000818361271491906134b6565b61271c610c3c565b612726919061357c565b9050600082600585612738919061357c565b61274291906136cf565b9050600081836127529190613830565b90506000811115612768576127678782612887565b5b5050505b50505b612786565b60008114612785576000600b819055505b5b505092915050565b60008082036127a05760009050612882565b600060016127ad84612c27565b901c6001901b905060018184816127c7576127c6613801565b5b048201901c905060018184816127e0576127df613801565b5b048201901c905060018184816127f9576127f8613801565b5b048201901c9050600181848161281257612811613801565b5b048201901c9050600181848161282b5761282a613801565b5b048201901c9050600181848161284457612843613801565b5b048201901c9050600181848161285d5761285c613801565b5b048201901c905061287e8182858161287857612877613801565b5b046129dd565b9150505b919050565b600073ffffffffffffffffffffffffffffffffffffffff168273ffffffffffffffffffffffffffffffffffffffff16036128f6576040517f08c379a00000000000000000000000000000000000000000000000000000000081526004016128ed90614035565b60405180910390fd5b61290260008383612c1d565b806002600082825461291491906136cf565b92505081905550806000808473ffffffffffffffffffffffffffffffffffffffff1673ffffffffffffffffffffffffffffffffffffffff168152602001908152602001600020600082825401925050819055508173ffffffffffffffffffffffffffffffffffffffff16600073ffffffffffffffffffffffffffffffffffffffff167fddf252ad1be2c89b69c2b068fc378daa952ba7f163c4a11628f55a4df523b3ef836040516129c59190613073565b60405180910390a36129d960008383612c22565b5050565b60008183106129ec57816129ee565b825b905092915050565b600073ffffffffffffffffffffffffffffffffffffffff168273ffffffffffffffffffffffffffffffffffffffff1603612a65576040517f08c379a0000000000000000000000000000000000000000000000000000000008152600401612a5c906140c7565b60405180910390fd5b612a7182600083612c1d565b60008060008473ffffffffffffffffffffffffffffffffffffffff1673ffffffffffffffffffffffffffffffffffffffff16815260200190815260200160002054905081811015612af7576040517f08c379a0000000000000000000000000000000000000000000000000000000008152600401612aee90614159565b60405180910390fd5b8181036000808573ffffffffffffffffffffffffffffffffffffffff1673ffffffffffffffffffffffffffffffffffffffff1681526020019081526020016000208190555081600260008282540392505081905550600073ffffffffffffffffffffffffffffffffffffffff168373ffffffffffffffffffffffffffffffffffffffff167fddf252ad1be2c89b69c2b068fc378daa952ba7f163c4a11628f55a4df523b3ef84604051612baa9190613073565b60405180910390a3612bbe83600084612c22565b505050565b60006e010000000000000000000000000000826dffffffffffffffffffffffffffff16612bf091906141a1565b9050919050565b6000816dffffffffffffffffffffffffffff1683612c1591906141e3565b905092915050565b505050565b505050565b600080600090506000608084901c1115612c4957608083901c92506080810190505b6000604084901c1115612c6457604083901c92506040810190505b6000602084901c1115612c7f57602083901c92506020810190505b6000601084901c1115612c9a57601083901c92506010810190505b6000600884901c1115612cb557600883901c92506008810190505b6000600484901c1115612cd057600483901c92506004810190505b6000600284901c1115612ceb57600283901c92506002810190505b6000600184901c1115612cff576001810190505b80915050919050565b600080fd5b600080fd5b6000819050919050565b612d2581612d12565b8114612d3057600080fd5b50565b600081359050612d4281612d1c565b92915050565b600073ffffffffffffffffffffffffffffffffffffffff82169050919050565b6000612d7382612d48565b9050919050565b612d8381612d68565b8114612d8e57600080fd5b50565b600081359050612da081612d7a565b92915050565b600080fd5b600080fd5b600080fd5b60008083601f840112612dcb57612dca612da6565b5b8235905067ffffffffffffffff811115612de857612de7612dab565b5b602083019150836001820283011115612e0457612e03612db0565b5b9250929050565b600080600080600060808688031215612e2757612e26612d08565b5b6000612e3588828901612d33565b9550506020612e4688828901612d33565b9450506040612e5788828901612d91565b935050606086013567ffffffffffffffff811115612e7857612e77612d0d565b5b612e8488828901612db5565b92509250509295509295909350565b600081519050919050565b600082825260208201905092915050565b60005b83811015612ecd578082015181840152602081019050612eb2565b60008484015250505050565b6000601f19601f8301169050919050565b6000612ef582612e93565b612eff8185612e9e565b9350612f0f818560208601612eaf565b612f1881612ed9565b840191505092915050565b60006020820190508181036000830152612f3d8184612eea565b905092915050565b60006dffffffffffffffffffffffffffff82169050919050565b612f6881612f45565b82525050565b600063ffffffff82169050919050565b612f8781612f6e565b82525050565b6000606082019050612fa26000830186612f5f565b612faf6020830185612f5f565b612fbc6040830184612f7e565b949350505050565b60008060408385031215612fdb57612fda612d08565b5b6000612fe985828601612d91565b9250506020612ffa85828601612d33565b9150509250929050565b60008115159050919050565b61301981613004565b82525050565b60006020820190506130346000830184613010565b92915050565b61304381612d68565b82525050565b600060208201905061305e600083018461303a565b92915050565b61306d81612d12565b82525050565b60006020820190506130886000830184613064565b92915050565b6000806000606084860312156130a7576130a6612d08565b5b60006130b586828701612d91565b93505060206130c686828701612d91565b92505060406130d786828701612d33565b9150509250925092565b600060ff82169050919050565b6130f7816130e1565b82525050565b600060208201905061311260008301846130ee565b92915050565b6000806040838503121561312f5761312e612d08565b5b600061313d85828601612d91565b925050602061314e85828601612d91565b9150509250929050565b60006020828403121561316e5761316d612d08565b5b600061317c84828501612d91565b91505092915050565b600060408201905061319a6000830185613064565b6131a76020830184613064565b9392505050565b7f556e697377617056323a204c4f434b4544000000000000000000000000000000600082015250565b60006131e4601183612e9e565b91506131ef826131ae565b602082019050919050565b60006020820190508181036000830152613213816131d7565b9050919050565b7f556e697377617056323a20494e53554646494349454e545f4f55545055545f4160008201527f4d4f554e54000000000000000000000000000000000000000000000000000000602082015250565b6000613276602583612e9e565b91506132818261321a565b604082019050919050565b600060208201905081810360008301526132a581613269565b9050919050565b7f556e697377617056323a20494e53554646494349454e545f4c4951554944495460008201527f5900000000000000000000000000000000000000000000000000000000000000602082015250565b6000613308602183612e9e565b9150613313826132ac565b604082019050919050565b60006020820190508181036000830152613337816132fb565b9050919050565b7f556e697377617056323a20494e56414c49445f544f0000000000000000000000600082015250565b6000613374601583612e9e565b915061337f8261333e565b602082019050919050565b600060208201905081810360008301526133a381613367565b9050919050565b600082825260208201905092915050565b82818337600083830152505050565b60006133d683856133aa565b93506133e38385846133bb565b6133ec83612ed9565b840190509392505050565b600060808201905061340c600083018861303a565b6134196020830187613064565b6134266040830186613064565b81810360608301526134398184866133ca565b90509695505050505050565b60008151905061345481612d1c565b92915050565b6000602082840312156134705761346f612d08565b5b600061347e84828501613445565b91505092915050565b7f4e487b7100000000000000000000000000000000000000000000000000000000600052601160045260246000fd5b60006134c182612d12565b91506134cc83612d12565b92508282039050818111156134e4576134e3613487565b5b92915050565b7f556e697377617056323a20494e53554646494349454e545f494e5055545f414d60008201527f4f554e5400000000000000000000000000000000000000000000000000000000602082015250565b6000613546602483612e9e565b9150613551826134ea565b604082019050919050565b6000602082019050818103600083015261357581613539565b9050919050565b600061358782612d12565b915061359283612d12565b92508282026135a081612d12565b915082820484148315176135b7576135b6613487565b5b5092915050565b7f556e697377617056323a204b0000000000000000000000000000000000000000600082015250565b60006135f4600c83612e9e565b91506135ff826135be565b602082019050919050565b60006020820190508181036000830152613623816135e7565b9050919050565b600060808201905061363f6000830187613064565b61364c6020830186613064565b6136596040830185613064565b6136666060830184613064565b95945050505050565b7f4e487b7100000000000000000000000000000000000000000000000000000000600052602260045260246000fd5b600060028204905060018216806136b657607f821691505b6020821081036136c9576136c861366f565b5b50919050565b60006136da82612d12565b91506136e583612d12565b92508282019050808211156136fd576136fc613487565b5b92915050565b7f556e697377617056323a20464f5242494444454e000000000000000000000000600082015250565b6000613739601483612e9e565b915061374482613703565b602082019050919050565b600060208201905081810360008301526137688161372c565b9050919050565b7f556e697377617056323a20494e53554646494349454e545f494e495449414c5f60008201527f4c49515549444954590000000000000000000000000000000000000000000000602082015250565b60006137cb602983612e9e565b91506137d68261376f565b604082019050919050565b600060208201905081810360008301526137fa816137be565b9050919050565b7f4e487b7100000000000000000000000000000000000000000000000000000000600052601260045260246000fd5b600061383b82612d12565b915061384683612d12565b92508261385657613855613801565b5b828204905092915050565b7f556e697377617056323a20494e53554646494349454e545f4c4951554944495460008201527f595f4d494e544544000000000000000000000000000000000000000000000000602082015250565b60006138bd602883612e9e565b91506138c882613861565b604082019050919050565b600060208201905081810360008301526138ec816138b0565b9050919050565b7f556e697377617056323a20494e53554646494349454e545f4c4951554944495460008201527f595f4255524e4544000000000000000000000000000000000000000000000000602082015250565b600061394f602883612e9e565b915061395a826138f3565b604082019050919050565b6000602082019050818103600083015261397e81613942565b9050919050565b7f45524332303a2064656372656173656420616c6c6f77616e63652062656c6f7760008201527f207a65726f000000000000000000000000000000000000000000000000000000602082015250565b60006139e1602583612e9e565b91506139ec82613985565b604082019050919050565b60006020820190508181036000830152613a10816139d4565b9050919050565b6000604082019050613a2c600083018561303a565b613a396020830184613064565b9392505050565b600081519050919050565b600081905092915050565b6000613a6182613a40565b613a6b8185613a4b565b9350613a7b818560208601612eaf565b80840191505092915050565b6000613a938284613a56565b915081905092915050565b613aa781613004565b8114613ab257600080fd5b50565b600081519050613ac481613a9e565b92915050565b600060208284031215613ae057613adf612d08565b5b6000613aee84828501613ab5565b91505092915050565b7f556e697377617056323a205452414e534645525f4641494c4544000000000000600082015250565b6000613b2d601a83612e9e565b9150613b3882613af7565b602082019050919050565b60006020820190508181036000830152613b5c81613b20565b9050919050565b7f556e697377617056323a204f564552464c4f5700000000000000000000000000600082015250565b6000613b99601383612e9e565b9150613ba482613b63565b602082019050919050565b60006020820190508181036000830152613bc881613b8c565b9050919050565b6000613bda82612d12565b9150613be583612d12565b925082613bf557613bf4613801565b5b828206905092915050565b6000613c0b82612f6e565b9150613c1683612f6e565b9250828203905063ffffffff811115613c3257613c31613487565b5b92915050565b6000604082019050613c4d6000830185612f5f565b613c5a6020830184612f5f565b9392505050565b7f45524332303a20617070726f76652066726f6d20746865207a65726f2061646460008201527f7265737300000000000000000000000000000000000000000000000000000000602082015250565b6000613cbd602483612e9e565b9150613cc882613c61565b604082019050919050565b60006020820190508181036000830152613cec81613cb0565b9050919050565b7f45524332303a20617070726f766520746f20746865207a65726f20616464726560008201527f7373000000000000000000000000000000000000000000000000000000000000602082015250565b6000613d4f602283612e9e565b9150613d5a82613cf3565b604082019050919050565b60006020820190508181036000830152613d7e81613d42565b9050919050565b7f45524332303a20696e73756666696369656e7420616c6c6f77616e6365000000600082015250565b6000613dbb601d83612e9e565b9150613dc682613d85565b602082019050919050565b60006020820190508181036000830152613dea81613dae565b9050919050565b7f45524332303a207472616e736665722066726f6d20746865207a65726f20616460008201527f6472657373000000000000000000000000000000000000000000000000000000602082015250565b6000613e4d602583612e9e565b9150613e5882613df1565b604082019050919050565b60006020820190508181036000830152613e7c81613e40565b9050919050565b7f45524332303a207472616e7366657220746f20746865207a65726f206164647260008201527f6573730000000000000000000000000000000000000000000000000000000000602082015250565b6000613edf602383612e9e565b9150613eea82613e83565b604082019050919050565b60006020820190508181036000830152613f0e81613ed2565b9050919050565b7f45524332303a207472616e7366657220616d6f756e742065786365656473206260008201527f616c616e63650000000000000000000000000000000000000000000000000000602082015250565b6000613f71602683612e9e565b9150613f7c82613f15565b604082019050919050565b60006020820190508181036000830152613fa081613f64565b9050919050565b600081519050613fb681612d7a565b92915050565b600060208284031215613fd257613fd1612d08565b5b6000613fe084828501613fa7565b91505092915050565b7f45524332303a206d696e7420746f20746865207a65726f206164647265737300600082015250565b600061401f601f83612e9e565b915061402a82613fe9565b602082019050919050565b6000602082019050818103600083015261404e81614012565b9050919050565b7f45524332303a206275726e2066726f6d20746865207a65726f2061646472657360008201527f7300000000000000000000000000000000000000000000000000000000000000602082015250565b60006140b1602183612e9e565b91506140bc82614055565b604082019050919050565b600060208201905081810360008301526140e0816140a4565b9050919050565b7f45524332303a206275726e20616d6f756e7420657863656564732062616c616e60008201527f6365000000000000000000000000000000000000000000000000000000000000602082015250565b6000614143602283612e9e565b915061414e826140e7565b604082019050919050565b6000602082019050818103600083015261417281614136565b9050919050565b60007bffffffffffffffffffffffffffffffffffffffffffffffffffffffff82169050919050565b60006141ac82614179565b91506141b783614179565b92508282026141c581614179565b915082820484148315176141dc576141db613487565b5b5092915050565b60006141ee82614179565b91506141f983614179565b92508261420957614208613801565b5b82820490509291505056fea26469706673582212202d9a8176c5297da268f9acc78808b7791707c6c60f5dcf32512385b270e033d164736f6c63430008180033a26469706673582212204246d26c78810857c761fe0b6eeb130733a86e063a98c733bf4a54559abdcdbd64736f6c63430008180033",
  "linkReferences": {},
  "deployedLinkReferences": {}
}