{
  "_format": "hh-sol-artifact-1",
  "contractName": "StakingContract",
  "sourceName": "contracts/StakingContract.sol",
  "abi": [
    {
      "inputs": [
        {
          "internalType": "contract IERC20",
          "name": "_lpToken",
          "type": "address"
        },
        {
          "internalType": "contract IERC20",
          "name": "_rewardToken",
          "type": "address"
        }
      ],
      "stateMutability": "nonpayable",
      "type": "constructor"
    },
    {
      "anonymous": false,
      "inputs": [
        {
          "indexed": true,
          "internalType": "address",
          "name": "previousOwner",
          "type": "address"
        },
        {
          "indexed": true,
          "internalType": "address",
          "name": "newOwner",
          "type": "address"
        }
      ],
      "name": "OwnershipTransferred",
      "type": "event"
    },
    {
      "anonymous": false,
      "inputs": [
        {
          "indexed": false,
          "internalType": "address",
          "name": "account",
          "type": "address"
        }
      ],
      "name": "Paused",
      "type": "event"
    },
    {
      "anonymous": false,
      "inputs": [
        {
          "indexed": true,
          "internalType": "address",
          "name": "user",
          "type": "address"
        },
        {
          "indexed": false,
          "internalType": "uint256",
          "name": "reward",
          "type": "uint256"
        }
      ],
      "name": "RewardPaid",
      "type": "event"
    },
    {
      "anonymous": false,
      "inputs": [
        {
          "indexed": false,
          "internalType": "uint256",
          "name": "newRate",
          "type": "uint256"
        }
      ],
      "name": "RewardRateUpdated",
      "type": "event"
    },
    {
      "anonymous": false,
      "inputs": [
        {
          "indexed": true,
          "internalType": "address",
          "name": "user",
          "type": "address"
        },
        {
          "indexed": false,
          "internalType": "uint256",
          "name": "amount",
          "type": "uint256"
        }
      ],
      "name": "Staked",
      "type": "event"
    },
    {
      "anonymous": false,
      "inputs": [
        {
          "indexed": false,
          "internalType": "address",
          "name": "account",
          "type": "address"
        }
      ],
      "name": "Unpaused",
      "type": "event"
    },
    {
      "anonymous": false,
      "inputs": [
        {
          "indexed": true,
          "internalType": "address",
          "name": "user",
          "type": "address"
        },
        {
          "indexed": false,
          "internalType": "uint256",
          "name": "amount",
          "type": "uint256"
        }
      ],
      "name": "Withdrawn",
      "type": "event"
    },
    {
      "inputs": [],
      "name": "REWARD_PRECISION",
      "outputs": [
        {
          "internalType": "uint256",
          "name": "",
          "type": "uint256"
        }
      ],
      "stateMutability": "view",
      "type": "function"
    },
    {
      "inputs": [
        {
          "internalType": "address",
          "name": "account",
          "type": "address"
        }
      ],
      "name": "balanceOf",
      "outputs": [
        {
          "internalType": "uint256",
          "name": "",
          "type": "uint256"
        }
      ],
      "stateMutability": "view",
      "type": "function"
    },
    {
      "inputs": [
        {
          "internalType": "address",
          "name": "account",
          "type": "address"
        }
      ],
      "name": "earned",
      "outputs": [
        {
          "internalType": "uint256",
          "name": "",
          "type": "uint256"
        }
      ],
      "stateMutability": "view",
      "type": "function"
    },
    {
      "inputs": [],
      "name": "emergencyWithdraw",
      "outputs": [],
      "stateMutability": "nonpayable",
      "type": "function"
    },
    {
      "inputs": [],
      "name": "exit",
      "outputs": [],
      "stateMutability": "nonpayable",
      "type": "function"
    },
    {
      "inputs": [],
      "name": "getReward",
      "outputs": [],
      "stateMutability": "nonpayable",
      "type": "function"
    },
    {
      "inputs": [],
      "name": "lastUpdateTime",
      "outputs": [
        {
          "internalType": "uint256",
          "name": "",
          "type": "uint256"
        }
      ],
      "stateMutability": "view",
      "type": "function"
    },
    {
      "inputs": [],
      "name": "lpToken",
      "outputs": [
        {
          "internalType": "contract IERC20",
          "name": "",
          "type": "address"
        }
      ],
      "stateMutability": "view",
      "type": "function"
    },
    {
      "inputs": [],
      "name": "owner",
      "outputs": [
        {
          "internalType": "address",
          "name": "",
          "type": "address"
        }
      ],
      "stateMutability": "view",
      "type": "function"
    },
    {
      "inputs": [],
      "name": "pause",
      "outputs": [],
      "stateMutability": "nonpayable",
      "type": "function"
    },
    {
      "inputs": [],
      "name": "paused",
      "outputs": [
        {
          "internalType": "bool",
          "name": "",
          "type": "bool"
        }
      ],
      "stateMutability": "view",
      "type": "function"
    },
    {
      "inputs": [],
      "name": "renounceOwnership",
      "outputs": [],
      "stateMutability": "nonpayable",
      "type": "function"
    },
    {
      "inputs": [],
      "name": "rewardPerToken",
      "outputs": [
        {
          "internalType": "uint256",
          "name": "",
          "type": "uint256"
        }
      ],
      "stateMutability": "view",
      "type": "function"
    },
    {
      "inputs": [],
      "name": "rewardPerTokenStored",
      "outputs": [
        {
          "internalType": "uint256",
          "name": "",
          "type": "uint256"
        }
      ],
      "stateMutability": "view",
      "type": "function"
    },
    {
      "inputs": [],
      "name": "rewardRate",
      "outputs": [
        {
          "internalType": "uint256",
          "name": "",
          "type": "uint256"
        }
      ],
      "stateMutability": "view",
      "type": "function"
    },
    {
      "inputs": [],
      "name": "rewardToken",
      "outputs": [
        {
          "internalType": "contract IERC20",
          "name": "",
          "type": "address"
        }
      ],
      "stateMutability": "view",
      "type": "function"
    },
    {
      "inputs": [
        {
          "internalType": "address",
          "name": "",
          "type": "address"
        }
      ],
      "name": "rewards",
      "outputs": [
        {
          "internalType": "uint256",
          "name": "",
          "type": "uint256"
        }
      ],
      "stateMutability": "view",
      "type": "function"
    },
    {
      "inputs": [
        {
          "internalType": "uint256",
          "name": "_rewardRate",
          "type": "uint256"
        }
      ],
      "name": "setRewardRate",
      "outputs": [],
      "stateMutability": "nonpayable",
      "type": "function"
    },
    {
      "inputs": [
        {
          "internalType": "uint256",
          "name": "amount",
          "type": "uint256"
        }
      ],
      "name": "stake",
      "outputs": [],
      "stateMutability": "nonpayable",
      "type": "function"
    },
    {
      "inputs": [],
      "name": "strategyContract",
      "outputs": [
        {
          "internalType": "address",
          "name": "",
          "type": "address"
        }
      ],
      "stateMutability": "view",
      "type": "function"
    },
    {
      "inputs": [],
      "name": "totalSupply",
      "outputs": [
        {
          "internalType": "uint256",
          "name": "",
          "type": "uint256"
        }
      ],
      "stateMutability": "view",
      "type": "function"
    },
    {
      "inputs": [
        {
          "internalType": "address",
          "name": "newOwner",
          "type": "address"
        }
      ],
      "name": "transferOwnership",
      "outputs": [],
      "stateMutability": "nonpayable",
      "type": "function"
    },
    {
      "inputs": [],
      "name": "unpause",
      "outputs": [],
      "stateMutability": "nonpayable",
      "type": "function"
    },
    {
      "inputs": [
        {
          "internalType": "address",
          "name": "",
          "type": "address"
        }
      ],
      "name": "userRewardPerTokenPaid",
      "outputs": [
        {
          "internalType": "uint256",
          "name": "",
          "type": "uint256"
        }
      ],
      "stateMutability": "view",
      "type": "function"
    },
    {
      "inputs": [
        {
          "internalType": "uint256",
          "name": "amount",
          "type": "uint256"
        }
      ],
      "name": "withdraw",
      "outputs": [],
      "stateMutability": "nonpayable",
      "type": "function"
    }
  ],
  "bytecode": "0x60806040523480156200001157600080fd5b506040516200286c3803806200286c833981810160405281019062000037919062000375565b60016000819055506200005f620000536200022960201b60201c565b6200023160201b60201c565b6000600160146101000a81548160ff021916908315150217905550600073ffffffffffffffffffffffffffffffffffffffff168273ffffffffffffffffffffffffffffffffffffffff1603620000ec576040517f08c379a0000000000000000000000000000000000000000000000000000000008152600401620000e3906200041d565b60405180910390fd5b600073ffffffffffffffffffffffffffffffffffffffff168173ffffffffffffffffffffffffffffffffffffffff16036200015e576040517f08c379a000000000000000000000000000000000000000000000000000000000815260040162000155906200048f565b60405180910390fd5b81600260006101000a81548173ffffffffffffffffffffffffffffffffffffffff021916908373ffffffffffffffffffffffffffffffffffffffff16021790555080600360006101000a81548173ffffffffffffffffffffffffffffffffffffffff021916908373ffffffffffffffffffffffffffffffffffffffff16021790555033600460006101000a81548173ffffffffffffffffffffffffffffffffffffffff021916908373ffffffffffffffffffffffffffffffffffffffff1602179055505050620004b1565b600033905090565b6000600160009054906101000a900473ffffffffffffffffffffffffffffffffffffffff16905081600160006101000a81548173ffffffffffffffffffffffffffffffffffffffff021916908373ffffffffffffffffffffffffffffffffffffffff1602179055508173ffffffffffffffffffffffffffffffffffffffff168173ffffffffffffffffffffffffffffffffffffffff167f8be0079c531659141344cd1fd0a4f28419497f9722a3daafe3b4186f6b6457e060405160405180910390a35050565b600080fd5b600073ffffffffffffffffffffffffffffffffffffffff82169050919050565b60006200032982620002fc565b9050919050565b60006200033d826200031c565b9050919050565b6200034f8162000330565b81146200035b57600080fd5b50565b6000815190506200036f8162000344565b92915050565b600080604083850312156200038f576200038e620002f7565b5b60006200039f858286016200035e565b9250506020620003b2858286016200035e565b9150509250929050565b600082825260208201905092915050565b7f496e76616c6964204c5020746f6b656e20616464726573730000000000000000600082015250565b600062000405601883620003bc565b91506200041282620003cd565b602082019050919050565b600060208201905081810360008301526200043881620003f6565b9050919050565b7f496e76616c69642072657761726420746f6b656e206164647265737300000000600082015250565b600062000477601c83620003bc565b915062000484826200043f565b602082019050919050565b60006020820190508181036000830152620004aa8162000468565b9050919050565b6123ab80620004c16000396000f3fe608060405234801561001057600080fd5b50600436106101725760003560e01c80637b0a47ee116100de578063c8f33c9111610097578063df136d6511610071578063df136d65146103cb578063e9fad8ee146103e9578063f2fde38b146103f3578063f7c618c11461040f57610172565b8063c8f33c9114610385578063cd3daf9d146103a3578063db2e21bc146103c157610172565b80637b0a47ee146102d75780638456cb59146102f55780638b876347146102ff5780638da5cb5b1461032f5780639e447fc61461034d578063a694fc3a1461036957610172565b80633d6aa5e1116101305780633d6aa5e1146102395780633f4ba83a146102575780635c975abb146102615780635fcbd2851461027f57806370a082311461029d578063715018a6146102cd57610172565b80628cc262146101775780630700037d146101a75780630e04d23a146101d757806318160ddd146101f55780632e1a7d4d146102135780633d18b9121461022f575b600080fd5b610191600480360381019061018c9190611961565b61042d565b60405161019e91906119a7565b60405180910390f35b6101c160048036038101906101bc9190611961565b61054b565b6040516101ce91906119a7565b60405180910390f35b6101df610563565b6040516101ec91906119d1565b60405180910390f35b6101fd610589565b60405161020a91906119a7565b60405180910390f35b61022d60048036038101906102289190611a18565b610593565b005b61023761081a565b005b610241610a41565b60405161024e91906119a7565b60405180910390f35b61025f610a4d565b005b610269610a5f565b6040516102769190611a60565b60405180910390f35b610287610a76565b6040516102949190611ada565b60405180910390f35b6102b760048036038101906102b29190611961565b610a9c565b6040516102c491906119a7565b60405180910390f35b6102d5610ae5565b005b6102df610af9565b6040516102ec91906119a7565b60405180910390f35b6102fd610aff565b005b61031960048036038101906103149190611961565b610b11565b60405161032691906119a7565b60405180910390f35b610337610b29565b60405161034491906119d1565b60405180910390f35b61036760048036038101906103629190611a18565b610b53565b005b610383600480360381019061037e9190611a18565b610bdf565b005b61038d610e68565b60405161039a91906119a7565b60405180910390f35b6103ab610e6e565b6040516103b891906119a7565b60405180910390f35b6103c9610ef4565b005b6103d36110fc565b6040516103e091906119a7565b60405180910390f35b6103f1611102565b005b61040d60048036038101906104089190611961565b61115c565b005b6104176111df565b6040516104249190611ada565b60405180910390f35b6000610544600960008473ffffffffffffffffffffffffffffffffffffffff1673ffffffffffffffffffffffffffffffffffffffff16815260200190815260200160002054610536670de0b6b3a76400006105286104da600860008973ffffffffffffffffffffffffffffffffffffffff1673ffffffffffffffffffffffffffffffffffffffff168152602001908152602001600020546104cc610e6e565b61120590919063ffffffff16565b600a60008973ffffffffffffffffffffffffffffffffffffffff1673ffffffffffffffffffffffffffffffffffffffff1681526020019081526020016000205461121b90919063ffffffff16565b61123190919063ffffffff16565b61124790919063ffffffff16565b9050919050565b60096020528060005260406000206000915090505481565b600460009054906101000a900473ffffffffffffffffffffffffffffffffffffffff1681565b6000600b54905090565b3361059c610e6e565b60078190555042600681905550600073ffffffffffffffffffffffffffffffffffffffff168173ffffffffffffffffffffffffffffffffffffffff1614610670576105e68161042d565b600960008373ffffffffffffffffffffffffffffffffffffffff1673ffffffffffffffffffffffffffffffffffffffff16815260200190815260200160002081905550600754600860008373ffffffffffffffffffffffffffffffffffffffff1673ffffffffffffffffffffffffffffffffffffffff168152602001908152602001600020819055505b61067861125d565b6106806112a7565b600082116106c3576040517f08c379a00000000000000000000000000000000000000000000000000000000081526004016106ba90611b52565b60405180910390fd5b6106d882600b5461120590919063ffffffff16565b600b8190555061073082600a60003373ffffffffffffffffffffffffffffffffffffffff1673ffffffffffffffffffffffffffffffffffffffff1681526020019081526020016000205461120590919063ffffffff16565b600a60003373ffffffffffffffffffffffffffffffffffffffff1673ffffffffffffffffffffffffffffffffffffffff168152602001908152602001600020819055506107c03383600260009054906101000a900473ffffffffffffffffffffffffffffffffffffffff1673ffffffffffffffffffffffffffffffffffffffff166112f69092919063ffffffff16565b3373ffffffffffffffffffffffffffffffffffffffff167f7084f5476618d8e60b11ef0d7d3f06914655adb8793e28ff7f018d4c76d505d58360405161080691906119a7565b60405180910390a261081661137c565b5050565b33610823610e6e565b60078190555042600681905550600073ffffffffffffffffffffffffffffffffffffffff168173ffffffffffffffffffffffffffffffffffffffff16146108f75761086d8161042d565b600960008373ffffffffffffffffffffffffffffffffffffffff1673ffffffffffffffffffffffffffffffffffffffff16815260200190815260200160002081905550600754600860008373ffffffffffffffffffffffffffffffffffffffff1673ffffffffffffffffffffffffffffffffffffffff168152602001908152602001600020819055505b6108ff61125d565b6109076112a7565b6000600960003373ffffffffffffffffffffffffffffffffffffffff1673ffffffffffffffffffffffffffffffffffffffff1681526020019081526020016000205490506000811115610a35576000600960003373ffffffffffffffffffffffffffffffffffffffff1673ffffffffffffffffffffffffffffffffffffffff168152602001908152602001600020819055506109e63382600360009054906101000a900473ffffffffffffffffffffffffffffffffffffffff1673ffffffffffffffffffffffffffffffffffffffff166112f69092919063ffffffff16565b3373ffffffffffffffffffffffffffffffffffffffff167fe2403640ba68fed3a2f88b7557551d1993f84b99bb10ff833f0cf8db0c5e048682604051610a2c91906119a7565b60405180910390a25b50610a3e61137c565b50565b670de0b6b3a764000081565b610a55611386565b610a5d611404565b565b6000600160149054906101000a900460ff16905090565b600260009054906101000a900473ffffffffffffffffffffffffffffffffffffffff1681565b6000600a60008373ffffffffffffffffffffffffffffffffffffffff1673ffffffffffffffffffffffffffffffffffffffff168152602001908152602001600020549050919050565b610aed611386565b610af76000611467565b565b60055481565b610b07611386565b610b0f61152d565b565b60086020528060005260406000206000915090505481565b6000600160009054906101000a900473ffffffffffffffffffffffffffffffffffffffff16905090565b610b5b611386565b60008111610b9e576040517f08c379a0000000000000000000000000000000000000000000000000000000008152600401610b9590611be4565b60405180910390fd5b806005819055507f41d466ebd06fb97e7786086ac8b69b7eb7da798592036251291d34e9791cde0181604051610bd491906119a7565b60405180910390a150565b33610be8610e6e565b60078190555042600681905550600073ffffffffffffffffffffffffffffffffffffffff168173ffffffffffffffffffffffffffffffffffffffff1614610cbc57610c328161042d565b600960008373ffffffffffffffffffffffffffffffffffffffff1673ffffffffffffffffffffffffffffffffffffffff16815260200190815260200160002081905550600754600860008373ffffffffffffffffffffffffffffffffffffffff1673ffffffffffffffffffffffffffffffffffffffff168152602001908152602001600020819055505b610cc461125d565b610ccc6112a7565b60008211610d0f576040517f08c379a0000000000000000000000000000000000000000000000000000000008152600401610d0690611c50565b60405180910390fd5b610d2482600b5461124790919063ffffffff16565b600b81905550610d7c82600a60003373ffffffffffffffffffffffffffffffffffffffff1673ffffffffffffffffffffffffffffffffffffffff1681526020019081526020016000205461124790919063ffffffff16565b600a60003373ffffffffffffffffffffffffffffffffffffffff1673ffffffffffffffffffffffffffffffffffffffff16815260200190815260200160002081905550610e0e333084600260009054906101000a900473ffffffffffffffffffffffffffffffffffffffff1673ffffffffffffffffffffffffffffffffffffffff1661158f909392919063ffffffff16565b3373ffffffffffffffffffffffffffffffffffffffff167f9e71bc8eea02a63969f509818f2dafb9254532904319f9dbda79b67bd34a5f3d83604051610e5491906119a7565b60405180910390a2610e6461137c565b5050565b60065481565b600080600b5403610e83576007549050610ef1565b610eee610edd600b54610ecf670de0b6b3a7640000610ec1600554610eb36006544261120590919063ffffffff16565b61121b90919063ffffffff16565b61121b90919063ffffffff16565b61123190919063ffffffff16565b60075461124790919063ffffffff16565b90505b90565b610efc611386565b6000600260009054906101000a900473ffffffffffffffffffffffffffffffffffffffff1673ffffffffffffffffffffffffffffffffffffffff166370a08231306040518263ffffffff1660e01b8152600401610f5991906119d1565b602060405180830381865afa158015610f76573d6000803e3d6000fd5b505050506040513d601f19601f82011682018060405250810190610f9a9190611c85565b90506000811115610ffa57610ff9610fb0610b29565b82600260009054906101000a900473ffffffffffffffffffffffffffffffffffffffff1673ffffffffffffffffffffffffffffffffffffffff166112f69092919063ffffffff16565b5b6000600360009054906101000a900473ffffffffffffffffffffffffffffffffffffffff1673ffffffffffffffffffffffffffffffffffffffff166370a08231306040518263ffffffff1660e01b815260040161105791906119d1565b602060405180830381865afa158015611074573d6000803e3d6000fd5b505050506040513d601f19601f820116820180604052508101906110989190611c85565b905060008111156110f8576110f76110ae610b29565b82600360009054906101000a900473ffffffffffffffffffffffffffffffffffffffff1673ffffffffffffffffffffffffffffffffffffffff166112f69092919063ffffffff16565b5b5050565b60075481565b61110a61125d565b611152600a60003373ffffffffffffffffffffffffffffffffffffffff1673ffffffffffffffffffffffffffffffffffffffff16815260200190815260200160002054610593565b61115a61081a565b565b611164611386565b600073ffffffffffffffffffffffffffffffffffffffff168173ffffffffffffffffffffffffffffffffffffffff16036111d3576040517f08c379a00000000000000000000000000000000000000000000000000000000081526004016111ca90611d24565b60405180910390fd5b6111dc81611467565b50565b600360009054906101000a900473ffffffffffffffffffffffffffffffffffffffff1681565b600081836112139190611d73565b905092915050565b600081836112299190611da7565b905092915050565b6000818361123f9190611e18565b905092915050565b600081836112559190611e49565b905092915050565b611265610a5f565b156112a5576040517f08c379a000000000000000000000000000000000000000000000000000000000815260040161129c90611ec9565b60405180910390fd5b565b6002600054036112ec576040517f08c379a00000000000000000000000000000000000000000000000000000000081526004016112e390611f35565b60405180910390fd5b6002600081905550565b6113778363a9059cbb60e01b8484604051602401611315929190611f55565b604051602081830303815290604052907bffffffffffffffffffffffffffffffffffffffffffffffffffffffff19166020820180517bffffffffffffffffffffffffffffffffffffffffffffffffffffffff8381831617835250505050611618565b505050565b6001600081905550565b61138e6116e0565b73ffffffffffffffffffffffffffffffffffffffff166113ac610b29565b73ffffffffffffffffffffffffffffffffffffffff1614611402576040517f08c379a00000000000000000000000000000000000000000000000000000000081526004016113f990611fca565b60405180910390fd5b565b61140c6116e8565b6000600160146101000a81548160ff0219169083151502179055507f5db9ee0a495bf2e6ff9c91a7834c1ba4fdd244a5e8aa4e537bd38aeae4b073aa6114506116e0565b60405161145d91906119d1565b60405180910390a1565b6000600160009054906101000a900473ffffffffffffffffffffffffffffffffffffffff16905081600160006101000a81548173ffffffffffffffffffffffffffffffffffffffff021916908373ffffffffffffffffffffffffffffffffffffffff1602179055508173ffffffffffffffffffffffffffffffffffffffff168173ffffffffffffffffffffffffffffffffffffffff167f8be0079c531659141344cd1fd0a4f28419497f9722a3daafe3b4186f6b6457e060405160405180910390a35050565b61153561125d565b60018060146101000a81548160ff0219169083151502179055507f62e78cea01bee320cd4e420270b5ea74000d11b0c9f74754ebdbfc544b05a2586115786116e0565b60405161158591906119d1565b60405180910390a1565b611612846323b872dd60e01b8585856040516024016115b093929190611fea565b604051602081830303815290604052907bffffffffffffffffffffffffffffffffffffffffffffffffffffffff19166020820180517bffffffffffffffffffffffffffffffffffffffffffffffffffffffff8381831617835250505050611618565b50505050565b600061167a826040518060400160405280602081526020017f5361666545524332303a206c6f772d6c6576656c2063616c6c206661696c65648152508573ffffffffffffffffffffffffffffffffffffffff166117319092919063ffffffff16565b905060008151148061169c57508080602001905181019061169b919061204d565b5b6116db576040517f08c379a00000000000000000000000000000000000000000000000000000000081526004016116d2906120ec565b60405180910390fd5b505050565b600033905090565b6116f0610a5f565b61172f576040517f08c379a000000000000000000000000000000000000000000000000000000000815260040161172690612158565b60405180910390fd5b565b60606117408484600085611749565b90509392505050565b60608247101561178e576040517f08c379a0000000000000000000000000000000000000000000000000000000008152600401611785906121ea565b60405180910390fd5b6000808673ffffffffffffffffffffffffffffffffffffffff1685876040516117b7919061227b565b60006040518083038185875af1925050503d80600081146117f4576040519150601f19603f3d011682016040523d82523d6000602084013e6117f9565b606091505b509150915061180a87838387611816565b92505050949350505050565b60608315611878576000835103611870576118308561188b565b61186f576040517f08c379a0000000000000000000000000000000000000000000000000000000008152600401611866906122de565b60405180910390fd5b5b829050611883565b61188283836118ae565b5b949350505050565b6000808273ffffffffffffffffffffffffffffffffffffffff163b119050919050565b6000825111156118c15781518083602001fd5b806040517f08c379a00000000000000000000000000000000000000000000000000000000081526004016118f59190612353565b60405180910390fd5b600080fd5b600073ffffffffffffffffffffffffffffffffffffffff82169050919050565b600061192e82611903565b9050919050565b61193e81611923565b811461194957600080fd5b50565b60008135905061195b81611935565b92915050565b600060208284031215611977576119766118fe565b5b60006119858482850161194c565b91505092915050565b6000819050919050565b6119a18161198e565b82525050565b60006020820190506119bc6000830184611998565b92915050565b6119cb81611923565b82525050565b60006020820190506119e660008301846119c2565b92915050565b6119f58161198e565b8114611a0057600080fd5b50565b600081359050611a12816119ec565b92915050565b600060208284031215611a2e57611a2d6118fe565b5b6000611a3c84828501611a03565b91505092915050565b60008115159050919050565b611a5a81611a45565b82525050565b6000602082019050611a756000830184611a51565b92915050565b6000819050919050565b6000611aa0611a9b611a9684611903565b611a7b565b611903565b9050919050565b6000611ab282611a85565b9050919050565b6000611ac482611aa7565b9050919050565b611ad481611ab9565b82525050565b6000602082019050611aef6000830184611acb565b92915050565b600082825260208201905092915050565b7f43616e6e6f742077697468647261772030000000000000000000000000000000600082015250565b6000611b3c601183611af5565b9150611b4782611b06565b602082019050919050565b60006020820190508181036000830152611b6b81611b2f565b9050919050565b7f5265776172642072617465206d7573742062652067726561746572207468616e60008201527f2030000000000000000000000000000000000000000000000000000000000000602082015250565b6000611bce602283611af5565b9150611bd982611b72565b604082019050919050565b60006020820190508181036000830152611bfd81611bc1565b9050919050565b7f43616e6e6f74207374616b652030000000000000000000000000000000000000600082015250565b6000611c3a600e83611af5565b9150611c4582611c04565b602082019050919050565b60006020820190508181036000830152611c6981611c2d565b9050919050565b600081519050611c7f816119ec565b92915050565b600060208284031215611c9b57611c9a6118fe565b5b6000611ca984828501611c70565b91505092915050565b7f4f776e61626c653a206e6577206f776e657220697320746865207a65726f206160008201527f6464726573730000000000000000000000000000000000000000000000000000602082015250565b6000611d0e602683611af5565b9150611d1982611cb2565b604082019050919050565b60006020820190508181036000830152611d3d81611d01565b9050919050565b7f4e487b7100000000000000000000000000000000000000000000000000000000600052601160045260246000fd5b6000611d7e8261198e565b9150611d898361198e565b9250828203905081811115611da157611da0611d44565b5b92915050565b6000611db28261198e565b9150611dbd8361198e565b9250828202611dcb8161198e565b91508282048414831517611de257611de1611d44565b5b5092915050565b7f4e487b7100000000000000000000000000000000000000000000000000000000600052601260045260246000fd5b6000611e238261198e565b9150611e2e8361198e565b925082611e3e57611e3d611de9565b5b828204905092915050565b6000611e548261198e565b9150611e5f8361198e565b9250828201905080821115611e7757611e76611d44565b5b92915050565b7f5061757361626c653a2070617573656400000000000000000000000000000000600082015250565b6000611eb3601083611af5565b9150611ebe82611e7d565b602082019050919050565b60006020820190508181036000830152611ee281611ea6565b9050919050565b7f5265656e7472616e637947756172643a207265656e7472616e742063616c6c00600082015250565b6000611f1f601f83611af5565b9150611f2a82611ee9565b602082019050919050565b60006020820190508181036000830152611f4e81611f12565b9050919050565b6000604082019050611f6a60008301856119c2565b611f776020830184611998565b9392505050565b7f4f776e61626c653a2063616c6c6572206973206e6f7420746865206f776e6572600082015250565b6000611fb4602083611af5565b9150611fbf82611f7e565b602082019050919050565b60006020820190508181036000830152611fe381611fa7565b9050919050565b6000606082019050611fff60008301866119c2565b61200c60208301856119c2565b6120196040830184611998565b949350505050565b61202a81611a45565b811461203557600080fd5b50565b60008151905061204781612021565b92915050565b600060208284031215612063576120626118fe565b5b600061207184828501612038565b91505092915050565b7f5361666545524332303a204552433230206f7065726174696f6e20646964206e60008201527f6f74207375636365656400000000000000000000000000000000000000000000602082015250565b60006120d6602a83611af5565b91506120e18261207a565b604082019050919050565b60006020820190508181036000830152612105816120c9565b9050919050565b7f5061757361626c653a206e6f7420706175736564000000000000000000000000600082015250565b6000612142601483611af5565b915061214d8261210c565b602082019050919050565b6000602082019050818103600083015261217181612135565b9050919050565b7f416464726573733a20696e73756666696369656e742062616c616e636520666f60008201527f722063616c6c0000000000000000000000000000000000000000000000000000602082015250565b60006121d4602683611af5565b91506121df82612178565b604082019050919050565b60006020820190508181036000830152612203816121c7565b9050919050565b600081519050919050565b600081905092915050565b60005b8381101561223e578082015181840152602081019050612223565b60008484015250505050565b60006122558261220a565b61225f8185612215565b935061226f818560208601612220565b80840191505092915050565b6000612287828461224a565b915081905092915050565b7f416464726573733a2063616c6c20746f206e6f6e2d636f6e7472616374000000600082015250565b60006122c8601d83611af5565b91506122d382612292565b602082019050919050565b600060208201905081810360008301526122f7816122bb565b9050919050565b600081519050919050565b6000601f19601f8301169050919050565b6000612325826122fe565b61232f8185611af5565b935061233f818560208601612220565b61234881612309565b840191505092915050565b6000602082019050818103600083015261236d818461231a565b90509291505056fea2646970667358221220ce4865ae4c01a2f8a6f306ba1c38e64d64696e9fbbae2ba137108183bd35a5e064736f6c63430008180033",
  "linkReferences": {},
  "deployedLinkReferences": {}
}