{
  "_format": "hh-sol-artifact-1",
  "contractName": "MockUniswapV2Router",
  "sourceName": "contracts/mocks/MockUniswapV2Router.sol",
  "abi": [
    {
      "inputs": [
        {
          "internalType": "address",
          "name": "_factory",
          "type": "address"
        },
        {
          "internalType": "address",
          "name": "_WETH",
          "type": "address"
        }
      ],
      "stateMutability": "nonpayable",
      "type": "constructor"
    },
    {
      "inputs": [],
      "name": "WETH",
      "outputs": [
        {
          "internalType": "address",
          "name": "",
          "type": "address"
        }
      ],
      "stateMutability": "view",
      "type": "function"
    },
    {
      "inputs": [
        {
          "internalType": "address",
          "name": "tokenA",
          "type": "address"
        },
        {
          "internalType": "address",
          "name": "tokenB",
          "type": "address"
        },
        {
          "internalType": "uint256",
          "name": "amountADesired",
          "type": "uint256"
        },
        {
          "internalType": "uint256",
          "name": "amountBDesired",
          "type": "uint256"
        },
        {
          "internalType": "uint256",
          "name": "amountAMin",
          "type": "uint256"
        },
        {
          "internalType": "uint256",
          "name": "amountBMin",
          "type": "uint256"
        },
        {
          "internalType": "address",
          "name": "to",
          "type": "address"
        },
        {
          "internalType": "uint256",
          "name": "deadline",
          "type": "uint256"
        }
      ],
      "name": "addLiquidity",
      "outputs": [
        {
          "internalType": "uint256",
          "name": "amountA",
          "type": "uint256"
        },
        {
          "internalType": "uint256",
          "name": "amountB",
          "type": "uint256"
        },
        {
          "internalType": "uint256",
          "name": "liquidity",
          "type": "uint256"
        }
      ],
      "stateMutability": "nonpayable",
      "type": "function"
    },
    {
      "inputs": [],
      "name": "factory",
      "outputs": [
        {
          "internalType": "address",
          "name": "",
          "type": "address"
        }
      ],
      "stateMutability": "view",
      "type": "function"
    },
    {
      "inputs": [
        {
          "internalType": "uint256",
          "name": "amountIn",
          "type": "uint256"
        },
        {
          "internalType": "uint256",
          "name": "reserveIn",
          "type": "uint256"
        },
        {
          "internalType": "uint256",
          "name": "reserveOut",
          "type": "uint256"
        }
      ],
      "name": "getAmountOut",
      "outputs": [
        {
          "internalType": "uint256",
          "name": "amountOut",
          "type": "uint256"
        }
      ],
      "stateMutability": "pure",
      "type": "function"
    },
    {
      "inputs": [
        {
          "internalType": "uint256",
          "name": "amountIn",
          "type": "uint256"
        },
        {
          "internalType": "address[]",
          "name": "path",
          "type": "address[]"
        }
      ],
      "name": "getAmountsOut",
      "outputs": [
        {
          "internalType": "uint256[]",
          "name": "amounts",
          "type": "uint256[]"
        }
      ],
      "stateMutability": "view",
      "type": "function"
    },
    {
      "inputs": [
        {
          "internalType": "address",
          "name": "tokenA",
          "type": "address"
        },
        {
          "internalType": "address",
          "name": "tokenB",
          "type": "address"
        }
      ],
      "name": "getReserves",
      "outputs": [
        {
          "internalType": "uint256",
          "name": "reserveA",
          "type": "uint256"
        },
        {
          "internalType": "uint256",
          "name": "reserveB",
          "type": "uint256"
        }
      ],
      "stateMutability": "view",
      "type": "function"
    },
    {
      "inputs": [
        {
          "internalType": "uint256",
          "name": "amountA",
          "type": "uint256"
        },
        {
          "internalType": "uint256",
          "name": "reserveA",
          "type": "uint256"
        },
        {
          "internalType": "uint256",
          "name": "reserveB",
          "type": "uint256"
        }
      ],
      "name": "quote",
      "outputs": [
        {
          "internalType": "uint256",
          "name": "amountB",
          "type": "uint256"
        }
      ],
      "stateMutability": "pure",
      "type": "function"
    },
    {
      "inputs": [
        {
          "internalType": "address",
          "name": "tokenA",
          "type": "address"
        },
        {
          "internalType": "address",
          "name": "tokenB",
          "type": "address"
        },
        {
          "internalType": "uint256",
          "name": "liquidity",
          "type": "uint256"
        },
        {
          "internalType": "uint256",
          "name": "amountAMin",
          "type": "uint256"
        },
        {
          "internalType": "uint256",
          "name": "amountBMin",
          "type": "uint256"
        },
        {
          "internalType": "address",
          "name": "to",
          "type": "address"
        },
        {
          "internalType": "uint256",
          "name": "deadline",
          "type": "uint256"
        }
      ],
      "name": "removeLiquidity",
      "outputs": [
        {
          "internalType": "uint256",
          "name": "amountA",
          "type": "uint256"
        },
        {
          "internalType": "uint256",
          "name": "amountB",
          "type": "uint256"
        }
      ],
      "stateMutability": "nonpayable",
      "type": "function"
    },
    {
      "inputs": [
        {
          "internalType": "uint256",
          "name": "amountIn",
          "type": "uint256"
        },
        {
          "internalType": "uint256",
          "name": "amountOutMin",
          "type": "uint256"
        },
        {
          "internalType": "address[]",
          "name": "path",
          "type": "address[]"
        },
        {
          "internalType": "address",
          "name": "to",
          "type": "address"
        },
        {
          "internalType": "uint256",
          "name": "deadline",
          "type": "uint256"
        }
      ],
      "name": "swapExactTokensForTokens",
      "outputs": [
        {
          "internalType": "uint256[]",
          "name": "amounts",
          "type": "uint256[]"
        }
      ],
      "stateMutability": "nonpayable",
      "type": "function"
    }
  ],
  "bytecode": "0x60c06040523480156200001157600080fd5b5060405162002a8338038062002a83833981810160405281019062000037919062000111565b8173ffffffffffffffffffffffffffffffffffffffff1660808173ffffffffffffffffffffffffffffffffffffffff16815250508073ffffffffffffffffffffffffffffffffffffffff1660a08173ffffffffffffffffffffffffffffffffffffffff1681525050505062000158565b600080fd5b600073ffffffffffffffffffffffffffffffffffffffff82169050919050565b6000620000d982620000ac565b9050919050565b620000eb81620000cc565b8114620000f757600080fd5b50565b6000815190506200010b81620000e0565b92915050565b600080604083850312156200012b576200012a620000a7565b5b60006200013b85828601620000fa565b92505060206200014e85828601620000fa565b9150509250929050565b60805160a0516128cd620001b660003960006105be01526000818161045a015281816106e50152818161097101528181610b2d01528181610d0c015281816110b2015281816111770152818161143101526114e801526128cd6000f3fe608060405234801561001057600080fd5b50600436106100935760003560e01c8063baa2abde11610066578063baa2abde14610146578063c45a015514610177578063d06ca61f14610195578063d52bb6f4146101c5578063e8e33700146101f657610093565b8063054d50d41461009857806338ed1739146100c8578063ad5c4648146100f8578063ad615dec14610116575b600080fd5b6100b260048036038101906100ad91906116eb565b610228565b6040516100bf919061174d565b60405180910390f35b6100e260048036038101906100dd919061182b565b61032e565b6040516100ef9190611983565b60405180910390f35b6101006105bc565b60405161010d91906119b4565b60405180910390f35b610130600480360381019061012b91906116eb565b6105e0565b60405161013d919061174d565b60405180910390f35b610160600480360381019061015b91906119cf565b61069a565b60405161016e929190611a71565b60405180910390f35b61017f61096f565b60405161018c91906119b4565b60405180910390f35b6101af60048036038101906101aa9190611be9565b610993565b6040516101bc9190611983565b60405180910390f35b6101df60048036038101906101da9190611c45565b610b16565b6040516101ed929190611a71565b60405180910390f35b610210600480360381019061020b9190611c85565b610ca9565b60405161021f93929190611d3b565b60405180910390f35b600080841161026c576040517f08c379a000000000000000000000000000000000000000000000000000000000815260040161026390611df5565b60405180910390fd5b60008311801561027c5750600082115b6102bb576040517f08c379a00000000000000000000000000000000000000000000000000000000081526004016102b290611e87565b60405180910390fd5b60006102d26103e586610e4e90919063ffffffff16565b905060006102e98483610e4e90919063ffffffff16565b90506000610314836103066103e889610e4e90919063ffffffff16565b610e6490919063ffffffff16565b905080826103229190611f05565b93505050509392505050565b60608142811015610374576040517f08c379a000000000000000000000000000000000000000000000000000000000815260040161036b90611f82565b60405180910390fd5b6103bf88878780806020026020016040519081016040528093929190818152602001838360200280828437600081840152601f19601f82011690508083019250505050505050610993565b91508682600184516103d19190611fa2565b815181106103e2576103e1611fd6565b5b6020026020010151101561042b576040517f08c379a000000000000000000000000000000000000000000000000000000000815260040161042290612077565b60405180910390fd5b6105658686600081811061044257610441611fd6565b5b90506020020160208101906104579190612097565b337f000000000000000000000000000000000000000000000000000000000000000073ffffffffffffffffffffffffffffffffffffffff1663e6a439058a8a60008181106104a8576104a7611fd6565b5b90506020020160208101906104bd9190612097565b8b8b60018181106104d1576104d0611fd6565b5b90506020020160208101906104e69190612097565b6040518363ffffffff1660e01b81526004016105039291906120c4565b602060405180830381865afa158015610520573d6000803e3d6000fd5b505050506040513d601f19601f820116820180604052508101906105449190612102565b8560008151811061055857610557611fd6565b5b6020026020010151610e7a565b6105b182878780806020026020016040519081016040528093929190818152602001838360200280828437600081840152601f19601f8201169050808301925050505050505086610fb3565b509695505050505050565b7f000000000000000000000000000000000000000000000000000000000000000081565b6000808411610624576040517f08c379a000000000000000000000000000000000000000000000000000000000815260040161061b906121a1565b60405180910390fd5b6000831180156106345750600082115b610673576040517f08c379a000000000000000000000000000000000000000000000000000000000815260040161066a90611e87565b60405180910390fd5b826106878386610e4e90919063ffffffff16565b6106919190611f05565b90509392505050565b60008082428110156106e1576040517f08c379a00000000000000000000000000000000000000000000000000000000081526004016106d890611f82565b60405180910390fd5b60007f000000000000000000000000000000000000000000000000000000000000000073ffffffffffffffffffffffffffffffffffffffff1663e6a439058c8c6040518363ffffffff1660e01b815260040161073e9291906120c4565b602060405180830381865afa15801561075b573d6000803e3d6000fd5b505050506040513d601f19601f8201168201806040525081019061077f9190612102565b90508073ffffffffffffffffffffffffffffffffffffffff166323b872dd33838c6040518463ffffffff1660e01b81526004016107be939291906121c1565b6020604051808303816000875af11580156107dd573d6000803e3d6000fd5b505050506040513d601f19601f820116820180604052508101906108019190612230565b506000808273ffffffffffffffffffffffffffffffffffffffff166389afcb44896040518263ffffffff1660e01b815260040161083e91906119b4565b60408051808303816000875af115801561085c573d6000803e3d6000fd5b505050506040513d601f19601f820116820180604052508101906108809190612272565b9150915060006108908e8e6112e8565b5090508073ffffffffffffffffffffffffffffffffffffffff168e73ffffffffffffffffffffffffffffffffffffffff16146108cd5781836108d0565b82825b80975081985050508a87101561091b576040517f08c379a000000000000000000000000000000000000000000000000000000000815260040161091290612324565b60405180910390fd5b8986101561095e576040517f08c379a0000000000000000000000000000000000000000000000000000000008152600401610955906123b6565b60405180910390fd5b505050505097509795505050505050565b7f000000000000000000000000000000000000000000000000000000000000000081565b60606002825110156109da576040517f08c379a00000000000000000000000000000000000000000000000000000000081526004016109d190612422565b60405180910390fd5b815167ffffffffffffffff8111156109f5576109f4611aab565b5b604051908082528060200260200182016040528015610a235781602001602082028036833780820191505090505b5090508281600081518110610a3b57610a3a611fd6565b5b60200260200101818152505060005b60018351610a589190611fa2565b811015610b0f57600080610aac858481518110610a7857610a77611fd6565b5b602002602001015186600186610a8e9190612442565b81518110610a9f57610a9e611fd6565b5b6020026020010151610b16565b91509150610ad5848481518110610ac657610ac5611fd6565b5b60200260200101518383610228565b84600185610ae39190612442565b81518110610af457610af3611fd6565b5b60200260200101818152505050508080600101915050610a4a565b5092915050565b6000806000610b2585856112e8565b5090506000807f000000000000000000000000000000000000000000000000000000000000000073ffffffffffffffffffffffffffffffffffffffff1663e6a4390588886040518363ffffffff1660e01b8152600401610b869291906120c4565b602060405180830381865afa158015610ba3573d6000803e3d6000fd5b505050506040513d601f19601f82011682018060405250810190610bc79190612102565b73ffffffffffffffffffffffffffffffffffffffff16630902f1ac6040518163ffffffff1660e01b8152600401606060405180830381865afa158015610c11573d6000803e3d6000fd5b505050506040513d601f19601f82011682018060405250810190610c3591906124f8565b506dffffffffffffffffffffffffffff1691506dffffffffffffffffffffffffffff1691508273ffffffffffffffffffffffffffffffffffffffff168773ffffffffffffffffffffffffffffffffffffffff1614610c94578082610c97565b81815b80955081965050505050509250929050565b60008060008342811015610cf2576040517f08c379a0000000000000000000000000000000000000000000000000000000008152600401610ce990611f82565b60405180910390fd5b610d008c8c8c8c8c8c611414565b809450819550505060007f000000000000000000000000000000000000000000000000000000000000000073ffffffffffffffffffffffffffffffffffffffff1663e6a439058e8e6040518363ffffffff1660e01b8152600401610d659291906120c4565b602060405180830381865afa158015610d82573d6000803e3d6000fd5b505050506040513d601f19601f82011682018060405250810190610da69190612102565b9050610db48d338388610e7a565b610dc08c338387610e7a565b8073ffffffffffffffffffffffffffffffffffffffff16636a627842886040518263ffffffff1660e01b8152600401610df991906119b4565b6020604051808303816000875af1158015610e18573d6000803e3d6000fd5b505050506040513d601f19601f82011682018060405250810190610e3c919061254b565b92505050985098509895505050505050565b60008183610e5c9190612578565b905092915050565b60008183610e729190612442565b905092915050565b6000808573ffffffffffffffffffffffffffffffffffffffff166323b872dd868686604051602401610eae939291906121c1565b6040516020818303038152906040529060e01b6020820180517bffffffffffffffffffffffffffffffffffffffffffffffffffffffff8381831617835250505050604051610efc919061262b565b6000604051808303816000865af19150503d8060008114610f39576040519150601f19603f3d011682016040523d82523d6000602084013e610f3e565b606091505b5091509150818015610f6c5750600081511480610f6b575080806020019051810190610f6a9190612230565b5b5b610fab576040517f08c379a0000000000000000000000000000000000000000000000000000000008152600401610fa2906126b4565b60405180910390fd5b505050505050565b60005b60018351610fc49190611fa2565b8110156112e257600080848381518110610fe157610fe0611fd6565b5b602002602001015185600185610ff79190612442565b8151811061100857611007611fd6565b5b602002602001015191509150600061102083836112e8565b5090506000876001866110339190612442565b8151811061104457611043611fd6565b5b602002602001015190506000808373ffffffffffffffffffffffffffffffffffffffff168673ffffffffffffffffffffffffffffffffffffffff161461108c57826000611090565b6000835b91509150600060028a516110a49190611fa2565b88106110b05788611173565b7f000000000000000000000000000000000000000000000000000000000000000073ffffffffffffffffffffffffffffffffffffffff1663e6a43905878c60028c6110fb9190612442565b8151811061110c5761110b611fd6565b5b60200260200101516040518363ffffffff1660e01b81526004016111319291906120c4565b602060405180830381865afa15801561114e573d6000803e3d6000fd5b505050506040513d601f19601f820116820180604052508101906111729190612102565b5b90507f000000000000000000000000000000000000000000000000000000000000000073ffffffffffffffffffffffffffffffffffffffff1663e6a4390588886040518363ffffffff1660e01b81526004016111d09291906120c4565b602060405180830381865afa1580156111ed573d6000803e3d6000fd5b505050506040513d601f19601f820116820180604052508101906112119190612102565b73ffffffffffffffffffffffffffffffffffffffff1663022c0d9f848484600067ffffffffffffffff81111561124a57611249611aab565b5b6040519080825280601f01601f19166020018201604052801561127c5781602001600182028036833780820191505090505b506040518563ffffffff1660e01b815260040161129c949392919061271e565b600060405180830381600087803b1580156112b657600080fd5b505af11580156112ca573d6000803e3d6000fd5b50505050505050505050508080600101915050610fb6565b50505050565b6000808273ffffffffffffffffffffffffffffffffffffffff168473ffffffffffffffffffffffffffffffffffffffff1603611359576040517f08c379a0000000000000000000000000000000000000000000000000000000008152600401611350906127dc565b60405180910390fd5b8273ffffffffffffffffffffffffffffffffffffffff168473ffffffffffffffffffffffffffffffffffffffff1610611393578284611396565b83835b8092508193505050600073ffffffffffffffffffffffffffffffffffffffff168273ffffffffffffffffffffffffffffffffffffffff160361140d576040517f08c379a000000000000000000000000000000000000000000000000000000000815260040161140490612848565b60405180910390fd5b9250929050565b600080600073ffffffffffffffffffffffffffffffffffffffff167f000000000000000000000000000000000000000000000000000000000000000073ffffffffffffffffffffffffffffffffffffffff1663e6a439058a8a6040518363ffffffff1660e01b815260040161148a9291906120c4565b602060405180830381865afa1580156114a7573d6000803e3d6000fd5b505050506040513d601f19601f820116820180604052508101906114cb9190612102565b73ffffffffffffffffffffffffffffffffffffffff1603611586577f000000000000000000000000000000000000000000000000000000000000000073ffffffffffffffffffffffffffffffffffffffff1663c9c6539689896040518363ffffffff1660e01b81526004016115419291906120c4565b6020604051808303816000875af1158015611560573d6000803e3d6000fd5b505050506040513d601f19601f820116820180604052508101906115849190612102565b505b6000806115938a8a610b16565b915091506000821480156115a75750600081145b156115bb5787878094508195505050611694565b60006115c88984846105e0565b90508781116116235785811015611614576040517f08c379a000000000000000000000000000000000000000000000000000000000815260040161160b906123b6565b60405180910390fd5b88818095508196505050611692565b60006116308984866105e0565b90508981111561164357611642612868565b5b87811015611686576040517f08c379a000000000000000000000000000000000000000000000000000000000815260040161167d90612324565b60405180910390fd5b80898096508197505050505b505b5050965096945050505050565b6000604051905090565b600080fd5b600080fd5b6000819050919050565b6116c8816116b5565b81146116d357600080fd5b50565b6000813590506116e5816116bf565b92915050565b600080600060608486031215611704576117036116ab565b5b6000611712868287016116d6565b9350506020611723868287016116d6565b9250506040611734868287016116d6565b9150509250925092565b611747816116b5565b82525050565b6000602082019050611762600083018461173e565b92915050565b600080fd5b600080fd5b600080fd5b60008083601f84011261178d5761178c611768565b5b8235905067ffffffffffffffff8111156117aa576117a961176d565b5b6020830191508360208202830111156117c6576117c5611772565b5b9250929050565b600073ffffffffffffffffffffffffffffffffffffffff82169050919050565b60006117f8826117cd565b9050919050565b611808816117ed565b811461181357600080fd5b50565b600081359050611825816117ff565b92915050565b60008060008060008060a08789031215611848576118476116ab565b5b600061185689828a016116d6565b965050602061186789828a016116d6565b955050604087013567ffffffffffffffff811115611888576118876116b0565b5b61189489828a01611777565b945094505060606118a789828a01611816565b92505060806118b889828a016116d6565b9150509295509295509295565b600081519050919050565b600082825260208201905092915050565b6000819050602082019050919050565b6118fa816116b5565b82525050565b600061190c83836118f1565b60208301905092915050565b6000602082019050919050565b6000611930826118c5565b61193a81856118d0565b9350611945836118e1565b8060005b8381101561197657815161195d8882611900565b975061196883611918565b925050600181019050611949565b5085935050505092915050565b6000602082019050818103600083015261199d8184611925565b905092915050565b6119ae816117ed565b82525050565b60006020820190506119c960008301846119a5565b92915050565b600080600080600080600060e0888a0312156119ee576119ed6116ab565b5b60006119fc8a828b01611816565b9750506020611a0d8a828b01611816565b9650506040611a1e8a828b016116d6565b9550506060611a2f8a828b016116d6565b9450506080611a408a828b016116d6565b93505060a0611a518a828b01611816565b92505060c0611a628a828b016116d6565b91505092959891949750929550565b6000604082019050611a86600083018561173e565b611a93602083018461173e565b9392505050565b6000601f19601f8301169050919050565b7f4e487b7100000000000000000000000000000000000000000000000000000000600052604160045260246000fd5b611ae382611a9a565b810181811067ffffffffffffffff82111715611b0257611b01611aab565b5b80604052505050565b6000611b156116a1565b9050611b218282611ada565b919050565b600067ffffffffffffffff821115611b4157611b40611aab565b5b602082029050602081019050919050565b6000611b65611b6084611b26565b611b0b565b90508083825260208201905060208402830185811115611b8857611b87611772565b5b835b81811015611bb15780611b9d8882611816565b845260208401935050602081019050611b8a565b5050509392505050565b600082601f830112611bd057611bcf611768565b5b8135611be0848260208601611b52565b91505092915050565b60008060408385031215611c0057611bff6116ab565b5b6000611c0e858286016116d6565b925050602083013567ffffffffffffffff811115611c2f57611c2e6116b0565b5b611c3b85828601611bbb565b9150509250929050565b60008060408385031215611c5c57611c5b6116ab565b5b6000611c6a85828601611816565b9250506020611c7b85828601611816565b9150509250929050565b600080600080600080600080610100898b031215611ca657611ca56116ab565b5b6000611cb48b828c01611816565b9850506020611cc58b828c01611816565b9750506040611cd68b828c016116d6565b9650506060611ce78b828c016116d6565b9550506080611cf88b828c016116d6565b94505060a0611d098b828c016116d6565b93505060c0611d1a8b828c01611816565b92505060e0611d2b8b828c016116d6565b9150509295985092959890939650565b6000606082019050611d50600083018661173e565b611d5d602083018561173e565b611d6a604083018461173e565b949350505050565b600082825260208201905092915050565b7f556e697377617056324c6962726172793a20494e53554646494349454e545f4960008201527f4e5055545f414d4f554e54000000000000000000000000000000000000000000602082015250565b6000611ddf602b83611d72565b9150611dea82611d83565b604082019050919050565b60006020820190508181036000830152611e0e81611dd2565b9050919050565b7f556e697377617056324c6962726172793a20494e53554646494349454e545f4c60008201527f4951554944495459000000000000000000000000000000000000000000000000602082015250565b6000611e71602883611d72565b9150611e7c82611e15565b604082019050919050565b60006020820190508181036000830152611ea081611e64565b9050919050565b7f4e487b7100000000000000000000000000000000000000000000000000000000600052601260045260246000fd5b7f4e487b7100000000000000000000000000000000000000000000000000000000600052601160045260246000fd5b6000611f10826116b5565b9150611f1b836116b5565b925082611f2b57611f2a611ea7565b5b828204905092915050565b7f556e69737761705632526f757465723a20455850495245440000000000000000600082015250565b6000611f6c601883611d72565b9150611f7782611f36565b602082019050919050565b60006020820190508181036000830152611f9b81611f5f565b9050919050565b6000611fad826116b5565b9150611fb8836116b5565b9250828203905081811115611fd057611fcf611ed6565b5b92915050565b7f4e487b7100000000000000000000000000000000000000000000000000000000600052603260045260246000fd5b7f556e69737761705632526f757465723a20494e53554646494349454e545f4f5560008201527f545055545f414d4f554e54000000000000000000000000000000000000000000602082015250565b6000612061602b83611d72565b915061206c82612005565b604082019050919050565b6000602082019050818103600083015261209081612054565b9050919050565b6000602082840312156120ad576120ac6116ab565b5b60006120bb84828501611816565b91505092915050565b60006040820190506120d960008301856119a5565b6120e660208301846119a5565b9392505050565b6000815190506120fc816117ff565b92915050565b600060208284031215612118576121176116ab565b5b6000612126848285016120ed565b91505092915050565b7f556e697377617056324c6962726172793a20494e53554646494349454e545f4160008201527f4d4f554e54000000000000000000000000000000000000000000000000000000602082015250565b600061218b602583611d72565b91506121968261212f565b604082019050919050565b600060208201905081810360008301526121ba8161217e565b9050919050565b60006060820190506121d660008301866119a5565b6121e360208301856119a5565b6121f0604083018461173e565b949350505050565b60008115159050919050565b61220d816121f8565b811461221857600080fd5b50565b60008151905061222a81612204565b92915050565b600060208284031215612246576122456116ab565b5b60006122548482850161221b565b91505092915050565b60008151905061226c816116bf565b92915050565b60008060408385031215612289576122886116ab565b5b60006122978582860161225d565b92505060206122a88582860161225d565b9150509250929050565b7f556e69737761705632526f757465723a20494e53554646494349454e545f415f60008201527f414d4f554e540000000000000000000000000000000000000000000000000000602082015250565b600061230e602683611d72565b9150612319826122b2565b604082019050919050565b6000602082019050818103600083015261233d81612301565b9050919050565b7f556e69737761705632526f757465723a20494e53554646494349454e545f425f60008201527f414d4f554e540000000000000000000000000000000000000000000000000000602082015250565b60006123a0602683611d72565b91506123ab82612344565b604082019050919050565b600060208201905081810360008301526123cf81612393565b9050919050565b7f556e697377617056324c6962726172793a20494e56414c49445f504154480000600082015250565b600061240c601e83611d72565b9150612417826123d6565b602082019050919050565b6000602082019050818103600083015261243b816123ff565b9050919050565b600061244d826116b5565b9150612458836116b5565b92508282019050808211156124705761246f611ed6565b5b92915050565b60006dffffffffffffffffffffffffffff82169050919050565b61249981612476565b81146124a457600080fd5b50565b6000815190506124b681612490565b92915050565b600063ffffffff82169050919050565b6124d5816124bc565b81146124e057600080fd5b50565b6000815190506124f2816124cc565b92915050565b600080600060608486031215612511576125106116ab565b5b600061251f868287016124a7565b9350506020612530868287016124a7565b9250506040612541868287016124e3565b9150509250925092565b600060208284031215612561576125606116ab565b5b600061256f8482850161225d565b91505092915050565b6000612583826116b5565b915061258e836116b5565b925082820261259c816116b5565b915082820484148315176125b3576125b2611ed6565b5b5092915050565b600081519050919050565b600081905092915050565b60005b838110156125ee5780820151818401526020810190506125d3565b60008484015250505050565b6000612605826125ba565b61260f81856125c5565b935061261f8185602086016125d0565b80840191505092915050565b600061263782846125fa565b915081905092915050565b7f5472616e7366657248656c7065723a205452414e534645525f46524f4d5f464160008201527f494c454400000000000000000000000000000000000000000000000000000000602082015250565b600061269e602483611d72565b91506126a982612642565b604082019050919050565b600060208201905081810360008301526126cd81612691565b9050919050565b600082825260208201905092915050565b60006126f0826125ba565b6126fa81856126d4565b935061270a8185602086016125d0565b61271381611a9a565b840191505092915050565b6000608082019050612733600083018761173e565b612740602083018661173e565b61274d60408301856119a5565b818103606083015261275f81846126e5565b905095945050505050565b7f556e697377617056324c6962726172793a204944454e544943414c5f4144445260008201527f4553534553000000000000000000000000000000000000000000000000000000602082015250565b60006127c6602583611d72565b91506127d18261276a565b604082019050919050565b600060208201905081810360008301526127f5816127b9565b9050919050565b7f556e697377617056324c6962726172793a205a45524f5f414444524553530000600082015250565b6000612832601e83611d72565b915061283d826127fc565b602082019050919050565b6000602082019050818103600083015261286181612825565b9050919050565b7f4e487b7100000000000000000000000000000000000000000000000000000000600052600160045260246000fdfea2646970667358221220aad20a3ebb309a9faee526bcaf9d28e58dd8f67c7667dcf10622ff1496a4fae164736f6c63430008180033",
  "linkReferences": {},
  "deployedLinkReferences": {}
}